:020000040800F2
:100000005045002071020008FF260008D51E000898
:10001000FD260008AB0900087F2C00080000000046
:10002000000000000000000000000000B101000816
:10003000AD090008000000000D0200082D2700088F
:100040008B0200088B0200088B0200088B0200085C
:100050008B0200088B020008AF0900088B02000821
:100060008B0200088B0200088B0200088B0200083C
:100070008B0200088B0200088B0200088B0200082C
:100080008B0200088B0200088B02000800000000B1
:100090000000000000000000000000008B020008CB
:1000A0008B0200088B0200088B0200088B020008FC
:1000B0008B0200088B0200088B0200088B020008EC
:1000C0008B0200088B0200088B0200088B020008DC
:1000D0008B020008652C0008712C0008000000004D
:1000E0008B0200088B0200088B0200080000000051
:1000F0000000000000000000000000008B0200086B
:10010000000000008B0200088B0200088B02000830
:1001100000000000000000000000000000000000DF
:100120008B0200088B0200088B0200088B0200087B
:100130008B0200080000000000000000000000002A
:100140000000000000000000000000008B0200081A
:100150008B0200088B0200088B0200088B0200084B
:100160008B0200088B020008000000000000000065
:10017000000000000000000000000000000000007F
:10018000000000008B0200080000000000000000DA
:100190008B0200088B020008DFF810D000F0A2FBF1
:1001A00000480047A54A0008AFF3008050450020F2
:1001B0002C4B19680868B0E8F04F80F30988BFF34A
:1001C0006F8F4FF0000080F311887047000000002F
:1001D00008480068006880F308884FF0000080F34A
:1001E000148862B661B6BFF34F8FBFF36F8F00DF25
:1001F00000BF00BF08ED00E0DFF80C00016841F42B
:1002000070010160704700BF88ED00E0EFF30980E6
:10021000BFF36F8F134B1A681EF0100F08BF20ED4D
:10022000108A20E9F04F106009B44FF0500080F3BD
:100230001188BFF34F8FBFF36F8F05F0A5FF4FF00D
:10024000000080F3118809BC19680868B0E8F04F15
:100250001EF0100F08BFB0EC108A80F30988BFF3BE
:100260006F8F704768000020EFF305807047000033
:100270000648804706480047FEE7FEE7FEE7FEE740
:10028000FEE7FEE7FEE7FEE7FEE7FEE7D52700080C
:10029000990100082DE9F05F0546002092469B4633
:1002A00088460646814640241BE02846414647468C
:1002B000224600F048FA53465A46C01A914110D3DC
:1002C00011461846224600F02FFA2D1A67EB010856
:1002D0004F4622460120002100F026FA17EB0009C4
:1002E0004E41201EA4F10104DFDC484631462A4677
:1002F0004346BDE8F09F2DE9F0410024061B25464A
:1003000071F1000605DA01240027D0EB070067EB46
:100310000101161E73F1000605DA0027D2EB070271
:10032000012567EB0303FFF7B5FF86460E46174628
:100330009C46AC4204D00025D0EB050E65EB0106CF
:1003400024B10020D2EB000760EB030C704631466D
:100350003A466346BDE8F08140EA01039B0703D0BB
:1003600009E008C9121F08C0042AFAD203E011F8F4
:10037000013B00F8013B521EF9D27047D2B201E0B6
:1003800000F8012B491EFBD270470022F6E710B59A
:1003900013460A4604461946FFF7F0FF204610BDF3
:1003A00030B504460020034600E05B1C934203D2B4
:1003B000E05CCD5C401BF8D030BD2DE9FE4F80469F
:1003C00081EA0300C00F0C46009021F0004123F0A9
:1003D0000045B8EB0200A94105D2404621469046AF
:1003E0001C460B46024623F00040104347D0270D21
:1003F000C7F30A00C3F30A510290401A0190402843
:100400006BDAC3F3130040F4801B0098924620B1CE
:100410000023D2EB030A63EB0B0B01985946C0F1A2
:100420004002504600F080F906460D4650465946B7
:10043000019A00F098F910EB08006141002487EA66
:10044000115284EAE7731A4340D0009A62B3019ACA
:10045000012A4FEA075215DC001B61EB02014FF045
:10046000004202EA0752CDE90042001C41F580112A
:1004700032462B4600F0CFF903B0BDE8F08F40467E
:100480002146F9E7001B61EB0201001C41F58013D6
:1004900000185B412018A2F5001747EB030140EA62
:1004A000D570B6196D4111E06D084FEA360645EA80
:1004B000C0754FEA0752001B61EB0201001C41F5B9
:1004C000801149084FEA30000019514132462B464D
:1004D00003B0BDE8F04F00F08FB900980122400052
:1004E0000023D0EB020263EBE073009821464FEA51
:1004F000E074B8EB000061EB0401E9E783F000432E
:100500005BE781F0004158E72DE9FE4F81EA0304E3
:1005100004F0004421F0004100944FF0000B23F060
:10052000004350EA01045ED052EA03045BD0C3F3F7
:100530000A54C1F30A552C44A4F2F3340194A0FBED
:100540000254C1F3130141F48011C3F3130343F4C4
:10055000801301FB024400FB034E840A970A44EA1D
:10056000815447EA8357A4FB076802958D0A05FB6F
:1005700007854FEA932C04FB0C542705029D4FEA94
:10058000065847EA1637B5EB08056EEB070C870EE1
:10059000920E47EA811742EA8312A7FB0201B6EBEB
:1005A0000B0164EB00042B0D43EA0C335E1844EBA3
:1005B0001C50DA465146E7FB0201C5F313044FEA2B
:1005C0000B3343EA14534FEA0432019C43EA060317
:1005D000A4F10C040294009CCDE900B400F01BF9D6
:1005E00003B0BDE8F08F00200146F9E72DE9F04D9A
:1005F00081EA030404F0004B21F0004514464FF05B
:10060000000A23F0004150EA050220D054EA01021A
:100610001DD0C5F30A570246C5F31303C1F31300F7
:10062000C1F30A5640F4801543F48013A7EB060883
:10063000101BD64608F2FD3873EB050002D308F113
:10064000010801E092185B41B8F1000F03DA0020C5
:100650000146BDE8F08D00204FF480110646844627
:100660000EE0171B73EB050705D3121B63EB0503A5
:1006700006434CEA010C49084FEA300092185B41EE
:1006800050EA0107EDD152EA030012D082EA0400D9
:1006900083EA0501084305D0101BAB4106D20122B5
:1006A000002306E000224FF0004302E06FF0010259
:1006B00053101AEB06004CEB085110EB0A0041EB0B
:1006C0000B01BDE8F04D00F097B800F0004230F0AB
:1006D00000400AD0C10D01F56071C0F3160042EA76
:1006E0000151C2084007114370470020014670477E
:1006F00001F0004330B421F0004150EA010206D07D
:100700000A0DA2F56072C1F31301002A02DC30BCAD
:1007100000207047440F44EAC104C100E01830BC17
:1007200000EBC25000F031B8202A04DB203A00FA76
:1007300002F1002070479140C2F1200320FA03F338
:10074000194390407047202A04DB203A21FA02F036
:100750000021704721FA02F3D040C2F120029140FB
:10076000084319467047202A06DBCB17203A41FA86
:1007700002F043EAE07306E041FA02F3D040C2F12E
:10078000200291400843194670470029A8BF7047CE
:10079000401C490008BF20F00100704710B4B0FAB7
:1007A00080FC00FA0CF050EA010404BF10BC704752
:1007B00049B1CCF1200421FA04F411FA0CF118BF6C
:1007C000012121430843A3EB0C01CB1D4FEA00613B
:1007D0004FEA102042BF002010BC704700EBC3500E
:1007E00010440029A4BF10BC7047401C490008BF3A
:1007F00020F0010010BC704710B5141E73F1000406
:1008000008DA401C41F1000192185B411A4301D102
:1008100020F0010010BD2DE9F04D92469B4611B12C
:10082000B1FA81F202E0B0FA80F220329046FFF78E
:100830007BFF04460F4640EA0A0041EA0B0153469B
:100840005A46084313D0114653EA010019D0C8F1A3
:1008500040025046FFF777FF05460E465046594680
:100860004246FFF761FF084305D0012004E020461F
:100870003946BDE8F08D0020054346EAE0762C437A
:1008800037430A986305E40AA0EB08000022FD0A3A
:1008900044EA47540A3002D500200146E9E7010541
:1008A00010196941DDE9084500196941BDE8F04DBD
:1008B000A2E7000030B5041E71F1000404DB4FF024
:1008C0000044404264EB0101141E73F1000405DB97
:1008D0001C464FF00043524263EB04038B4208BFB7
:1008E000824230BD064C074D06E0E06840F001034F
:1008F00094E8070098471034AC42F6D3FFF750FC59
:1009000048730008687300082DE9F04D00231A466B
:100910001B1A8A4103DB00200146BDE8F08DC1F3BC
:100920000A52C1F3130141F480154FF0000BD107B7
:1009300002D100186D41521E0027044640F2FF11FB
:10094000384601EB620A3E468046024600204FF4DC
:100950008011FFF7F8FEC2197141BB1846EB010088
:10096000B4EB030C75EB000C04D3E41A65EB000543
:1009700017460E46241908F101006D4180463428BF
:10098000E3DDF91946EB0600091BA84103D24FF03D
:10099000FF32134601E0002213461BEB070046EB33
:1009A0000A51BDE8F04DFFF727BFFEE77047012071
:1009B00000F072B872B6FEE72DE9F0410446876D8B
:1009C00000F06CF9064694F835000025022806D0A0
:1009D0008020606584F834500120BDE8F0812068F3
:1009E000016821F0160101602068416921F0800151
:1009F0004161206C08B9A06C20B12068016821F029
:100A0000080101602068016821F0010101600CE02B
:100A100000F044F9801B052807D9202060650320D9
:100A200084F8350084F83450D7E720680068C007A0
:100A3000EED194F85C103F208840B860012084F823
:100A4000350084F834500020C7E790F835100229AB
:100A500003D08021416501207047052180F83510C1
:100A60000068016821F0010101600020704700006A
:100A700070B5044600F012F90546601C02D0044827
:100A80000078044400F00AF9401BA042FAD370BD7C
:100A90000800002070470000044910B50A680242AF
:100AA00002D00860FFF7F6FF10BD0000143C0140C3
:100AB0002DE9F84FDFF8B8A10022012403254FF0FB
:100AC0000F090AF1040BAAF1040E00BF0B6804FA27
:100AD00002F63340B34273D10F7907F00307012FB9
:100AE00001D0022F16D187684FEA420805FA08FCA8
:100AF00027EA0C07D1F80CC00CFA08FC4CEA070CEA
:100B0000C0F808C04768B7430E79C6F30016964090
:100B10003E4346600E79F643B6070DD0C7685600CF
:100B200005FA06FC27EA0C07D1F808C00CFA06FC07
:100B30004CEA070CC0F80CC00E7906F00306022E32
:100B400010D1D60800EB8608D8F8206057074FEA86
:100B5000D76C09FA0CF7BE430F6907FA0CF7374355
:100B6000C8F8207006684FEA420C05FA0CF7BE433D
:100B70000F7907F0030707FA0CF7374307604E6851
:100B800016F4403F6DD03B4E376847F480473760DE
:100B9000366822F0030706F480460096364E07EBCF
:100BA000060CDCF8086897073F0F09FA07F826EAF1
:100BB0000806DFF8C880404503D14FF000081EE06A
:100BC0004FE0DFF8BC80404502D14FF0010816E04D
:100BD000DFF8B080404502D14FF002080FE0DFF8A7
:100BE000A880404502D14FF0030808E0DFF89C8060
:100BF000404502D14FF0040801E04FF0070808FA21
:100C000007F848EA0608CCF80888DAF80060574682
:100C1000D1F804C09E435FEACC2C00D51E433E6051
:100C2000DBF800605F46D1F804C09E435FEA8C2C7D
:100C300000D51E433E60DEF800607746D1F804C060
:100C40009E435FEA8C3C00D51E433E60084F083F40
:100C50003E68D1F804C09E435FEACC3C00D51E43F9
:100C60003E60521C102AFFF431AFBDE8F88F00003F
:100C7000083C01404438024000300140000002407E
:100C80000004024000080240000C02400010024034
:100C90000AB1816170470904FBE7000001488068E0
:100CA000704700000800002070B5040025D094F8BB
:100CB0003D00002520B984F83C50204600F04CFA55
:100CC000242084F83D002068016821F001010160C2
:100CD0002068016841F4004101602068016821F446
:100CE0000041016000F0A4FB4D4A6168914201D8C7
:100CF0004C4900E04C49884201D2012070BD4B496B
:100D00002368B0FBF1F15E6826F03F060E435E609B
:100D10006368934206D94FF4967359434FF47A733C
:100D2000B1FBF3F12368491C1E6A26F03F063143EC
:100D300019626168914210D84900401EB0FBF1F27F
:100D4000521CC2F30B02042A01D2042022E0B0FBA1
:100D5000F1F0401CC0F30B001CE0A268F2B301EB01
:100D6000C10303EB0116431EB3FBF6F35B1C43F414
:100D700080431B0549D092B301EBC10202EB011184
:100D8000401EB0FBF1F0401CC0F30B0040F480406B
:100D900040F400402168CA694CF6FF739A4310433F
:100DA000C861D4E9071001432068026822F0C0023C
:100DB00011430160D4E9030101432068826848F2CD
:100DC000FF339A4311438160D4E905010843216848
:100DD000CA6822F0FF021043C86001E00EE016E08E
:100DE0002068016841F0010101602564202084F839
:100DF0003D00256384F83E50002070BD01EB4106A4
:100E0000431EB3FBF6F35B1CB3E70120C2E701EB23
:100E10004101401EB0FBF1F0401CC0F30B00B7E7EE
:100E2000A086010080841E0000093D0040420F00A2
:100E30002DE9FF4F83B09A46DDE9119793460446AA
:100E4000DDF84080FFF72AFF054694F83D00202892
:100E500070D11923012271492046009501F04AF909
:100E60000028F5D194F83C00012863D0012084F8D3
:100E70003C0020680168C90703D1016841F0010105
:100E800001602068016821F400610160222084F87B
:100E90003D00402084F83E0000262664C4F82480EB
:100EA000A4F82A90608D20855D48E062CDE9007548
:100EB00053465A462046049901F024F800287CD174
:100EC000208DD0B1012821D00228206824D041698A
:100ED00080690090208D032869D801282BD05149C2
:100EE00002283B464FF00002009559D08846204624
:100EF00001F000F9002860D13CE020684169816977
:100F00000091016841F40071016077E02068016898
:100F100021F480610160F0E7016821F480610160E3
:100F20002068016841F400610160206841698069BE
:100F3000009063E06FE02A463946204601F059F9F7
:100F400098BB20680069616A08704EE020680168FB
:100F500041F40071016020680069616A0870606A8C
:100F6000401C6062218D491E2185618D491E61856D
:100F7000216838E02068016821F480610160206800
:100F80000069616A0870606A401C6062208D401EC2
:100F90002085608D401E60853B46002241460095BD
:100FA000204601F0A7F800B9D0E706E0FFE72A469F
:100FB0003946204601F01DF918B1012007B0BDE8FF
:100FC000F08F20680069616A0870606A401C606286
:100FD000218D491E2185618D491E618521684A69DF
:100FE000D24352070AD409690170606A401C6062EA
:100FF000208D401E2085608D401E6085208D00283C
:101000007FF468AF202084F83D0084F83E6084F8C7
:101010003C600020D2E70220D0E700000200100070
:101020000000FFFF040001002DE9FF4F83B09A4646
:10103000DDE9119793460446DDF84080FFF72EFE68
:10104000054694F83D0020287FD11923012240490C
:101050002046009501F04EF8002876D194F83C0027
:10106000012872D0012084F83C0020680168C9077B
:1010700003D1016841F0010101602068016821F499
:1010800000610160212084F83D00402084F83E008A
:1010900000262664C4F82480A4F82A90608D208558
:1010A0002C48E062CDE9007553465A462046049923
:1010B00000F0A6FF70B930E02A463946204601F01C
:1010C000CBF858B1206C042804D12068016841F4A1
:1010D00000710160012007B0BDE8F08F606A2168EF
:1010E00000780861606A401C6062218D491E89B2E7
:1010F0002185628D521E628522685369DB435B073E
:101100000BD469B100781061606A401C6062208D68
:10111000401E2085608D401E6085208D0028CBD12B
:101120002A463946204600F0BFFF0028CAD154F8AD
:101130003D0B016841F400710160202004F81E0994
:10114000E67766770020C6E7FFE70220C3E70000E6
:10115000020010000000FFFF10B586B00446142105
:101160006846FFF712F913492068884220D11248D7
:101170000021026842F002020260006800F00200F2
:101180000590C02000901220CDE9010103200390BA
:101190000420049069460948FFF78AFC064810308D
:1011A000016841F400110160006800F4001005902E
:1011B00006B010BD00540040303802400004024028
:1011C000024881680278114481607047080000205D
:1011D0000B4810B5016841F400710160016841F4E9
:1011E00080610160016841F480710160032000F0BA
:1011F00073F80F2000F006F800F024F8002010BD6E
:10120000003C024070B50D4D04464FF47A712878C9
:10121000B1FBF0F00A490968B1FBF0F000F010FBF7
:1012200048B9102C07D200222146501E00F034F895
:1012300000206C6070BD012070BD0000080000201F
:10124000140000200C4882B0016841F48041016024
:10125000006800F4804000900748001F016841F0DA
:10126000805101600068002200F0805000900F2142
:10127000901E02B000F010B844380240002809DB8C
:1012800000F01F02012191404009800000F1E020A0
:10129000C0F8001170470000F0B40E4B1B680C46FC
:1012A000C3F30223C3F10705042D00D90425191D3A
:1012B000072901D2002300E0DB1E012606FA05F112
:1012C000491E214099409E40761E16403143F0BC95
:1012D00001F0FEBC0CED00E0064900F007020868D2
:1012E0004FF6FF03184040EA0220034A104308600B
:1012F000704700000CED00E00000FA052DE9F04712
:101300000E46050065D0DFF81481D8F80000F7B26A
:1013100000F00700B04207D288F80070D8F800004B
:1013200000F00700B04254D128683D4C810712D527
:10133000400703D5206840F4E0502060287800077B
:1013400003D5206840F4604020602068A96820F040
:10135000F000084320602878C0072DD03049686825
:101360000839012812D0022813D0032811D00968A7
:10137000890700292DDA216821F00301014321604A
:10138000FFF78CFC814641F2883A0EE00968890338
:10139000EFE709688901ECE7FFF780FCA0EB0901A2
:1013A000514502D90320BDE8F0872068696800F044
:1013B0000C00B0EB810FEFD1D8F80010404601F0DF
:1013C0000701B14207D90770006800F00700B0427A
:1013D00001D00120E7E72878400705D52068E968B3
:1013E00020F4E050084320602878000706D52068E4
:1013F000296920F4604040EAC100206000F038F81C
:101400002168084AC1F30311515CC84006490860CD
:1014100006480068FFF7F6FE0020C4E7003C0240E3
:101420000838024098650008140000200C000020D5
:101430000448054900680968044AC1F38221515CE7
:10144000C84070471400002008380240A865000812
:101450000448054900680968044AC1F34231515CF7
:10146000C84070471400002008380240A8650008F2
:10147000154810B5006810F00C02144813D0144938
:10148000042A0FD0082A0ED10F4C241F226823688B
:1014900002F03F025B0207D52068C0F38810A0FB72
:1014A000010106E0084610BD2168C1F38811A1FBC7
:1014B00000010023FEF7EEFE2168C1F30141491C43
:1014C0004900B0FBF1F010BD083802400024F400E0
:1014D00040787D012DE9F84F04006ED02078DFF8C8
:1014E0004C93C007A9F104054AD009F10400016832
:1014F000C1F38101012908D00068C0F381000228EE
:101500000AD1D9F80000400206D52868800337D5F3
:1015100060680028E1D033E06068B0F5803F10D00B
:10152000B0F5A02F286810D020F4803028602868FB
:1015300020F4802028606068A8B1FFF7AFFB064662
:101540000DE0286840F48030F4E740F48020286003
:10155000F7E700BFFFF7A2FB801B642873D8286859
:101560008003F7D50CE0FFF799FB064605E000BFC6
:10157000FFF794FB801B6428F0D828688003F7D419
:101580002078DFF8AC8280074FF0000A3ED5A748EC
:10159000001D016811F00C0F08D00068C0F3810035
:1015A00002280BD1D9F80000400207D42868800730
:1015B00016D5E068012800D112E033E1E068B8B147
:1015C0000120C8F80000FFF769FB064605E000BFF0
:1015D000FFF764FB801B0228C0D828688007F7D576
:1015E0002868216920F0F80040EAC10028600DE079
:1015F000C8F800A0FFF752FB064604E0FFF74EFBD9
:10160000801B02281FD828688007F7D4207800079D
:1016100022D5864F87486169703771B10121016019
:10162000FFF73CFB064604E0FFF738FB801B02286F
:1016300009D838688007F7D50EE0C0F800A0FFF79A
:101640002DFB064605E082E0FFF728FB801B022801
:101650007DD838688007F7D42078400768D5DFF850
:10166000CCB100270BF13C0BDBF80000C0000BD421
:10167000DBF8001041F08051CBF80010DBF80000DF
:10168000012700F0805000906B4E3068C00510D4E8
:10169000306840F480703060FFF700FB009005E098
:1016A000FFF7FCFA0099401A022850D83068C005AC
:1016B000F6D55E4EA0686C3601280FD0052830683C
:1016C00010D020F001003060306820F0040030605D
:1016D000A068B8B1FFF7E2FA00900FE0306840F080
:1016E0000100F4E740F004003060F7E7FFF7D6FAB6
:1016F0000099411A41F28830814266D830688007EB
:10170000F4D50EE0FFF7CAFA009007E0FFF7C6FA3B
:101710000099411A41F28830814256D830688007DA
:10172000F4D42FB1DBF8001021F08051CBF8001079
:10173000A069C8B33D49091D0968C1F381010229A7
:101740004AD00228504607D0C8F8600000E03CE0CC
:10175000FFF7A4FA04463BE04746C8F86000FFF7ED
:101760009DFA064605E000BFFFF798FA801B0228A5
:101770002BD828688001F7D4D4E907010843A16A6F
:101780002E4A490802EB0141626A41EA821108438C
:1017900094F82C1040EA0161C9F800100120386665
:1017A000FFF77CFA044606E03EE000BFFFF776FA5A
:1017B000001B022809D828688001F7D534E000BF53
:1017C000FFF76CFA001B022802D90320BDE8F88F4E
:1017D00028688001F4D427E00128F7D0D9F8000068
:1017E000E26900F4800191421CD1226A00F03F01BD
:1017F000914217D147F6C071626A0140B1EB821F76
:1018000010D1A26A4FF0FF3300F4403103EB5202D3
:10181000B1EB024F06D194F82C1000F07060B0EBE1
:10182000016F01D00120D1E70020CFE7043802404A
:1018300000004742800E4742007000400000FFFF5A
:1018400010B5401EB0F1807F01D3012010BD4FF0D4
:10185000E02460610F21601701F03AFA0020A061D6
:1018600007202061002010BD70B590F83C20012AAF
:101870002CD0012480F83C40022280F83D200368EF
:101880005A689D6822F070060A6832435A60104B0D
:1018900002689A420ED0B2F1804F0BD00D4B9A42A3
:1018A00008D00D4B9A4205D00C4B9A4202D00C4BFB
:1018B0009A4204D1496825F080031943916080F869
:1018C0003D40002180F83C10084670BD022070BDEC
:1018D000000001400004004000080040000C0040EF
:1018E0000040014010B586B0044614216846FEF75A
:1018F0004CFD0D492068884214D10C480021026833
:1019000042F001020260006800F001000590C02072
:1019100000900220CDE90101CDE903106946044899
:10192000FFF7C6F806B010BD000400403038024092
:101930000000024070B5044690F83C0000260D46B9
:1019400001280FD0012084F83C006AB1042A1DD080
:10195000082A2FD00C2A3FD00126002084F83C0012
:10196000304670BD022070BD206800F087FF2068FF
:10197000816941F0080181612068816921F00401D9
:101980008161206881692A69114311E0206800F0B3
:101990009DFF2068816941F400618161206881694F
:1019A00021F480618161206881692A6941EA02210C
:1019B0008161D2E7206800F0B5FF2068C16941F07D
:1019C0000801C1612068C16921F00401C16120687A
:1019D000C1692A69114311E0206800F0CFFF206837
:1019E000C16941F40061C1612068C16921F480616D
:1019F000C1612068C1692A6941EA0221C161ACE77D
:101A000010B5040003D094F83D0010B107E00120A8
:101A100010BD002084F83C00204600F01FF8022092
:101A200084F83D00211D206800F0DCFE012084F8D0
:101A3000460084F83E0084F83F0084F8400084F8B3
:101A4000410084F8420084F8430084F8440084F89C
:101A5000450084F83D00002010BD000008B5006876
:101A60000649884208D10648016841F00201016038
:101A7000006800F00200009008BD00000004004073
:101A80004038024070477047F8B50168044608685E
:101A9000CA684B6910F00F0F4FF0000559D003F0E2
:101AA000010602F49077374365D0C10705D0D10510
:101AB00003D5216C41F001012164410705D5D90707
:101AC00003D0216C41F002012164810705D5D907BB
:101AD00003D0216C41F004012164010707D502F015
:101AE0002001314303D0216C41F008012164216CB5
:101AF00000293AD0800604D5900602D5204600F091
:101B00008EFF20684069216CC0F38010090700D463
:101B100060B3204600F05CFF20684069400621D594
:101B20002068143050E8001F21F0400140E8001206
:101B3000002AF5D1A06BA8B16C490165A06BFEF736
:101B400084FF002811D0A06B016D01B0BDE8F0400A
:101B5000084783060FD593060DD52046BDE8F8400B
:101B600000F05DBF2046FFF78EFFF8BD2046FFF76F
:101B70008AFF2564F8BD266B2023012E79D1C60685
:101B800077D5D60675D5086848680090486940063C
:101B900040D5A16B086840680004000CEAD0A28D13
:101BA0008242E7D9E085C869B0F5807F2DD02068F2
:101BB0000C3050E8001F21F4807140E80012002A28
:101BC000F5D12068143050E8001F21F0010140E8F1
:101BD0000012002AF5D12068143050E8001F21F0CF
:101BE000400140E80012002AF5D184F83E30256318
:101BF00020680C3050E8001F21F0100140E800126E
:101C0000002AF5D1A06BFEF7D7FEA08DE18D401A1A
:101C100081B229E0A08DE18D401A81B2E08D0028CB
:101C2000A8D00029A6D020680C3050E8002F22F45C
:101C3000907240E80026002EF5D12068143050E85C
:101C4000002F22F0010240E80026002EF5D184F892
:101C50003E30256320680C3050E8002F22F010023F
:101C600040E80023002BF5D12046FFF70BFFF8BD1D
:101C7000FFE705062BD5150629D594F83D00212848
:101C8000F5D1A068B0F5805F01D12069B0B1206ABC
:101C9000411C2162216800784860E08C401E0004ED
:101CA000000CE084E3D12068C16821F08001C160AC
:101CB0002068C16841F04001C160D8E7206A00880F
:101CC000C0F308004860206A801C2062E5E74006F7
:101CD000CDD55006CBD5CA68204622F04002CA6056
:101CE00084F83D3000F0F5F8C1E70000C129000894
:101CF00070B5040004D094F83D00002510B106E052
:101D0000012070BD84F83C50204600F023F82420C8
:101D100084F83D002068C16821F40051C16020466C
:101D200000F0DEFE2068016921F490410161206825
:101D3000416921F02A0141612068C16841F40051E4
:101D4000C1602564202084F83D0084F83E00002016
:101D500070BD0000F0B587B0044614216846FEF758
:101D600014FB2A4F23680022294902240325072651
:101D70002848BB4221D1264B14331F6847F0100777
:101D80001F601B6803F0100305930B6843F0010309
:101D90000B60096802AB01F0010105916902CDE910
:101DA000001483E864006946FEF782FE00220521E4
:101DB0002520FFF771FA252023E0174FBB4222D1DF
:101DC000134B10331F6847F400371F601B6803F480
:101DD000003305930B6843F001030B60096802AB05
:101DE00001F0010105910C21CDE9001483E86400A4
:101DF0006946FEF75DFE002205212620FFF74CFA1A
:101E00002620FFF73BFA07B0F0BD000000100140AC
:101E1000303802400000024000440040704700009B
:101E20002DE9F843044690F83D001F4616460D463E
:101E300020284CD1C5B1BEB194F83C00012846D051
:101E4000012084F83C004FF00008C4F840802120B5
:101E500084F83D00FEF722FFA6848146E684A06850
:101E6000B0F5805F03D004E00120BDE8F88320696D
:101E700028B12E465FF0000584F83C800EE0002675
:101E8000FAE78021204600F0B1FEA0B9AEB116F805
:101E9000010B21684860E08C401EE084E08C4B46DA
:101EA0004FF0000200970028EBD14FF04001204690
:101EB00000F09CFE30B10320D7E735F8020BC0F3E9
:101EC0000800E6E7202084F83D000020CDE702204E
:101ED000CBE77047FEE701684A69D24352050FD449
:101EE0006FF480624A61002140F8301F2022427363
:101EF0008173026942F0040202610173012070479C
:101F0000002070472DE9F84F0446006889460B9D74
:101F100001689846174641F48061016020680168B5
:101F200041F48071016000954FF0011B0022594679
:101F300020460A9B00F0DEF84FF4007A40B120689A
:101F40000068C00501D5C4F840A00320BDE8F88FA3
:101F5000216809F0FE0008612B46284920460A9AAC
:101F600000F0FCF8F0BB20684169806900902A46C7
:101F700020460A9900F070F940B1206C04283AD14B
:101F80002068016841F40071016034E0FEB2B8F1EC
:101F9000010F09D02168380A08612A4620460A99AB
:101FA00000F05AF90028E8D1206806612A46204648
:101FB0000A9900F051F90028DFD12068016841F446
:101FC0008071016000950022594620460A9B00F06E
:101FD00091F80028B3D1216809F0FF0040F001001A
:101FE000086100E007E02B46044920460A9A00F009
:101FF000B5F80028AAD00120A8E7000002000100DF
:102000002DE9F843044600680D46DDE908970168AC
:102010009846164641F4807101604B4600224FF00D
:1020200001112046009700F065F848B1206800686B
:10203000C00502D54FF4007020640320BDE8F8838A
:10204000216805F0FE0008613B464A4615492046D6
:1020500000F084F888B920684169806900903A46A8
:102060004946204600F0F8F848B1206C042804D115
:102070002068016841F4007101600120DEE7F5B2DB
:10208000B8F1010F09D02168300A08613A46494683
:10209000204600F0E1F80028E7D120680561002023
:1020A000CCE700000200010070B516460D4604465C
:1020B0000DE02046FFF70FFF08B1012070BD681C3E
:1020C00005D0FEF7EBFD801BA84207D835B120688C
:1020D0004069C0434007ECD4002070BD002044F8A4
:1020E000300F20216173A073216941F0200121612B
:1020F0002073E2E72DE9F0471E4690460D46044660
:10210000C1F30747DDF8209008E0701C06D0FEF709
:10211000C5FDA0EB0900B0420FD876B12068012FB1
:1021200018D0806925EA00000004000C14D00021BA
:102130004145EAD00020BDE8F087002044F8300F88
:1021400020216173A073216941F020012161207376
:102150000120F0E74069E5E70121E9E72DE9F047D3
:102160009A4691460E46044600254FF02008C1F3DA
:10217000074725E020684069C043400514D4206823
:10218000016841F40071016021686FF4806048616A
:10219000256384F83D8084F83E50206C40F00400B4
:1021A000206484F83C501FE0B9F1FF3F08D0FEF7EF
:1021B00075FDA0EB0A0149450CD8B9F1000F09D013
:1021C0002068012F13D0806926EA00000004000C6B
:1021D0000BD0CFE744F8305F84F80D80A5732069F9
:1021E00040F02000206125730120BDE8F0874069A0
:1021F000EAE72DE9F041002590460E4604462027E7
:1022000017E04069C043C0060CD454F8301B6FF08F
:102210001000486144F810596777A577206A20625A
:10222000257717E0FEF73AFDA0EB0800B04208D88A
:102230003EB120684169C9434906E2D40020BDE8A7
:10224000F08144F8305F6773A573206940F0200087
:10225000206125730120F2E770B516460D4604464D
:102260000DE02046FFF737FE08B1012070BD681C65
:1022700005D0FEF713FD801BA84207D835B12068B2
:102280004069C0430006ECD4002070BD002044F833
:10229000300F20216173A073216941F02001216179
:1022A0002073E2E72DE9104000F041F80028FBD14F
:1022B00006E0C820FEF7DCFB641CE4B2142C03D853
:1022C00002F0EAFC0028F4D110BD7CB514460D469E
:1022D00006466B4606223B21682000F077F800286E
:1022E0000BD1BDF8001049BA3180BDF8021049BACF
:1022F0002980BDF8041049BA21807CBD7CB5144604
:102300000D4606466B4606224321682000F05EF823
:1023100000280BD1BDF8001049BA3180BDF8021079
:1023200049BA2980BDF8041049BA21807CBD10B596
:1023300080216B2000F096F86420FEF799FB0021C5
:102340006B2000F08FF8032000F057F8002000F019
:102350004FF8322000F06EF80021382000F082F8AB
:1023600000216A2000F07EF80021232000F07AF896
:102370008021372000F076F8752000F011F86828E9
:1023800001D0012010BD01216B2000F06BF800216D
:102390006C2000F067F8322000F04CF8002010BDEF
:1023A0001FB56423012203A98DE80E0013460246DF
:1023B000D0210548FEF73CFD10B1012004B010BD4E
:1023C0009DF80C00FAE700002C0300203EB5400009
:1023D000CDE900320A4664240146029401230348F1
:1023E000FEF726FD002800D001203EBD2C03002072
:1023F000C006010E1C2000F035B8C006010E1B20DF
:1024000000F030B8BC2801D3012110E0622801D3CC
:1024100002210CE02A2801D3032108E0142801D36B
:10242000042104E00A2801D3052100E006211A2036
:1024300000F018B810B504464FF47A70844201D900
:10244000044602E0042C00D20424B0FBF4F0401E49
:10245000C1B2192000F006F86008BDE81040FFF78F
:10246000D1BF000003B583B06423012204A98DE825
:102470000E0013460246D0210348FEF7D5FD002882
:1024800000D0012005B000BD2C0300203EB5400067
:10249000CDE900320A466424014602940123034830
:1024A000FEF7C2FD002800D001203EBD2C03002015
:1024B00010B58EB01C220B496846FDF74DFF002178
:1024C000684603F03BFA084C06491C2220601C3188
:1024D00007A8FDF741FF002107A803F02FFA60606D
:1024E0000EB010BD60650008000000202DE9F0412D
:1024F00086B014216846FDF748FF30480024016883
:1025000041F004010160016801F0040105910168D6
:1025100041F080010160016801F0800105910168CE
:1025200041F001010160016801F0010105910168BC
:1025300041F0020101600068214F00F002004FF4F9
:1025400000550590002229463846FEF7A1FBDFF82A
:1025500074804FF47046002231464046FEF798FBE7
:1025600000950125CDE90154694638460394FEF7EC
:102570009FFA112000900004CDE90105124F694631
:102580003846FEF795FA22208DE831006946384634
:10259000FEF78EFA0096CDE9015469464046039451
:1025A000FEF786FA002205210620FEF775FE0620BA
:1025B000FEF764FE06B0BDE8F0810000303802404E
:1025C0000008024000040240000002400D4810B51F
:1025D0000B4901600C49416000214FF48042816049
:1025E000C0E9031241618161C1610162FEF75CFBD8
:1025F000002803D0BDE81040FEF7DCB910BD000094
:10260000005400402C030020801A060030B589B029
:10261000002407941C2168460894FDF7B6FE1A486A
:1026200018496025C0E9001544F61F61C0E9024160
:1026300004618461FFF7E4F908B1FEF7BBF9079480
:1026400007A911480894FFF70FF908B1FEF7B2F98E
:10265000CDE900540294002269460B480494FFF728
:1026600069F908B1FEF7A6F9042269460648FFF7A2
:1026700061F908B1FEF79EF90348FFF733F909B095
:1026800030BD000000040040800300200C4810B55D
:102690000A4901604FF4E1314160002181600C2260
:1026A000C160C0E904128161C161FFF721FB00280C
:1026B00003D0BDE81040FEF77DB910BD0010014009
:1026C000C80300200C4810B50A4901604FF4E131FD
:1026D0004160002181600C22C160C0E90412816167
:1026E000C161FFF705FB002803D0BDE81040FEF7ED
:1026F00061B910BD004400400C040020FEE7FEE775
:10270000094C4FF40055002229462046FEF7C0FA36
:10271000C82003F007F9012229462046FEF7B8FA3F
:10272000C82003F0FFF8EEE70008024010B5FEF7FE
:1027300047FD03F03FFE012803D0BDE8104003F041
:10274000CBBD10BD30B593B030216846FDF71DFEFE
:1027500014210CA8FDF719FE1C480024016841F063
:1027600080510160006800F08050119018480168A5
:1027700041F4404101600068022500F4404011909E
:10278000012003901020009506950490CDE90740A4
:10279000C020CDE9090504200B906846FEF79AFE9B
:1027A00008B172B6FEE70F20CDE90C054FF480505A
:1027B000CDE90E4003210CA81094FEF79FFD0028E0
:1027C00001D072B6FEE713B030BD000040380240C1
:1027D000007000400248016841F4700101607047D8
:1027E00088ED00E0F0B502681D4B1E4C9F031E4DA6
:1027F0001E4E984207D0B84205D0A04203D0A8424E
:1028000001D0B04204D122F0700C4A6842EA0C02B6
:10281000984210D0B8420ED0A0420CD0A8420AD0A4
:10282000B04208D0124CA04205D0124CA04202D0B7
:10283000114CA04203D122F44074CA6822434C696F
:1028400022F08002224302608A68C2620A688262C1
:10285000984201D10969016301214161F0BD000085
:10286000000001400004004000080040000C00404F
:1028700000400140004401400048014030B5026A78
:1028800022F001020262026A4368846924F073053F
:102890000C682C4322F002058A682A430A4DA8429C
:1028A0000BD122F00805CA6823F440732A434D690E
:1028B00022F004021D438B692B4343608461496805
:1028C0004163026230BD00000000014030B5026A81
:1028D00022F010020262026A436884690D6824F4DF
:1028E000E64444EA05248D6822F0200242EA0512FB
:1028F0000B4DA8420ED1CD6822F0800242EA0512AB
:102900004D6923F4406343EA85038D6922F0400258
:1029100043EA85034360846149688163026230BD94
:102920000000014030B5026A22F480720262036A3C
:102930004268C46923F4007324F073050C682C43C7
:102940008D6843EA05230C4DA8420ED1CD6823F4CF
:10295000006343EA05234D6922F4405242EA05121E
:102960008D6923F4806342EA05124260C4614968BC
:10297000C163036230BD00000000014030B5026A4F
:1029800022F480520262046A4268C3690D6823F42B
:10299000E64343EA05238D6824F4005444EA0534F1
:1029A000064DA84204D14D6922F4804242EA8512C4
:1029B0004260C36149680164046230BD00000140A7
:1029C00010B5806B0021C185C184FFF75CF810BD94
:1029D00001680C3151E8002F22F4907241E8002385
:1029E000002BF5D10168143151E8002F22F00102CB
:1029F00041E80023002BF5D1016B012909D10168C1
:102A00000C3151E8002F22F0100241E80023002B86
:102A1000F5D1202180F83E1000210163704708B5F0
:102A200090F83E10222901D0022008BD82684FF4A0
:102A300080539A4201D1016921B1816A9A421BD027
:102A40004AB10AE00268816A5268C2F308020A8049
:102A5000816A891C08E0026972B10268526802F05A
:102A60007F020A70816A491C8162C18D491E090476
:102A7000090CC18503D019E002685268F1E70168CA
:102A8000CA6822F02002CA600168CA6822F4807213
:102A9000CA6001684A6922F001024A61202180F877
:102AA0003E10016B012903D0FFF7B8F9002008BDE3
:102AB0000021016301680C3151E8002F22F010025F
:102AC00041E80023002BF5D101680A68D20602D53F
:102AD0000A6849680091818DFEF7D4FFE6E700009F
:102AE00070B5044600680169E26821F44051114361
:102AF00001612169A068E2690843616911430843E3
:102B00002168CA6849F20C639A430243CA6020688C
:102B10004169A26921F44071114341613149206842
:102B2000884202D03049884202D1FEF791FC01E090
:102B3000FEF77EFCE2690023192164253226B2F5F6
:102B4000004F626828D0A0FB0101930F9200FDF7AF
:102B5000A1FB0146B0FBF5F06FF01802504301EB0A
:102B6000800006EB0010B0FBF5F000F0F002B1FBC6
:102B7000F5F002EB0012B1FBF5F06FF018035843CB
:102B800001EB800006EB0010B0FBF5F000F00F0049
:102B900021681044886070BDA0FB010192185B4160
:102BA000FDF778FB0146B0FBF5F00201B1FBF5F053
:102BB0006FF01803584301EB800006EBC000B0FB38
:102BC000F5F000F0F80002EB4002B1FBF5F05843DD
:102BD00001EB800006EBC000B0FBF5F000F0070051
:102BE000D6E7000000100140001401402DE9F0413B
:102BF000984617460E460446069D27E0681C25D0D9
:102C00002DB1FEF74BF8A0EB0800A8421ED92068B2
:102C10000C3050E8001F21F4D07140E80012002A67
:102C2000F5D12068143050E8001F21F0010140E880
:102C30000012002AF5D1202084F83D0084F83E00DF
:102C4000002084F83C000320BDE8F0812068006883
:102C500036EA000004D00020B842CFD00020F3E7CD
:102C60000120F9E70148FEF70FBF0000C80300206C
:102C70000148FEF709BF00000C0400207047FEE782
:102C80000FB4054B10B503A9044A029800F012FDD9
:102C900010BC5DF814FB000055450008D000002072
:102CA00003B401984100009850EAC12018BF0420E5
:102CB0004A0D18BF40F0010040F2FF72B2EB515FC5
:102CC00008BF40F00200012808BF052002B070478D
:102CD0000907090E002804DB00F1E02080F8001449
:102CE000704700F00F0000F1E02080F8141D7047DD
:102CF00070B5C1482DED020B2DED0E8B82B0119DEC
:102D000025F000449FEDBEDB9FEDBFEB84423EDB30
:102D1000A4F140511098A1F17F6108430FD0BC4845
:102D2000844202DC28D1109830B39DED100B02B024
:102D3000BDEC0E8B02B0BDE8704000F071BC9DEDA3
:102D4000100B53EC1D2B51EC100BFDF7DDFB9DED33
:102D5000100B41EC180B53EC1E2B51EC100BFDF734
:102D6000D3FB53EC182BFDF728FB41EC100B02B002
:102D7000BDEC0E8B02B070BD012000F095FC02B0DE
:102D8000BDEC0E8B02B0BDE8704000F05DBCA14808
:102D90009FEDA18B844256DA9DED100BB4F1795F63
:102DA0000ADA51EC100BFFF77BFF042808BF00F094
:102DB0005BFC9DED100BDAE753EC102B51EC100B84
:102DC000FDF7A2FB41EC190B95480621B0EE490A2C
:102DD000F0EE690A784400F0A7FB53EC192B51EC94
:102DE000100BFDF791FB41EC1A0B8E48B0EE490A2F
:102DF000F0EE690A0421784400F096FB53EC192B9D
:102E000051EC100BFDF780FB53EC182BFDF7D5FAB6
:102E100041EC100B51EC1A0B53EC102BFDF7E6FBB9
:102E2000CDE900019DED000B53EC102B9DED100B37
:102E300051EC100BFDF768FB9DED101B53EC112BB3
:102E4000FDF7BBFAD2E09DED100B51EC100B01F039
:102E500075FB53EC182BFDF754FB9FED730BCDE97D
:102E6000000153EC102B9DED000B51EC100BFDF706
:102E70004BFB41EC190B6E480621B0EE490AF0EE0F
:102E8000690A784400F050FB53EC192B51EC100BFD
:102E9000FDF73AFB41EC1B0B6648B0EE490AF0EE39
:102EA000690A0421784400F03FFB53EC192B51ECE4
:102EB000100BFDF729FB53EC182BFDF77EFA41ECC4
:102EC0001C0B51EC190B02F0FDFF41EC180B5A489A
:102ED0009FED5BABA04222DC53EC1C2B51EC1B0B97
:102EE000FDF784FBCDE900019DED000B51EC180BC3
:102EF00053EC102BFDF708FB53EC182BFDF75DFA94
:102F000053EC1A2BFDF700FB53EC1D2BFDF7F6FAE3
:102F100053EC1E2BFDF7F5FA41EC100B5FE08DED45
:102F2000008B002000909DED000B51EC180B53EC32
:102F3000102BFDF742FA9DED000B41EC1E0B53ECFC
:102F4000102B51EC100BFDF7DFFA53EC192BFDF7AA
:102F5000D8FA53EC1E2BFDF749FB41EC190B53EC4F
:102F60001C2B51EC1B0BFDF741FB41EC1B0B53ECF5
:102F70001A2B51EC190BFDF7C7FA53EC1D2BFDF77B
:102F8000C0FA41EC190B53EC1A2B51EC180BFDF75E
:102F9000BBFA53EC1B2BFDF7B7FA53EC192BFDF7DB
:102FA000ADFA9DED000B41EC180B53EC1A2B51ECD4
:102FB000100BFDF7A9FA9FED249B53EC192BFDF79D
:102FC000A0FA41EC100B51EC180B53EC102BFDF751
:102FD00095FA53EC192BFDF794FA41EC100B002DE8
:102FE0003FF7C5AE51EC100B81F0004141EC100BE6
:102FF000BDE60000000000000000F03F00000000FF
:10300000075C143326A6913C182D4454FB21F93F4C
:103010000000F07F0000E03F000000000000F03FF3
:10302000204400002E440000000000000000E03FAB
:1030300072430000804300003333EF3F0000000084
:103040000000000000000040182D4454FB21E93F1F
:1030500070B59B482DED020B2DED068B079D25F0DD
:103060000044A04218DC9748844202DC0AD106984A
:1030700040B19DED060BBDEC068B02B0BDE8704083
:1030800000F0CEBA002DCCBF9FED8F0B9FED900BC3
:10309000BDEC068B02B070BD8F48A04215DD8F4895
:1030A000A042D8BF4FF0FF3458DD9DED060B51EC28
:1030B000100BFFF7F5FD042808BF00F0D5FA9DEDD1
:1030C000060BBDEC068B02B070BD9DED060B51ECFE
:1030D000100B01F033FACDE9060181489FED828B98
:1030E000A0423CDD8248A0421FDD00249FED82AB60
:1030F0009DED060B53EC1A2B51EC100BFDF75DF90F
:103100009DED060B41EC190B53EC1A2B51EC100BF7
:10311000FDF7FAF953EC182BFDF7F0F953EC192BE6
:10312000FDF764FACDE9060149E09DED060B0124A7
:1031300053EC182B51EC100BFDF73FF99DED060BEE
:1031400041EC190B53EC182B51EC100BFDF7D6F991
:1031500053EC192BFDF74AFACDE906012FE0684838
:10316000A0421FDD02249FED689B9DED060B53ECF2
:10317000192B51EC100BFDF7C7F953EC182BFDF789
:103180001CF99DED060B41EC180B53EC192B51EC7F
:10319000100BFDF7B3F953EC182BFDF727FACDE927
:1031A00006010CE09DED060B032453EC102B9FED64
:1031B000580B51EC100BFDF719FACDE906019DED06
:1031C000060B53EC102B51EC100BFDF79DF941EC65
:1031D000180B53EC182BFDF797F941EC190B4E48DF
:1031E0000621B0EE490AF0EE690A784400F09CF935
:1031F00053EC182B51EC100BFDF786F941EC180B32
:103200004648B0EE490AF0EE690A0521784400F01C
:103210008BF953EC192B51EC100BFDF775F941ECC0
:10322000100B51EC180B53EC102B002C0EDAFDF7A1
:10323000C4F89DED061B53EC112BFDF765F99DEDD0
:10324000061B53EC112BFDF75CF935E0FDF7B5F8E3
:103250009DED061B53EC112BFDF756F941EC100BBD
:103260002F48784400EBC40090ED001B51EC100B8C
:1032700053EC112BFDF742F99DED061B53EC112B7E
:10328000FDF73CF941EC100B2648784400EBC400F4
:1032900090ED001B51EC100B53EC112BFDF731F9A5
:1032A00041EC100B002DA2BFBDEC068B02B070BD2F
:1032B00051EC100B81F0004141EC100B01E70000D4
:1032C000000010440000F07F182D4454FB21F93F0A
:1032D000182D4454FB21F9BF0000DC3F0000203EC4
:1032E0000000F33F00000000000000000000F03F7D
:1032F0000000E63F00000000000000000000004069
:103300000080034000000000000000000000F83FC3
:10331000000000000000F0BFC24000007840000044
:1033200002400000BA3F000070B56F4E2DED040B57
:103330002DED048B82B0DDF824C0DDE907235C426B
:103340002CF000411C4341EAD474069D22F0004059
:10335000B44205D86C422C4340EAD474B4420BD931
:103360009DED081B9DED060B02B0BDEC048B04B077
:10337000BDE8704000F05EB9ACF14054A4F17F6448
:103380001C430BD0022404EAAC7444EAD274054313
:103390009FED578B9FED582B07D015E09DED060B49
:1033A00051EC100B00F0FAFB42E0002C11BF012C95
:1033B0009DED060B02B0BDEC048B04BF04B070BDE4
:1033C000022C38D0032C3BD00B439FED4D1B9FEDBF
:1033D0004E0B0AD0B14218D1B04209D121F0804140
:1033E00020F08040099107900FE0002A15DA10E0E4
:1033F000474B7B44002C08BF93ED000B0DD0012CF4
:1034000010D0022C17D0032C1AD0B0421DD1002AA4
:1034100003DAB0EE410AF0EE610A02B0BDEC048BB3
:1034200004B070BD93ED000B51EC100B81F0004126
:1034300041EC100BF1E7B0EE480AF0EE680AECE759
:10344000B0EE420AF0EE620AE7E7401A00159FED7F
:10345000329B3C28C8BF8DED000B17DCBCF1000F80
:10346000BCBF10F13C0F8DED009B0FDB9DED080BF9
:1034700053EC102B9DED060B51EC100BFDF7B6F83D
:1034800001F05CF800F08AFBCDE90001B4B1012C39
:1034900010D0022C9FED220B53EC102B9DED000B56
:1034A00051EC100B19D0FDF729F853EC182BFDF750
:1034B00025F8BDE7019880F0004001909DED000BDC
:1034C00053EC192B51EC100BFDF7F4F904BF02205B
:1034D00000F0EAF89DED000B9FE7FDF70FF853ECC5
:1034E000182BFDF70EF8A3E70000F07F00000000A6
:1034F000182D4454FB210940182D4454FB2109C0C8
:10350000182D4454FB21F9BF182D4454FB21F93FD9
:10351000EA3E000000000000000000000000000083
:10352000075C143326A6A13C70B504462DED028B32
:103530004D1E00EBC500B0EE408AF0EE608A90EDC3
:10354000000B35F0060017D053EC182B51EC100B84
:10355000FCF7DAFF41EC100B6D1E04EBC50090ED9B
:10356000001B51EC100B53EC112BFCF726FF41EC28
:10357000100B35F00600E7D1022D36D0042D1CD0FB
:10358000062D1CBFBDEC028B70BD53EC182B51EC0B
:10359000100BFCF7B9FF94ED0A1B53EC112BFCF751
:1035A0000CFF53EC182BFCF7AFFF94ED081B53EC0A
:1035B000112BFCF702FF41EC100B53EC182B51ECD4
:1035C000100BFCF7A1FF94ED061B53EC112BFCF73D
:1035D000F4FE53EC182BFCF797FF94ED040B53EC1F
:1035E000102BFCF7EAFE41EC100B53EC182B51ECBE
:1035F000100BFCF789FF94ED021B53EC112BFCF729
:10360000DCFE53EC182BFCF77FFF94ED001B53EC12
:10361000112BFCF7D2FEBDEC028B41EC100B70BD00
:1036200010B553EC102B51EC100BFCF7C6FE41EC1F
:10363000100B10BD10B553EC112B51EC100BFCF717
:10364000BCFE41EC100B10BD9FED050B10B553EC0B
:10365000102B51EC100BFCF7C9FF41EC100B10BD07
:1036600000000000000000009FED050B10B553ECBA
:10367000102B51EC100BFCF747FF41EC100B10BD69
:10368000000000000000001002E008C8121F08C17E
:10369000002AFAD170477047002001E001C1121FD3
:1036A000002AFBD170470000014908607047000004
:1036B000D40000202DE9FF4F8DB00F4605460026AF
:1036C00006E025280BD0DDE90F1290476D1C761C13
:1036D00028780028F5D111B03046BDE8F08F0024DD
:1036E000A246A1460122E94900E0044315F8013F42
:1036F000203B02FA03F00842F7D128782A2810D09C
:103700006FF02F022878A0F13001092914D80AEBB4
:103710008A0102EB410144F0020400EB010A6D1C36
:10372000F0E701CF5FEA000A03D544F40054CAF180
:10373000000A44F002046D1C28782E2817D115F8D1
:10374000010F44F004042A280ED06FF02F022878CD
:10375000A0F1300109290AD809EB890102EB4101E6
:1037600000EB01096D1CF2E757F8049B6D1C2878EB
:103770006C280FD006DC4C2817D068280DD06A289A
:1037800014D104E0742810D07A280FD10DE044F44D
:1037900000140AE044F4801401E044F44014697811
:1037A000814202D104F580146D1C6D1C28786E28AE
:1037B0001ED00CDC632830D004DC00288BD05828C5
:1037C00011D19FE0642867D069280CD164E0732888
:1037D0002DD004DC6F2872D0702804D194E07528B5
:1037E0006ED078286DD0DDE90F129047761C4BE142
:1037F000C4F30250022806D0032809D0042801CFC0
:1038000009D0066040E101CFF117C0E900613BE15A
:1038100001CF068038E1067036E117F8040B8DF809
:10382000000000208DF80100EB46012003E057F86E
:1038300004BB4FF0FF3061074FF0000102D40DE0F0
:1038400008F10101884649450FDA8045F8DB1BF88D
:1038500008100029F4D108E008F1010188468142EE
:10386000FADB1BF808100029F6D1DDE90F23AAEBDB
:1038700008008146214600F031F9304400EB08068B
:1038800004E0DDE90F121BF8010B9047B8F10108C5
:10389000F7D221464846F2E00A21C4F302524FF023
:1038A000000B0891022A04D001CFC117032A09D0C6
:1038B0000AE0FF1D27F00707F7E8020108E02CE007
:1038C0001EE01FE000B2C117042A01D140B2C117A7
:1038D000021E71F1000206DA0023D0EB030063EB55
:1038E00001012D2202E0220504D52B228DF824208F
:1038F000012203E0E20701D02022F7E7904653E0DF
:103900000A210BE0102109E010214FF0000B44F0D8
:1039100004044FF00809089103E008214FF0000B60
:103920000891C4F30252022A04D001CF0021032AD5
:1039300006D006E0FF1D27F00707F7E8020103E0C5
:1039400080B2042A00D1C0B24FF0000822072BD564
:103950002A78702A07D0DDF820C08CF0100C5CEAC1
:103960000B0C05D00EE040228DF82420012208E047
:1039700050EA010306D030238DF824308DF825203D
:1039800002229046089B83F0080353EA0B030BD1F5
:1039900050EA010201D1620706D530228DF82420B9
:1039A0004FF00108A9F101092A78582A04D038A259
:1039B0000B9208AA0A920BE03AA2F9E75B46089A32
:1039C000FCF768FC0B9B9B5C0A9A521E0A921370D0
:1039D00050EA0102F2D10A98ADEB000000F1200B91
:1039E000600702D524F4803401E04FF00109D94585
:1039F00002DDA9EB0B0000E0002000EB0B014144CD
:103A00000890AAEB010AE00306D4DDE90F23214662
:103A1000504600F063F806444FF0000908E009A999
:103A200011F80900DDE90F12904709F10109761C30
:103A3000C145F4DBE0030CD5DDE90F2321465046F8
:103A400000F04CF8064404E0DDE90F123020904706
:103A5000761C0899481E08900029F5DC08E00A98B1
:103A60000A990078491C0A91DDE90F129047761CEB
:103A7000BBF10001ABF1010BF1DC21465046DDE961
:103A80000F2300F019F806446D1C21E609280100F7
:103A900030313233343536373839616263646566C4
:103AA0000000000030313233343536373839414286
:103AB00043444546000000002DE9F041044600253E
:103AC0001E461746880404D405E039462020B04736
:103AD0006D1C641EF9D52846BDE8F0812DE9F04142
:103AE000044600251E469046C80301D5302700E055
:103AF0002027880404D505E041463846B0476D1CB0
:103B0000641EF9D52846BDE8F0810000FEB50646E2
:103B10000D460024684600F029FD00229FED1B1A87
:103B20006B46012156F8227055F82200381A00D54C
:103B3000404200EE100A03EB8200B8EEC00AD0ED5E
:103B4000000A20EE010AF5EEC00AF1EE10FA0DD0DF
:103B5000C0EE201AB7EE000A0D4F31EEC00AB0EEEB
:103B6000C00A10EE100AB84207DC09E010EE100A95
:103B7000084F3844084FB84202D301FA02F0044318
:103B8000521C032ACEDB2046FEBD00000000803719
:103B9000295C0F3E666666C19A99D90010B541EC62
:103BA000100BFFF755FA51EC100B10BD08B560B1C2
:103BB00020208DF8000028208DF8010030208DF89D
:103BC000020038208DF8030004E0A3220421684697
:103BD000FCF7D4FB6A46042140F69E2001F078FEF3
:103BE00001F036FB08BD00003EB5044602208DF80A
:103BF0000000CA208DF80100E3208DF802000920A2
:103C00008DF803006A460421682001F061FEA320BC
:103C10008DF80000610609D5C0218DF80110C8217A
:103C20008DF80210C2218DF8031005E08DF8010017
:103C30008DF802008DF8030014F4C07F09D0C42170
:103C40008DF80410CC218DF80510C6218DF80610D2
:103C500005E08DF804008DF805008DF806008DF85C
:103C600008008DF807008DF809006A460A2140F621
:103C7000A72001F02DFEA0074FF0D80503D020208B
:103C80008DF8000001E08DF800506A46012140F6F1
:103C9000B62001F01DFEA00601D5012000E00020A5
:103CA00000F08EF814F4C07F1ED0E0050AD5B220D3
:103CB0008DF800008B208DF80100B6208DF80200F1
:103CC0009B2009E0B0208DF8000080208DF80100D5
:103CD000B4208DF8020090208DF803006A4604217C
:103CE00040F6A22001F0F4FDE1074FF40B6022D072
:103CF000F8218DF800106A46012101F0E9FDFA2152
:103D0000072000F04BFB072000F016FB012000F01D
:103D100033FB642000F0F2FB4FF4FA7000F0FEFB7E
:103D2000C821254800F0D0FA282000F0E5FA0A2042
:103D300000F0F2FA05E08DF800506A46012101F02A
:103D4000C7FDA00703D5D9208DF8000001E08DF84C
:103D500000506A46012140F23D7001F0B9FD600754
:103D600001D5012000E0002000F048F8E00601D570
:103D7000012000E00020FFF719FF104D44F008007B
:103D8000688101F065FA0020A873600601D506205D
:103D9000A87314F4C07F02D0A87B801DA87314F010
:103DA000140F02D0A87B1030A873A00702D0A87B04
:103DB000001DA87300203EBD09E3CA025004002084
:103DC0000EB54FF4976310B106A107C901E008A230
:103DD00007CA8DE807006A460921184601F078FDF8
:103DE0000EBD0000B8AAB38DB4980D355D0000007B
:103DF000B8AAAAAAB088C3C5C700000008B560B1B8
:103E0000C0208DF80000C2208DF80100C4208DF87C
:103E10000200C6208DF8030004E08B2204216846CE
:103E2000FCF7ACFA6A46042140F6982001F050FDF8
:103E300001F00EFA08BD0000C8234FF48062024969
:103E400040F6F63001F0E6B8006600082DE9FF4FB5
:103E500089B01746DDE916520024554E8846814642
:103E60002C80A246B07B694601F080F94FF0FF3B01
:103E700018B158460DB0BDE8F08F708910F0140FDE
:103E80004ED0BDF800109DF8022049BA090441EA5D
:103E900002229DF803100A433A60BDF804109DF811
:103EA000063049BA090441EA03219DF8073012148B
:103EB00019437960BDF808309DF80A405BBA1B04CD
:103EC00043EA04239DF80B4009142343BB60BDF86B
:103ED0000C409DF80EC064BA240444EA0C2C9DF8F2
:103EE0000F404CEA040C1024C7F80CC01B144FEA16
:103EF0002C4712FB02F211FB012113FB03F217FB0B
:103F000007221144A1F17061B1F1007F04D901F0E1
:103F10009FF9A5F800A0ACE7298841F480712980B9
:103F20004206694611D50A19A41D13885BBAA8F880
:103F3000003053885BBAA8F80230928852BAA8F8C9
:103F400004202A8842F008022A8010F4C07F11D091
:103F50000A19A41D13885BBAA9F8003053885BBA0C
:103F6000A9F80230928852BAA9F804202A8842F0AF
:103F700070022A80800716D00C44E07800F0C0055B
:103F800000F03F016078C00706D0C80801F00701C3
:103F90003268491C02B190476078000703D5716808
:103FA00009B1A80988470C9800F099FD002061E745
:103FB000500400202DE9FF41044603A800F0DAFE7A
:103FC000BDF80C00410CC3032F48008900F0030228
:103FD00054F82250420700D56D42C0F3C102860654
:103FE00054F8222000D55242C0F38116C00554F87F
:103FF000264000D56442A5FB0367E81700FB037069
:1040000005FB0100850045EA9670A2FB0367D51702
:1040100005FB037502FB0152950045EA9672A4FB6D
:104020000367E51705FB037304FB01318B0043EACB
:104030009671030E8DF80030030C8DF80130030AE1
:104040008DF802308DF80300100E8DF80400100C6E
:104050008DF80500100A8DF80600080E8DF808008E
:10406000080C8DF80900080A8DF80A008DF8072061
:104070008DF80B106A460C214FF4257001F028FCD6
:1040800004B0BDE8F08100005004002030B50446C3
:1040900013A285B007CA8DE807004FF0FF35C82C82
:1040A00016D8C820B0FBF4F1491E080A8DF80C00A0
:1040B0008DF80D1003AA022140F2162001F008FC31
:1040C00030B96A460C2140F6C12001F001FC10B164
:1040D000284605B030BD054884810020F9E700007E
:1040E000FEF2ABC4AAF1DFDFBBAFDFDF500400207C
:1040F000F8B53049098901F0030250F822404A0717
:1041000000D56442C1F3C1028B0650F8222000D5CD
:104110005242C1F3811350F82330C80500D55B42E9
:10412000254984FB0140850045EA947082FB0142E9
:10413000A40F44EA820483FB0121950F45EA81051F
:10414000010E8DF80010010C8DF80110010A8DF898
:1041500002108DF803006A4604214FF4747001F0D8
:10416000B7FB4FF0FF3688B9200E8DF80000200C09
:104170008DF80100200A8DF802008DF803406A4690
:1041800004214FF4757001F0A3FB08B13046F8BD6F
:10419000280E8DF80000280C8DF80100280A8DF8F3
:1041A00002008DF803506A4604214FF4767001F046
:1041B0008FFBF8BD5004002009E3CA022DE9FF413E
:1041C00004463CA004F00303006802903AA0006893
:1041D00003903AA006683AA0056802A8C15C8DF871
:1041E0000010C4F3C101425C8DF80120C4F38112B8
:1041F000805C8DF8020003A8C35C8DF80430415C3C
:104200008DF80510805C8DF806006A46032140F2A7
:10421000264001F05DFB4FF0FF37E0BB01AA032110
:1042200040F22A4001F054FBA8BBCDE900656007CD
:104230000BD59DF8000040F001008DF800009DF8BE
:10424000040040F001008DF80400A0060BD59DF895
:10425000010040F001008DF801009DF8050040F0DC
:1042600001008DF80500E0050BD59DF8020040F037
:1042700001008DF802009DF8060040F001008DF865
:1042800006006A4603214FF4886001F021FB10B953
:1042900001AA032100E004E040F2314001F018FBE4
:1042A00018B1384604B0BDE8F0810648048100200A
:1042B000F8E700004CCD6C000CC92C003656760097
:1042C00026466600500400204FF47A7290FBF2F00C
:1042D00008B54843010E8DF80010010C8DF801104F
:1042E000010A8DF802108DF803006A4604214FF48C
:1042F000AE7001F0EDFA08BD0521B0FBF1F008B594
:10430000010A8DF800108DF801006A4602214FF471
:10431000AD7001F0DDFA08BD0521B0FBF1F008B584
:10432000010A8DF800108DF801006A4602214FF451
:10433000AC7001F0CDFA08BD08B500218DF8001071
:10434000C10702D030218DF80010810705D59DF8F6
:10435000001041F00C018DF80010400705D59DF8C4
:10436000000040F003008DF800006A4601214FF480
:10437000A47001F0ADFA08BD08B560B1042800D9F9
:104380000420401E8DF800006A46012140F24F10C3
:1043900001F09EFA08BD0120F3E7000070B5044665
:1043A0002DED028B82B040074FF0FF357ED0B1F586
:1043B000C86F7BD800EE101AB8EE400ADFED460A4F
:1043C00001A880EE208A00F0B7FC9DF804000228C6
:1043D00006D0042810D0082835D0102874D13EE02B
:1043E0009FED3E0A28EE000ABCEEC00A10EE100A4D
:1043F0009FED3B0A82B20AE09FED3A0A28EE000ADE
:10440000BCEEC00A10EE100A9FED370A82B228EE09
:10441000000A6E46BCEEC00A10EE100A81B2100A05
:104420008DF800008DF80120080A8DF802008DF843
:104430000310E00726D0324602214FF4EA7001F063
:1044400047FA98BB17E09FED290A28EE000ABCEE58
:10445000C00A10EE100A9FED260A82B2D7E79FED40
:10446000250A28EE000ABCEEC00A10EE100A9FEDE5
:10447000220A82B2CBE7B21C02214FF4927001F003
:1044800027FA98B9A0070DD56A4602214FF4EC70BF
:1044900001F01EFA50B9B21C02214FF4947001F0E1
:1044A00017FA18B9600714D56A4600E00CE002213B
:1044B0004FF4EE7001F00CFA30B9B21C02214FF447
:1044C000967001F005FA20B1284602B0BDEC028BCF
:1044D00070BD0020F9E7000000004843000080465E
:1044E00000004046000000460000C0450000804536
:1044F00000004045000000450000C0440521B0FB1D
:10450000F1F008B5010A8DF800108DF801006A4637
:1045100002214FF4EF7001F0DBF908BD0521B0FB7B
:10452000F1F008B5010A8DF800108DF801006A4617
:1045300002214FF4ED7001F0CBF908BD82B0CDE956
:10454000000121F0004001909DED000B02B051EC04
:10455000100B704713B54FF6FF73012269460248EE
:10456000FDF75EFC00981CBDC80300201FB5044683
:10457000274802AB042240680D210078FDF726FF92
:1045800010B1072004B010BD9DF808101C2000EAEF
:10459000D1029DF80B10DFED1F0AC1F301131A437E
:1045A0008DF800209DF80920C1F3810300EAD202B2
:1045B0001A438DF801209DF80A2001F0030100EA5A
:1045C000D20008439FED141A9FED140A8DF80200E3
:1045D00000216A46505C002804EB810002D080ED87
:1045E000001A09E0C0ED000A0CE000BFD0ED001A8F
:1045F00061EE801AC0ED001A535C5B1E13F0FF03DE
:104600005354F3D1491CC9B20329E3D30020B9E7BD
:1046100030000020000000007B14AE3E1D5A843F95
:104620002DE9FE4F05460120C14E8DF800004FF0E8
:1046300000088DF8018030680C461746817C706850
:104640006B4602220078FDF721FF4FF0FF3A002869
:104650007AD1C820FCF70CFA8DF8008030686B46E0
:104660000122C17B70680078FDF710FF0028EFD1B0
:1046700030686B460122417970680078FDF706FFCB
:104680000028E5D130686B460122817C7068007893
:10469000FDF7FCFE0028DBD130686B460122C17DAE
:1046A00070680078FDF7F2FE0028D1D130686B46C3
:1046B0000122017970680078FDF7E8FE0028C7D173
:1046C0004FF00C098DF8009030686B46012201799B
:1046D00070680078FDF7DAFE002835D10F20FCF76E
:1046E000C7F9B06A6B460122407A8DF80000306845
:1046F000817870680078FDF7C9FE002824D1B06A7F
:104700006B460122007A8DF80000306841787068AD
:104710000078FDF7BBFE002873D1B06A807A0FB134
:1047200040F0E0008DF8000030686B46012281798E
:1047300070680078FDF7AAFE002862D12FB1B06A38
:10474000C07A40F0E00001E04AE018208DF8000057
:1047500030686B460122C17970680078FDF796FEDB
:10476000F0BB17B1C820FCF783F940208DF800009A
:1047700030686B460122017970680078FDF786FE8B
:1047800070BB78208DF8000030686B4601224179BB
:1047900070680078FDF77AFE10BB3220FCF768F9EC
:1047A0008DF80080306847466B4641797068012279
:1047B0000078FDF76BFE98B931687068B046897A69
:1047C00000786B460222FDF701FE48B9BDF80000F3
:1047D000AF6040BAB0FBF9F06F60C6B22F6000E086
:1047E0000FE0A76067602760002739E0D8F8001065
:1047F000D8F804006B46C97A00780C22FDF7E6FD74
:1048000010B15046BDE8FE8FBDF80000236840BAE5
:1048100000B2BDF80210BDF804201844206049BA67
:10482000606809B20844606052BAA06812B21044CD
:10483000A060BDF806002B6840BA01B2BDF80800C0
:10484000BDF80A201944296040BA696800B20844DA
:10485000686052BAA86812B210447F1CFFB2A86008
:10486000B742C3D328688322C117090441EA104123
:1048700000040023FBF73FFD32460023FBF73BFD1E
:10488000286068688322C117090441EA10410004C6
:104890000023FBF730FD32460023FBF72CFD686058
:1048A000A8688322C117090441EA104100040023CB
:1048B000FBF721FD32460023FBF71DFDA8602068B1
:1048C0004FF40065C117090441EA104100042A466B
:1048D0000023FBF710FD32460023FBF70CFD2060A0
:1048E00060682A46C117090441EA10410004002308
:1048F000FBF701FD32460023FBF7FDFC6060A0687A
:104900002A46C117090441EA104100040023FBF7BD
:10491000F2FC32460023FBF7EEFCA060002802DD2B
:10492000A0F5803001E000F58030A060002069E74C
:1049300030000020F8B506462E480D460024406899
:104940006B46032200780D21FDF740FD08B10720DA
:10495000F8BD9DF80000002200F01F008DF8000057
:104960009DF801009FED241A00F01F008DF8010052
:104970009DF802006B4600F01F008DF80200012137
:1049800056F8220055F82270C01B00D5404200EEB8
:10499000100A985CB8EEC00A60EE010AD0B1B3EE1E
:1049A000090ADFED161A01E020EE210AC0B2401E0E
:1049B00010F0FF009854F7D1C0EE801AB7EE000A4D
:1049C0000F4F31EEC00AB0EEC00A10EE100AB84226
:1049D00007DC09E010EE900A0A4F3844B0F1D97FA5
:1049E00002D901FA02F00443521C032AC8DB204614
:1049F000F8BD0000300000200000803754E3853F00
:104A0000295C0F3E0000E0BE00B5024600F00DF844
:104A10000346D01C00F009F843EAC003901D00F0E3
:104A200004F843EA801080B200BD90F9001000291C
:104A300002DD4FF00000704702DA4FF004007047CB
:104A400090F90110002902DD4FF00100704702DAF1
:104A50004FF00500704790F90200002802DD4FF08A
:104A60000200704702DA4FF0060070474FF007006F
:104A7000704700000A4A111F081F00F05BF858B980
:104A8000074A103A911E881EFDF71FFC044A0A3A95
:104A9000911E881EFDF732FC012000F043FFE9E77C
:104AA0002C000020FCF794FBFDF74CFEFDF71EFDEB
:104AB000FDF7ECFDFDF706FEFDF7A8FDFDF786FD11
:104AC000FDF7F0FBFEF7DAF8FDF7F2FC00F031FF3E
:104AD000FEE701460020842900D0C81C70477047BB
:104AE0002DE9F041124C20F00101002594F824003A
:104AF00010B10020BDE8F081A07A4FF0FF3668B118
:104B00000840277C2074884200D0354641B10120FE
:104B100001F0ACF900F09CFB38B127743046E9E7AE
:104B2000207D00B1012001F0A1F92846E2E7000054
:104B30003000002070B50D462DED0C8B8EB0064672
:104B40000CA902A81446F7EE00BACDE900010BABA0
:104B500003AA09A907A8FFF779F920B101200EB02F
:104B6000BDEC0C8B70BDBDF80800C0057ED59DED79
:104B7000030AF8EEC00A9FED450AB0EE00CA60EEE7
:104B8000809ADDED040AF8EEE00A69EE8CCA20EEA8
:104B9000808ADDED050AF8EEE00A60EE808ADDED40
:104BA000060AF8EEE00A20EE809AB8EE000A28EE37
:104BB00000BA2BEE090A0CEEA80A10EE100AFBF759
:104BC00084FD41EC100BFEF793F89FED31AB51ECF7
:104BD000100B53EC1A2BFBF797FCFBF789FD2BEE20
:104BE000080A28EE8CDA30600DEE680A30EE2B0AE7
:104BF00010EE100AFBF769FD2DEE090A41EC1B0BC4
:104C00000CEE880A10EE100AFBF75FFD41EC100B6A
:104C1000B0EE4B1AF0EE6B1AFEF786FB53EC1A2B34
:104C200051EC100BFBF770FCFBF762FD29EEA90AB3
:104C3000286008EE080A08EEE80A09EE490A10EEB4
:104C4000100AFBF742FD28EE280A41EC1B0B09EE87
:104C5000890A20EE0C0A10EE100AFBF736FD41EC33
:104C6000100BB0EE4B1AF0EE6B1A00E00CE0FEF702
:104C70005BFB53EC1A2B51EC100BFBF745FCFBF7DD
:104C800037FD206000206AE7022068E700008030DE
:104C90006666666666A64C4010B500F0F7F888BBFD
:104CA000782000F0B9FD10F0FF0F01D0012010BDF9
:104CB0007820FFF715FF10F0FF0F01D0022010BD84
:104CC000642000F069FD10F0FF0F01D0032010BD3B
:104CD000FFF7B2F810F0FF0F01D0042010BD154807
:104CE000FFF792FEFFF76AFA10F0FF0F01D00520E0
:104CF00010BD40F27310FEF777FF10F0FF0F02D0E7
:104D0000062010BD14E06420FFF7C0F910F0FF0F7B
:104D100001D00720F5E701F065F808B10820F0E7B9
:104D2000012000F05FFC10F0FF0F01D00920E8E740
:104D30000020E6E75C0000200D494A7A42B1012AD2
:104D400008D0022A0FD0032A0FD04FF0FF3070474F
:104D5000022200E004220270C97C11B11106C90DC3
:104D60000170002070470822F5E71022F3E70000E9
:104D7000300000200F494A7A42B1012A09D0022AA4
:104D800011D0032A12D04FF0FF3070474FF4804209
:104D900001E041F69C720280C97C11B1C2F34E0160
:104DA0000180002070474FF48052F4E74FF4006216
:104DB000F1E70000300000200B49097A39B10129E0
:104DC00007D002290AD003290BD0002103E0FA21E1
:104DD00001E04FF4FA710180002070474FF47A71BE
:104DE000F9E74FF4FA61F6E7300000200D49097A3F
:104DF00041B1012909D002290DD003290ED04FF06D
:104E0000FF3070479FED080A01E09FED080A80ED32
:104E1000000A002070479FED060AF8E79FED050A9B
:104E2000F5E700003000002000000343000083424B
:104E300033330342333383410C49C97A072913D2F0
:104E4000DFE801F01204060A0C0E1000BC2100E09D
:104E500062210180002070472A21FAE71421F8E737
:104E60000A21F6E70521F4E70021F2E730000020EF
:104E7000054991F8242012B14FF0FF307047C989DD
:104E80000180002070470000300000202DE9FC4127
:104E90004C4C80208DF8000020686B460122817CFC
:104EA00060680078FDF7F2FA4FF0FF37002832D142
:104EB0006420FBF7DDFD00258DF8005020686B466F
:104EC0000122817C60680078FDF7E0FA002870D14B
:104ED00020686B460622817D60680078FDF776FACF
:104EE000002866D19DF805009DF80310C007400F0B
:104EF00001F0010140EA41019DF801004FF0010677
:104F000000F00100014309D0012905D0022915D084
:104F10002DA0FDF7B5FE4CE0E67410E020686B466E
:104F20000122C17860680078FDF750FA40BB9DF817
:104F3000000010F00F0020D0042822D0E574FF20DC
:104F400004F80A0F4FF6FF7104F8020C04F8010C84
:104F50006070A180A0712072A67026766576E572D9
:104F6000A572E56025616561A576E576A5834FF4B8
:104F7000FA6000F073FB18B907E01D48FDF780FEEA
:104F800017E01CA0FDF77CFEC6E7022000F088FABF
:104F900078B92A2000F0CAFB58B9322000F0FCFB97
:104FA00038B90020FFF79CFD18B9002000F0ACFADA
:104FB00010B13846BDE8FC81002000F02DFC002037
:104FC000F8E7000030000020556E737570706F7246
:104FD00074656420736F6674776172652070726F98
:104FE00064756374207265762025642E0A000000C3
:104FF000F872000848616C662073656E73697469A5
:1050000076697479207061727420666F756E642E93
:105010000A0000002DE9FF4FDFF89480064685B0B6
:1050200098F8250015460F464FF0FF39B0BBAFB3D7
:10503000002420E0301B102800DD102080B28346C1
:105040003A1901469246204600F042FC30BB6A46BF
:105050005946204600F0D2F800BB50465A466946F1
:10506000FBF79EF920B16FF0010009B0BDE8F08FA9
:1050700004EB0B0084B2B442DCD3280A8DF8100094
:105080008DF81150D8F80000444604AB817ED8F862
:10509000040002220078FDF7F9F908B14846E4E778
:1050A000012084F825000898E0840020DDE7000056
:1050B000300000202DE9F84305464FF0FF3928283D
:1050C00044D80727284C00267DB1012000F0FCFAC7
:1050D00020208DF800004FF00108012D17D0052D7C
:1050E00018D88DF8018005201FE0002000F0ECFAB0
:1050F0008DF800608DF8017020686B460222817C7B
:1051000060680078FDF7C2F900BB267529E08DF8CC
:105110000160E8E7142D04D802208DF801000A2070
:1051200003E003208DF80100142000F0FFFA9DF841
:1051300001006B4607EB80108DF801002068022209
:10514000817C60680078FDF7A1F910B14846BDE8A0
:10515000F8830820A072267384F814800020FFF7DB
:10516000BFFC0020F3E70000300000202DE9F843E9
:10517000214C0646174694F8240089464FF0FF3824
:1051800090B3A07A80B320686B460222817A60686F
:105190000078FDF71BF938BBBDF8000045BAB542F1
:1051A00002D2002038701FE060684188B5EB510FD3
:1051B00011D9216800786B46497C0122FDF706F978
:1051C00090B99DF80000C00605D500F041F86FF0D9
:1051D0000100BDE8F8832068F2B24B46C17A6068EE
:1051E0000078FDF7F3F808B14046F2E7B5FBF6F0BA
:1051F000401E38700020ECE730000020F8B51600A3
:105200000D464FF0FF371FD0104CA17AE1B1010AD3
:105210008DF80010C0B28DF8010041196068428914
:10522000914211D8216800786B46097E0222FDF771
:105230002DF948B92068EAB23346417D60680078AC
:10524000FDF7C4F8002800D03846F8BD3000002033
:10525000F8B5564C4FF0FF36A07A00287DD00025D7
:105260008DF8005020686B460122C17B6068007891
:10527000FDF70CF9002870D120686B4601224179B6
:1052800060680078FDF702F9002866D120686B4657
:105290000122017960680078FDF7F8F800285CD1F8
:1052A00094F82400E0B30C208DF8000020686B46D1
:1052B0000122017960680078FDF7E8F8002872D1D2
:1052C0003220FBF7D5FBC0208DF80000A07AC00784
:1052D00002D0E0208DF8000020686B4601220179A1
:1052E00060680078FDF7D2F800285CD1607C18B1C6
:1052F00002208DF8000001E08DF8005020686B4618
:105300000122C17B60680078FDF7C0F828BB8DF8EA
:10531000005020686B4601224179606800783EE0C9
:10532000FFE704208DF8000020686B460122017918
:1053300060680078FDF7AAF878B9A07C90B9A07AE7
:10534000C0070FD05FF060008DF8000020686B464A
:10535000012201796068007800E024E0FDF796F80A
:1053600008BB01E04020EFE73220FBF781FB607CC7
:1053700018B101208DF8000001E08DF80050206880
:105380006B460122C17B60680078FDF77FF850B959
:105390002068064B01224179606810330078FDF7E0
:1053A00075F8002800D03046F8BD0000300000201D
:1053B0002DE9F047394C82468AB094F824000F4614
:1053C00020B1002000F00EF9012600E0002607A819
:1053D000FFF7F2FC06A8FFF7AFFC09A8FFF72CFDCA
:1053E00008A8FFF745FD94F80A9094F8108000256E
:1053F000002239465046FFF713F910B16D1C022DFB
:10540000F6DB022D1AD00025012203A96846FFF71A
:1054100007F910B16D1C022DF6DB022D0ED003A989
:105420003846FEF773FBC7B269465046FFF782FA6B
:1054300010F0FF0F4FF0000502D002E0002503E05E
:1054400001250FB945F00205FF2020726072E0725D
:105450004FF6FF71E181A072207401202073BDF826
:105460001C0000F0FBF89DF8180000F019F8BDF8DA
:10547000240000F05BF9BDF8200000F08DF94846EB
:1054800000F0CAF94046FFF72BFB16B1012000F0EF
:10549000A9F80AB02846BDE8F087000030000020D7
:1054A00038B5184C4FF0FF35A17A19B3022806D051
:1054B000042806D008280ED010281BD10DE00020AB
:1054C00000E008208DF80000607A9DF80010B0EB35
:1054D000D10F04D005E01020F4E71820F2E70020F7
:1054E00038BD20686B460122C17960680078FCF7FE
:1054F000CDFF08B1284638BD9DF80000C008607295
:10550000EDE7000030000020F8B5354C0546A07CE2
:10551000A84201D10020F8BD31484FF0FF366B465C
:10552000D0E900104FF001020979007835B3FCF79B
:105530004DFF70BB9DF800006B4620F020008DF8F9
:10554000000020680122017960680078FCF79EFF66
:10555000F8B90320FBF78CFA02208DF8000094F8CC
:10556000220078B382202BE020686B460122017D67
:1055700060680078FCF78AFF58B92EE0FCF726FF38
:1055800038B9A07AC0079DF8000003D040F0200091
:1055900002E00CE020F020008DF8000020686B464F
:1055A0000122017960680078FCF770FF08B130468D
:1055B000F8BD0320FBF75CFA94F8220000B18020CC
:1055C0008DF8000094F823000028CDD09DF800004D
:1055D00040F030008DF80000C6E7A5749AE700009F
:1055E0003000002038B51C4C94F8241081421DD0A6
:1055F000002500B394F82500D0B1002000F036FC5F
:105600000020FFF781FFE08C00F0C6F88DF8005015
:1056100060686B46012200782321FCF737FF0120E8
:1056200084F8240000F022FCFFF712FE002038BDB1
:105630004FF0FF3038BD002000F018FC207C8DF8C2
:10564000000060686B46012200782321FCF71EFFF2
:1056500084F82450E8E700003000002038B5194CE9
:105660004FF0FF35A17A31B3FA2809D0B0F5FA7FAF
:1056700008D0B0F57A7F0FD0B0F5FA6F1BD10DE0EE
:10568000002000E008208DF80000207A9DF800102E
:10569000B0EBD10F04D005E01020F4E71820F2E7BA
:1056A000002038BD20686B4601228179606800784F
:1056B000FCF7ECFE08B1284638BD9DF80000C00894
:1056C0002072EDE73000002038B5174C054694F8FD
:1056D0002300A84201D1002038BD0DB1302000E0E8
:1056E00000208DF80000A07C28B19DF8000040F05B
:1056F00002008DF8000094F8220028B19DF8000007
:1057000040F080008DF8000020686B460122017D8A
:1057100060680078FCF7BAFE10B14FF0FF3038BD7A
:1057200084F82350D7E700003000002038B5194C2A
:105730004FF0FF35A17A31B3BC2801D3012010E02E
:10574000622801D302200CE02A2801D3032008E0BC
:10575000142801D3042004E00A2801D3052000E026
:1057600006208DF80000E07A9DF80010884201D1F3
:10577000002038BD20686B4601228178606800787F
:10578000FCF784FE08B1284638BD9DF80000E072A1
:10579000EEE7000030000020F8B51E4D04464FF043
:1057A000FF37A87A48B395F8240030BB287D4FF422
:1057B0007A7648B164B1282C03D8E0B2FFF77AFCBE
:1057C00026E00020FFF776FC042C05D2042406E036
:1057D0000020FFF76FFCF9E7B44200D93446B6FB6E
:1057E000F4F0401E8DF8000028686B4601224178D5
:1057F00068680078FCF74AFE08B13846F8BD9DF8A5
:105800000000401CB6FBF0F0E8814008FFF78EFF77
:105810000020F8BD30000020F8B5054610F0700FEC
:105820004FF0000601D0012004E015B18DF80060B2
:1058300002E040208DF80000244C6B4601222068D5
:10584000817C60680078FCF721FE4FF0FF3760BB79
:105850009DF8000020F0400020738DF8006068067D
:1058600002D404208DF80000A80605D49DF800009D
:1058700040F002008DF80000E80605D49DF8000015
:1058800040F001008DF80000280705D49DF80000C5
:1058900040F038008DF8000020686B460122C17C82
:1058A00060680078FCF7F2FD10B1A6723846F8BDCA
:1058B00025B1082D02D00020FFF706FFA57226753E
:1058C0003220FBF7D5F80020F8BD000030000020A2
:1058D000F8B516000D464FF0FF371FD0104CA17AD7
:1058E000E1B1010A8DF80010C0B28DF80100411934
:1058F00060684289914211D8216800786B46097E20
:105900000222FCF7C3FD48B92068EAB23346417D64
:1059100060680078FCF7BAFD002800D03846F8BD72
:105920003000002010B500B9012000F0C9FB0020B4
:1059300010BD10B500F0EAFB002010BD7FB50D468C
:1059400004464169B0F9080081B1A16971B1FFF75E
:10595000C0F8D4E905128DE80700D4E900102B4601
:10596000226900F0FCFC039004B070BDFFF7B1F8B1
:1059700003A9CDE90001208A2B4682B2D4E90010A8
:1059800000F0C0FC012801D00020EDE70398EBE710
:105990002DE9F041184C0F460546E6682068001DC9
:1059A00000F0C7FA38B9206890F82C100120884020
:1059B000216981432161681C07D137B12168BDE8A5
:1059C000F0410E48091D00F0F7BA20683544B54291
:1059D0004560216805D2A06BBDE8F041091D00F0CB
:1059E000D3BA606B091D00F0CFFAA06A854200D2DD
:1059F000A562BDE8F0810000680000203C050020A1
:105A00002DE9F041054600F0E3FA2E4CA068401C59
:105A1000A06020682C4F10B1606940B32DE0256074
:105A2000A068012829D1002606EB860007EB80003C
:105A300000F09CFA761C072EF6D323488C3000F039
:105A400095FA2148A03000F091FA1F48B43000F0D8
:105A50008DFA1D48C83000F089FA1B48DC3000F090
:105A600085FA19488C3060631430A06305E0206823
:105A7000E96AC06A884200D82560606A401C60629A
:105A8000E96A0120226988401043206101EB81000E
:105A900007EB8000291D00F08FFA00F0B9FA606969
:105AA00000280CD02068E96AC06A884207D20749FA
:105AB0004FF080500860BFF34F8FBFF36F8FBDE88A
:105AC000F0810000680000206004002004ED00E088
:105AD00010B5044690F8510058B101280CD00228A6
