:020000040800F2
:10000000004A002071020008132500088D1C00081A
:10001000112500081D0400082F2C00080000000016
:10002000000000000000000000000000B101000816
:100030001F040008000000000D020008D12600087F
:100040008B0200088B0200088B0200088B0200085C
:100050008B0200088B020008210400088B020008B4
:100060008B0200088B0200088B0200088B0200083C
:100070008B0200088B0200088B0200088B0200082C
:100080008B0200088B0200088B02000800000000B1
:100090000000000000000000000000008B020008CB
:1000A0008B020008892700088B0200088B020008D9
:1000B0008B0200088B0200088B0200088B020008EC
:1000C0008B0200088B0200088B0200088B020008DC
:1000D0008B020008152C0008212C000800000000ED
:1000E0008B0200088B0200088B0200080000000051
:1000F0000000000000000000000000008B0200086B
:10010000000000008B0200088B0200088B02000830
:1001100000000000000000000000000000000000DF
:100120008B0200088B0200088B0200088B0200087B
:100130008B0200080000000000000000000000002A
:100140000000000000000000000000008B0200081A
:100150008B0200088B0200088B0200088B0200084B
:100160008B0200088B020008000000000000000065
:10017000000000000000000000000000000000007F
:10018000000000008B0200080000000000000000DA
:100190008B0200088B020008DFF810D000F02CF969
:1001A00000480047BF3E0008AFF30080004A00202F
:1001B0002C4B19680868B0E8F04F80F30988BFF34A
:1001C0006F8F4FF0000080F311887047000000002F
:1001D00008480068006880F308884FF0000080F34A
:1001E000148862B661B6BFF34F8FBFF36F8F00DF25
:1001F00000BF00BF08ED00E0DFF80C00016841F42B
:1002000070010160704700BF88ED00E0EFF30980E6
:10021000BFF36F8F134B1A681EF0100F08BF20ED4D
:10022000108A20E9F04F106009B44FF0500080F3BD
:100230001188BFF34F8FBFF36F8F05F085F84FF034
:10024000000080F3118809BC19680868B0E8F04F15
:100250001EF0100F08BFB0EC108A80F30988BFF3BE
:100260006F8F704750000020EFF30580704700004B
:100270000648804706480047FEE7FEE7FEE7FEE740
:10028000FEE7FEE7FEE7FEE7FEE7FEE77927000868
:10029000990100082DE9F05F0546002092469B4633
:1002A00088460646814640241BE02846414647468C
:1002B000224600F091F853465A46C01A914110D395
:1002C00011461846224600F078F82D1A67EB01080F
:1002D0004F4622460120002100F06FF817EB00097D
:1002E0004E41201EA4F10104DFDC484631462A4677
:1002F0004346BDE8F09F2DE9F0410024061B25464A
:1003000071F1000605DA01240027D0EB070067EB46
:100310000101161E73F1000605DA0027D2EB070271
:10032000012567EB0303FFF7B5FF86460E46174628
:100330009C46AC4204D00025D0EB050E65EB0106CF
:1003400024B10020D2EB000760EB030C704631466D
:100350003A466346BDE8F08140EA01039B0703D0BB
:1003600009E008C9121F08C0042AFAD203E011F8F4
:10037000013B00F8013B521EF9D27047D2B201E0B6
:1003800000F8012B491EFBD270470022F6E710B59A
:1003900013460A4604461946FFF7F0FF204610BDF3
:1003A00030B504460020034600E05B1C934203D2B4
:1003B000E05CCD5C401BF8D030BD202A04DB203A45
:1003C00000FA02F1002070479140C2F1200320FAA8
:1003D00003F3194390407047202A04DB203A21FAA6
:1003E00002F00021704721FA02F3D040C2F120024E
:1003F0009140084319467047064C074D06E0E068F7
:1004000040F0010394E8070098471034AC42F6D35B
:10041000FFF7C6FEF863000818640008FEE770479F
:10042000012000F071B872B6FEE72DE9F0410446F4
:10043000876D00F073F9064694F835000025022810
:1004400006D08020606584F834500120BDE8F0813A
:100450002068016821F0160101602068416921F0DF
:1004600080014161206C08B9A06C20B1206801684E
:1004700021F0080101602068016821F0010101609C
:100480000CE000F04BF9801B052807D9202060659F
:10049000032084F8350084F83450D7E720680068DA
:1004A000C007EED194F85C103F208840B86001206E
:1004B00084F8350084F834500020C7E790F83510F0
:1004C000022903D08021416501207047052180F871
:1004D00035100068016821F00101016000207047BB
:1004E00070B5044600F01AF90546601C02D00448B5
:1004F0000078044400F012F9401BA042FAD370BD0A
:100500000400002070470000044910B50A68024248
:1005100002D00860FFF7F6FF10BD0000143C014058
:100520002DE9F84FDFF8B8A10022012403254FF090
:100530000F090AF1040BAAF1040E00BF0B6804FABC
:1005400002F63340B34273D10F7907F00307012F4E
:1005500001D0022F16D187684FEA420805FA08FC3D
:1005600027EA0C07D1F80CC00CFA08FC4CEA070C7F
:10057000C0F808C04768B7430E79C6F30016964026
:100580003E4346600E79F643B6070DD0C768560065
:1005900005FA06FC27EA0C07D1F808C00CFA06FC9D
:1005A0004CEA070CC0F80CC00E7906F00306022EC8
:1005B00010D1D60800EB8608D8F8206057074FEA1C
:1005C000D76C09FA0CF7BE430F6907FA0CF73743EB
:1005D000C8F8207006684FEA420C05FA0CF7BE43D3
:1005E0000F7907F0030707FA0CF7374307604E68E7
:1005F00016F4403F6DD03B4E376847F48047376074
:10060000366822F0030706F480460096364E07EB64
:10061000060CDCF8086897073F0F09FA07F826EA86
:100620000806DFF8C880404503D14FF000081EE0FF
:100630004FE0DFF8BC80404502D14FF0010816E0E2
:10064000DFF8B080404502D14FF002080FE0DFF83C
:10065000A880404502D14FF0030808E0DFF89C80F5
:10066000404502D14FF0040801E04FF0070808FAB6
:1006700007F848EA0608CCF80888DAF80060574618
:10068000D1F804C09E435FEACC2C00D51E433E60E7
:10069000DBF800605F46D1F804C09E435FEA8C2C13
:1006A00000D51E433E60DEF800607746D1F804C0F6
:1006B0009E435FEA8C3C00D51E433E60084F083FD6
:1006C0003E68D1F804C09E435FEACC3C00D51E438F
:1006D0003E60521C102AFFF431AFBDE8F88F0000D5
:1006E000083C014044380240003001400000024014
:1006F0000004024000080240000C024000100240CA
:10070000426921EA02030A4043EA024181617047DB
:100710000AB1816170470904FBE700000148806865
:10072000704700000400002070B5040025D094F844
:100730003D00002520B984F83C50204600F0E2FA44
:10074000242084F83D002068016821F00101016047
:100750002068016841F4004101602068016821F4CB
:100760000041016000F03AFC4D4A6168914201D8B5
:100770004C4900E04C49884201D2012070BD4B49F0
:100780002368B0FBF1F15E6826F03F060E435E6021
:100790006368934206D94FF4967359434FF47A73C2
:1007A000B1FBF3F12368491C1E6A26F03F06314372
:1007B00019626168914210D84900401EB0FBF1F205
:1007C000521CC2F30B02042A01D2042022E0B0FB27
:1007D000F1F0401CC0F30B001CE0A268F2B301EB87
:1007E000C10303EB0116431EB3FBF6F35B1C43F49A
:1007F00080431B0549D092B301EBC10202EB01110A
:10080000401EB0FBF1F0401CC0F30B0040F48040F0
:1008100040F400402168CA694CF6FF739A431043C4
:10082000C861D4E9071001432068026822F0C002C1
:1008300011430160D4E9030101432068826848F252
:10084000FF339A4311438160D4E9050108432168CD
:10085000CA6822F0FF021043C86001E00EE016E013
:100860002068016841F0010101602564202084F8BE
:100870003D00256384F83E50002070BD01EB410629
:10088000431EB3FBF6F35B1CB3E70120C2E701EBA9
:100890004101401EB0FBF1F0401CC0F30B00B7E774
:1008A000A086010080841E0000093D0040420F0028
:1008B0002DE9F84F1F4690468A460446DDF82890F9
:1008C000FFF72CFF054694F83D0020287FD119231F
:1008D000012240492046009501F036FB002876D1E0
:1008E00094F83C00012872D0012084F83C00206874
:1008F0000168C90703D1016841F001010160206866
:10090000016821F400610160212084F83D0010207D
:1009100084F83E0000262664C4F824806785608D34
:1009200020852D48E0622B464A465146204601F07C
:10093000C5F990B9206841698069009036E02A467F
:100940004946204601F0B2FB50B1206C042804D186
:100950002068016841F4007101600120BDE8F88F52
:10096000606A216800780861606A401C6062618D7D
:10097000491E6185218D491E89B2218522685369EE
:10098000DB435B070BD451B100781061606A401CF7
:100990006062608D401E6085208D401E20852A4645
:1009A0004946204601F0AAFA0028CED1208D002821
:1009B000C5D154F83D0B016841F40071016020205D
:1009C00004F81E09E67766770020C7E7FFE70220F4
:1009D000C4E70000020010000000FFFF2DE9FF4FF8
:1009E00083B09A46DDE9119793460446DDF84080CE
:1009F000FFF794FE054694F83D00202870D1192396
:100A0000012271492046009501F09EFA0028F5D197
:100A100094F83C00012863D0012084F83C00206851
:100A20000168C90703D1016841F001010160206834
:100A3000016821F400610160222084F83D0040201B
:100A400084F83E0000262664C4F82480A4F82A9086
:100A5000608D20855D48E062CDE9007553465A46B9
:100A60002046049901F078F900287CD1208DD0B17E
:100A7000012821D00228206824D041698069009093
:100A8000208D032869D801282BD0514902283B46E4
:100A90004FF00002009559D08846204601F054FAE4
:100AA000002860D13CE020684169816900910168BB
:100AB00041F40071016077E02068016821F48061F1
:100AC0000160F0E7016821F480610160206801683D
:100AD00041F400610160206841698069009063E031
:100AE0006FE02A463946204601F0ADFA98BB2068EF
:100AF0000069616A08704EE02068016841F4007185
:100B0000016020680069616A0870606A401C606268
:100B1000218D491E2185618D491E6185216838E03E
:100B20002068016821F48061016020680069616AC1
:100B30000870606A401C6062208D401E2085608DB8
:100B4000401E60853B46002241460095204601F04C
:100B5000FBF900B9D0E706E0FFE72A463946204610
:100B600001F071FA18B1012007B0BDE8F08F2068DC
:100B70000069616A0870606A401C6062218D491ECC
:100B80002185618D491E618521684A69D2435207DA
:100B90000AD409690170606A401C6062208D401EA1
:100BA0002085608D401E6085208D00287FF468AF11
:100BB000202084F83D0084F83E6084F83C600020EA
:100BC000D2E70220D0E70000020010000000FFFF83
:100BD000040001002DE9FF4F83B09A46DDE911972B
:100BE00093460446DDF84080FFF798FD054694F8EB
:100BF0003D0020287FD1192301224049204600953D
:100C000001F0A2F9002876D194F83C00012872D0B6
:100C1000012084F83C0020680168C90703D10168FD
:100C200041F0010101602068016821F40061016068
:100C3000212084F83D00402084F83E0000262664F0
:100C4000C4F82480A4F82A90608D20852C48E062A6
:100C5000CDE9007553465A462046049901F0FAF84A
:100C600070B930E02A463946204601F01FFA58B1E3
:100C7000206C042804D12068016841F400710160EF
:100C8000012007B0BDE8F08F606A21680078086134
:100C9000606A401C6062218D491E89B22185628D87
:100CA000521E628522685369DB435B070BD469B12E
:100CB00000781061606A401C6062208D401E2085B3
:100CC000608D401E6085208D0028CBD12A46394694
:100CD000204601F013F90028CAD154F83D0B0168F1
:100CE00041F400710160202004F81E09E677667760
:100CF0000020C6E7FFE70220C3E700000200100063
:100D00000000FFFF10B586B0044614216846FFF7C7
:100D10003CFB13492068884220D112480021026818
:100D200042F002020260006800F002000590C0205C
:100D300000901220CDE901010320039004200490CB
:100D400069460948FFF7ECFB06481030016841F49A
:100D500000110160006800F40010059006B010BD9D
:100D600000540040303802400004024002488168CC
:100D70000278114481607047040000200B4810B5D0
:100D8000016841F400710160016841F48061016013
:100D9000016841F480710160032000F073F80F20B6
:100DA00000F006F800F024F8002010BD003C0240DE
:100DB00070B50D4D04464FF47A712878B1FBF0F010
:100DC0000A490968B1FBF0F000F010FB48B9102C9B
:100DD00007D200222146501E00F034F800206C603B
:100DE00070BD012070BD0000040000201000002034
:100DF0000C4882B0016841F480410160006800F451
:100E0000804000900748001F016841F08051016058
:100E10000068002200F0805000900F21901E02B068
:100E200000F010B844380240002809DB00F01F022F
:100E3000012191404009800000F1E020C0F800113C
:100E400070470000F0B40E4B1B680C46C3F302233E
:100E5000C3F10705042D00D90425191D072901D266
:100E6000002300E0DB1E012606FA05F1491E2140A1
:100E700099409E40761E16403143F0BC01F0E8BE1A
:100E80000CED00E0064900F0070208684FF6FF038A
:100E9000184040EA0220034A1043086070470000EF
:100EA0000CED00E00000FA052DE9F0470E460500C4
:100EB00065D0DFF81481D8F80000F7B200F0070021
:100EC000B04207D288F80070D8F8000000F00700A0
:100ED000B04254D128683D4C810712D5400703D554
:100EE000206840F4E05020602878000703D520688F
:100EF00040F4604020602068A96820F0F0000843BA
:100F000020602878C0072DD030496868083901284A
:100F100012D0022813D0032811D0096889070029AC
:100F20002DDA216821F0030101432160FFF7F6FB70
:100F3000814641F2883A0EE009688903EFE70968C3
:100F40008901ECE7FFF7EAFBA0EB0901514502D963
:100F50000320BDE8F0872068696800F00C00B0EB62
:100F6000810FEFD1D8F80010404601F00701B142DF
:100F700007D90770006800F00700B04201D00120D7
:100F8000E7E72878400705D52068E96820F4E050B5
:100F9000084320602878000706D52068296920F4D6
:100FA000604040EAC100206000F038F82168084A3B
:100FB000C1F30311515CC840064908600648006847
:100FC000FFF7F6FE0020C4E7003C0240083802406C
:100FD0003C57000810000020080000200448054984
:100FE00000680968044AC1F38221515CC840704717
:100FF00010000020083802404C57000804480549FA
:1010000000680968044AC1F34231515CC840704726
:1010100010000020083802404C570008154810B551
:10102000006810F00C02144813D01449042A0FD0A1
:10103000082A0ED10F4C241F2268236802F03F02B9
:101040005B0207D52068C0F38810A0FB010106E011
:10105000084610BD2168C1F38811A1FB00010023DF
:10106000FFF718F92168C1F30141491C4900B0FBA1
:10107000F1F010BD083802400024F40040787D01F2
:101080002DE9F84F04006ED02078DFF84C93C007AC
:10109000A9F104054AD009F104000168C1F38101F6
:1010A000012908D00068C0F3810002280AD1D9F8CC
:1010B0000000400206D52868800337D56068002804
:1010C000E1D033E06068B0F5803F10D0B0F5A02FDC
:1010D000286810D020F480302860286820F4802010
:1010E00028606068A8B1FFF719FB06460DE0286884
:1010F00040F48030F4E740F480202860F7E700BF38
:10110000FFF70CFB801B642873D828688003F7D591
:101110000CE0FFF703FB064605E000BFFFF7FEFA11
:10112000801B6428F0D828688003F7D42078DFF883
:10113000AC8280074FF0000A3ED5A748001D016829
:1011400011F00C0F08D00068C0F3810002280BD109
:10115000D9F80000400207D42868800716D5E06857
:10116000012800D112E033E1E068B8B10120C8F8ED
:101170000000FFF7D3FA064605E000BFFFF7CEFAFE
:10118000801B0228C0D828688007F7D52868216905
:1011900020F0F80040EAC10028600DE0C8F800A087
:1011A000FFF7BCFA064604E0FFF7B8FA801B0228F6
:1011B0001FD828688007F7D42078000722D5864FEB
:1011C00087486169703771B101210160FFF7A6FAA4
:1011D000064604E0FFF7A2FA801B022809D8386807
:1011E0008007F7D50EE0C0F800A0FFF797FA064693
:1011F00005E082E0FFF792FA801B02287DD838686C
:101200008007F7D42078400768D5DFF8CCB10027F5
:101210000BF13C0BDBF80000C0000BD4DBF8001036
:1012200041F08051CBF80010DBF80000012700F0FE
:10123000805000906B4E3068C00510D4306840F488
:1012400080703060FFF76AFA009005E0FFF766FAF9
:101250000099401A022850D83068C005F6D55E4E75
:10126000A0686C3601280FD00528306810D020F017
:1012700001003060306820F004003060A068B8B130
:10128000FFF74CFA00900FE0306840F00100F4E7FF
:1012900040F004003060F7E7FFF740FA0099411A88
:1012A00041F28830814266D830688007F4D50EE07C
:1012B000FFF734FA009007E0FFF730FA0099411A7F
:1012C00041F28830814256D830688007F4D42FB17B
:1012D000DBF8001021F08051CBF80010A069C8B3F2
:1012E0003D49091D0968C1F3810102294AD002283C
:1012F000504607D0C8F8600000E03CE0FFF70EFA67
:1013000004463BE04746C8F86000FFF707FA064688
:1013100005E000BFFFF702FA801B02282BD82868DF
:101320008001F7D4D4E907010843A16A2E4A49088D
:1013300002EB0141626A41EA8211084394F82C10E1
:1013400040EA0161C9F8001001203866FFF7E6F9AC
:10135000044606E03EE000BFFFF7E0F9001B02286C
:1013600009D828688001F7D534E000BFFFF7D6F927
:10137000001B022802D90320BDE8F88F28688001ED
:10138000F4D427E00128F7D0D9F80000E26900F48E
:10139000800191421CD1226A00F03F01914217D195
:1013A00047F6C071626A0140B1EB821F10D1A26A98
:1013B0004FF0FF3300F4403103EB5202B1EB024F28
:1013C00006D194F82C1000F07060B0EB016F01D0E2
:1013D0000120D1E70020CFE7043802400000474257
:1013E000800E4742007000400000FFFF10B5401E15
:1013F000B0F1807F01D3012010BD4FF0E024606187
:101400000F21601701F024FC0020A061072020615B
:10141000002010BD7047704770B590F83C20012A3D
:101420002CD0012480F83C40022280F83D20036843
:101430005A689D6822F070060A6832435A60104B61
:1014400002689A420ED0B2F1804F0BD00D4B9A42F7
:1014500008D00D4B9A4205D00C4B9A4202D00C4B4F
:101460009A4204D1496825F080031943916080F8BD
:101470003D40002180F83C10084670BD022070BD40
:10148000000001400004004000080040000C004043
:101490000040014010B5040003D094F83D0010B1A5
:1014A00007E0012010BD002084F83C00204600F039
:1014B0001FF8022084F83D00211D206801F06AF920
:1014C000012084F8460084F83E0084F83F0084F848
:1014D000400084F8410084F8420084F8430084F816
:1014E000440084F8450084F83D00002010BD000051
:1014F00008B500680B49884212D10B48016841F4D5
:10150000003101600068002200F4003000901146B4
:101510001920FFF797FCBDE808401920FFF784BCAD
:1015200008BD00000044014044380240704770B5D7
:101530000446006801694FF00005C943890715D4C6
:10154000C168C943890711D4E91E016101202077D0
:10155000206880698007204602D0FFF7E7FF04E09B
:1015600000F0C0F8204600F065F925772068016991
:10157000C943490717D4C168C943490713D46FF059
:1015800004010161022020772068806910F4407F07
:10159000204602D0FFF7CAFF04E000F0A3F820467F
:1015A00000F048F9257720680169C943090716D476
:1015B000C168C943090712D46FF008010161042012
:1015C00020772068C0698007204602D0FFF7AEFF71
:1015D00004E000F087F8204600F02CF92577206819
:1015E0000169C943C90617D4C168C943C90613D4E0
:1015F0006FF010010161082020772068C06910F4A5
:10160000407F204602D0FFF791FF04E000F06AF827
:10161000204600F00FF9257720680169C943C90702
:1016200008D1C168C943C90704D1891E0161204698
:1016300000F001F920680169C943090609D4C168AD
:10164000C943090605D46FF0800101612046FFF708
:10165000E1FE20680169C943490609D4C168C9434C
:10166000490605D46FF040010161204600F0E4F81E
:1016700020680169C94389060BD4C168C94389063A
:1016800007D46FF0200101612046BDE87040FFF7EC
:10169000C2BE70BD10B586B0044614216846FEF780
:1016A00074FE0D492068884214D10C48002102685C
:1016B00042F001020260006800F001000590C020C5
:1016C00000900220CDE90101CDE9031069460448EC
:1016D000FEF726FF06B010BD00040040303802407F
:1016E00000000240704770B5044690F83C000026A8
:1016F0000D4601280FD0012084F83C006AB1042A6D
:101700001DD0082A2FD00C2A3FD00126002084F8B3
:101710003C00304670BD022070BD206801F086F8A4
:101720002068816941F0080181612068816921F0A8
:1017300004018161206881692A69114311E02068F0
:1017400001F09CF82068816941F4006181612068A2
:10175000816921F480618161206881692A6941EA97
:1017600002218161D2E7206801F0B4F82068C169E4
:1017700041F00801C1612068C16921F00401C16123
:101780002068C1692A69114311E0206801F0CEF890
:101790002068C16941F40061C1612068C16921F418
:1017A0008061C1612068C1692A6941EA0221C16181
:1017B000ACE710B5040003D094F83D0010B107E089
:1017C000012010BD002084F83C00204600F01EF8E7
:1017D000022084F83D00211D206800F0DBFF01207D
:1017E00084F8460084F83E0084F83F0084F8400006
:1017F00084F8410084F8420084F8430084F84400EF
:1018000084F8450084F83D00002010BD08B500684C
:101810000649884208D10648016841F0020101608A
:10182000006800F00200009008BD000000040040C5
:10183000403802407047704770477047704700005B
:10184000F8B5016804460868CA684B6910F00F0FC4
:101850004FF0000559D003F0010602F490773743AA
:1018600065D0C10705D0D10503D5216C41F0010138
:101870002164410705D5D90703D0216C41F002014D
:101880002164810705D5D90703D0216C41F00401FB
:101890002164010707D502F02001314303D0216CF8
:1018A00041F008012164216C00293AD0800604D55A
:1018B000900602D5204601F08AF820684069216C24
:1018C000C0F38010090700D460B3204601F058F837
:1018D00020684069400621D52068143050E8001F78
:1018E00021F0400140E80012002AF5D1A06BA8B118
:1018F0006C490165A06BFEF7E1FD002811D0A06BDB
:10190000016D01B0BDE8F040084783060FD593068E
:101910000DD52046BDE8F84001F059B82046FFF744
:101920008DFFF8BD2046FFF789FF2564F8BD266BC3
:101930002023012E79D1C60677D5D60675D508683D
:10194000486800904869400640D5A16B0868406827
:101950000004000CEAD0A28D8242E7D9E085C86974
:10196000B0F5807F2DD020680C3050E8001F21F4A6
:10197000807140E80012002AF5D12068143050E848
:10198000001F21F0010140E80012002AF5D1206873
:10199000143050E8001F21F0400140E80012002AF6
:1019A000F5D184F83E30256320680C3050E8001FE4
:1019B00021F0100140E80012002AF5D1A06BFEF7DB
:1019C00034FDA08DE18D401A81B229E0A08DE18D1A
:1019D000401A81B2E08D0028A8D00029A6D0206846
:1019E0000C3050E8002F22F4907240E80026002EC0
:1019F000F5D12068143050E8002F22F0010240E8B1
:101A00000026002EF5D184F83E30256320680C3086
:101A100050E8002F22F0100240E80023002BF5D1FF
:101A20002046FFF70AFFF8BDFFE705062BD5150690
:101A300029D594F83D002128F5D1A068B0F5805F44
:101A400001D12069B0B1206A411C2162216800786F
:101A50004860E08C401E0004000CE084E3D1206864
:101A6000C16821F08001C1602068C16841F0400177
:101A7000C160D8E7206A0088C0F308004860206A87
:101A8000801C2062E5E74006CDD55006CBD5CA685C
:101A9000204622F04002CA6084F83D3000F0F5F89C
:101AA000C1E700007129000870B5040004D094F863
:101AB0003D00002510B106E0012070BD84F83C50C7
:101AC000204600F023F8242084F83D002068C168F7
:101AD00021F40051C160204600F0DAFF206801695E
:101AE00021F4904101612068416921F02A0141619E
:101AF0002068C16841F40051C1602564202084F849
:101B00003D0084F83E00002070BD0000F0B587B0B5
:101B1000044614216846FEF738FC2A4F2368002249
:101B200029490224032507262848BB4221D1264BF8
:101B300014331F6847F010071F601B6803F0100381
:101B400005930B6843F001030B60096802AB01F0D9
:101B5000010105916902CDE9001483E8640069463A
:101B6000FEF7DEFC002211462520FFF76BF9252049
:101B700023E0174FBB4222D1134B10331F6847F4A9
:101B800000371F601B6803F4003305930B6843F0B4
:101B900001030B60096802AB01F0010105910C2102
:101BA000CDE9001483E864006946FEF7B9FC002221
:101BB00011462620FFF746F92620FFF735F907B032
:101BC000F0BD00000010014030380240000002402B
:101BD00000440040704700002DE9F843044690F8A7
:101BE0003D001F4616460D4620284CD1C5B1BEB15A
:101BF00094F83C00012846D0012084F83C004FF0C6
:101C00000008C4F84080212084F83D00FEF786FDDE
:101C1000A6848146E684A068B0F5805F03D004E026
:101C20000120BDE8F883206928B12E465FF0000549
:101C300084F83C800EE00026FAE78021204600F080
:101C4000ADFFA0B9AEB116F8010B21684860E08C79
:101C5000401EE084E08C4B464FF0000200970028C5
:101C6000EBD14FF04001204600F098FF30B1032047
:101C7000D7E735F8020BC0F30800E6E7202084F828
:101C80003D000020CDE70220CBE77047FEE701686A
:101C90004A69D24352050FD46FF480624A61002131
:101CA00040F8301F202242738173026942F004021F
:101CB000026101730120704700207047F8B50446A7
:101CC000C06A1E460D461746082807D0012805D0D1
:101CD00010F5803F02D0206B122804D120680168E3
:101CE00041F480710160134600224FF0011120463B
:101CF000009600F029F940B120680068C00502D5BF
:101D00004FF4007020640320F8BD2069B0F5804FC7
:101D10000ED00620216800EAD51040F0F0000861DE
:101D200033463A460B49204600F042F978B902E0C2
:101D300005F0FE0000E0E8B221680861054933467D
:101D40003A46891F204600F033F90028DCD00120F4
:101D5000F8BD0000080001002DE9F84F04460068B6
:101D600089460B9D01689846174641F480610160E1
:101D70002068016841F48071016000954FF0011BFB
:101D80000022594620460A9B00F0DEF84FF4007A04
:101D900040B120680068C00501D5C4F840A0032008
:101DA000BDE8F88F216809F0FE0008612B4628493C
:101DB00020460A9A00F0FCF8F0BB2068416980696F
:101DC00000902A4620460A9900F070F940B1206C34
:101DD00004283AD12068016841F40071016034E0C0
:101DE000FEB2B8F1010F09D02168380A08612A460D
:101DF00020460A9900F05AF90028E8D120680661C7
:101E00002A4620460A9900F051F90028DFD12068BF
:101E1000016841F480710160009500225946204616
:101E20000A9B00F091F80028B3D1216809F0FF0067
:101E300040F00100086100E007E02B46044920461D
:101E40000A9A00F0B5F80028AAD00120A8E70000FF
:101E5000020001002DE9F843044600680D46DDE963
:101E6000089701689846164641F4807101604B4618
:101E700000224FF001112046009700F065F848B1AC
:101E800020680068C00502D54FF40070206403206C
:101E9000BDE8F883216805F0FE0008613B464A462C
:101EA0001549204600F084F888B9206841698069A6
:101EB00000903A464946204600F0F8F848B1206CB8
:101EC000042804D12068016841F4007101600120F8
:101ED000DEE7F5B2B8F1010F09D02168300A0861D8
:101EE0003A464946204600F0E1F80028E7D120684C
:101EF00005610020CCE700000200010070B5164625
:101F00000D4604460DE02046FFF7C1FE08B1012052
:101F100070BD681C05D0FEF701FC801BA84207D8E5
:101F200035B120684069C0434007ECD4002070BD43
:101F3000002044F8300F20216173A073216941F023
:101F4000200121612073E2E72DE9F0471E4690460B
:101F50000D460446C1F30747DDF8209008E0701CE9
:101F600006D0FEF7DBFBA0EB0900B0420FD876B13C
:101F70002068012F18D0806925EA00000004000CB9
:101F800014D000214145EAD00020BDE8F0870020B0
:101F900044F8300F20216173A073216941F02001C2
:101FA000216120730120F0E74069E5E70121E9E7BD
:101FB0002DE9F0479A4691460E46044600254FF01B
:101FC0002008C1F3074725E020684069C043400569
:101FD00014D42068016841F40071016021686FF435
:101FE00080604861256384F83D8084F83E50206C11
:101FF00040F00400206484F83C501FE0B9F1FF3F3A
:1020000008D0FEF78BFBA0EB0A0149450CD8B9F1CB
:10201000000F09D02068012F13D0806926EA000044
:102020000004000C0BD0CFE744F8305F84F80D803B
:10203000A573206940F02000206125730120BDE8D0
:10204000F0874069EAE72DE9F041002590460E4609
:102050000446202717E04069C043C0060CD454F85A
:10206000301B6FF01000486144F810596777A5776E
:10207000206A2062257717E0FEF750FBA0EB0800EE
:10208000B04208D83EB120684169C9434906E2D44C
:102090000020BDE8F08144F8305F6773A5732069C4
:1020A00040F02000206125730120F2E770B516464C
:1020B0000D4604460DE02046FFF7E9FD08B101207A
:1020C00070BD681C05D0FEF729FB801BA84207D80D
:1020D00035B120684069C0430006ECD4002070BDD3
:1020E000002044F8300F20216173A073216941F072
:1020F000200121612073E2E72DE9104000F00FF884
:102100000028FBD106E0C820FEF7EAF9641CE4B21F
:10211000142C03D801F01EFF0028F4D110BD10B517
:1021200080216B2000F096F86420FEF7D9F9002199
:102130006B2000F08FF8032000F057F8002000F02B
:102140004FF8322000F06EF80021382000F082F8BD
:1021500000216A2000F07EF80021232000F07AF8A8
:102160008021372000F076F8752000F011F86828FB
:1021700001D0012010BD01216B2000F06BF800217F
:102180006C2000F067F8322000F04CF8002010BD01
:102190001FB56423012203A98DE80E0013460246F1
:1021A000D0210548FEF71AFC10B1012004B010BD83
:1021B0009DF80C00FAE70000100300203EB5400037
:1021C000CDE900320A466424014602940123034803
:1021D000FEF704FC002800D001203EBD10030020C3
:1021E000C006010E1C2000F035B8C006010E1B20F1
:1021F00000F030B8BC2801D3012110E0622801D3DF
:1022000002210CE02A2801D3032108E0142801D37D
:10221000042104E00A2801D3052100E006211A2048
:1022200000F018B810B504464FF47A70844201D912
:10223000044602E0042C00D20424B0FBF4F0401E5B
:10224000C1B2192000F006F86008BDE81040FFF7A1
:10225000D1BF000003B583B06423012204A98DE837
:102260000E0013460246D0210348FEF7B3FC0028B7
:1022700000D0012005B000BD100300203EB5400095
:10228000CDE900320A466424014602940123034842
:10229000FEF7A0FC002800D001203EBD1003002066
:1022A00000B587B01C2206496846FEF755F80021A4
:1022B000684602F059FC0349086007B000BD000001
:1022C00020570008000000202DE9F04186B01421BD
:1022D0006846FEF75AF830480024016841F00401CE
:1022E0000160016801F004010591016841F080017D
:1022F0000160016801F080010591016841F0010170
:102300000160016801F001010591016841F00201DD
:1023100001600068214F00F002004FF40055059065
:10232000002229463846FEF7F3F9DFF874804FF4AF
:102330007046002231464046FEF7EAF90095012535
:10234000CDE90154694638460394FEF7E9F81120B7
:1023500000900004CDE90105124F69463846FEF7AA
:10236000DFF822208DE8310069463846FEF7D8F8BC
:102370000096CDE90154694640460394FEF7D0F833
:10238000002205210620FEF75DFD0620FEF74CFD2C
:1023900006B0BDE8F081000030380240000802407D
:1023A00000040240000002400D4810B50B490160D6
:1023B0000C49416000214FF480428160C0E9031262
:1023C00041618161C1610162FEF7AEF9002803D06D
:1023D000BDE81040FEF727B810BD000000540040D3
:1023E00010030020801A06000C4810B50A4901604D
:1023F00042F27F514160002141F28732C0E902126E
:1024000001618161FFF746F8002803D0BDE8104064
:10241000FEF709B810BD000000440140AC030020E5
:1024200030B589B0002407941C2168460894FDF754
:10243000ACFF1A4818496025C0E9001544F61F6131
:10244000C0E9024104618461FFF7B3F908B1FDF707
:10245000EAFF079407A911480894FEF7DDFF08B1C9
:10246000FDF7E1FFCDE900540294002269460B48D4
:102470000494FFF738F908B1FDF7D5FF0422694647
:102480000648FFF730F908B1FDF7CDFF0348FFF725
:1024900001F909B030BD00000004004064030020D1
:1024A0000C4810B50A4901604FF4E1314160002148
:1024B00081600C22C160C0E904128161C161FFF733
:1024C000F3FA002803D0BDE81040FDF7ACBF10BD03
:1024D00000100140F40300200C4810B50A490160C7
:1024E0004FF4E1314160002181600C22C160C0E9FC
:1024F00004128161C161FFF7D7FA002803D0BDE85B
:102500001040FDF790BF10BD00440040380400208B
:10251000FEE7FEE730B40021084B0A465FF00000FA
:1025200003EBC004401CC0B262548028F8D3491C9D
:10253000C9B20829F2D330BC00F078B87C0400207E
:1025400010B50021AE2000F08BF80021084600F005
:1025500087F80021102000F083F80021402000F0CF
:102560007FF80021812000F07BF80021CF2000F0CF
:1025700077F80021A12000F073F80021C82000F0B6
:102580006FF80021A62000F06BF80021A82000F0D1
:1025900067F800213F2000F063F80021D32000F00D
:1025A0005FF80021084600F05BF80021D52000F01C
:1025B00057F80021802000F053F80021D92000F0C6
:1025C0004FF80021F12000F04BF80021DA2000F054
:1025D00047F80021122000F043F80021DB2000F032
:1025E0003FF80021402000F03BF80021202000F0BF
:1025F00037F80021022000F033F800218D2000F090
:102600002FF80021142000F02BF80021A42000F066
:1026100027F80021A62000F023F8FFF77BFF002118
:10262000BDE81040AF2000F01BB8000070B50B4EA5
:1026300000242146002000F027F8002506EBC50005
:102640000121005D00F00CF86D1CEDB2802DF5D37A
:10265000641CE4B2082CECD370BD00007C040020A4
:1026600008B5074A01B14021117050700A2000904E
:102670000223034A78210348FEF71AF908BD000037
:10268000140000201003002010B50446B031C8B279
:102690000021FFF7E5FF102040EA14100021FFF7AA
:1026A000DFFF04F00F00BDE810400021FFF7D8BFA6
:1026B000064D4FF400544FF4FA7621462846FEF7B3
:1026C0001FF8304602F044FAF7E700000008024025
:1026D00010B5FEF74BFB02F04DFF012803D0BDE81B
:1026E000104002F0D9BE10BD30B593B0302168461D
:1026F000FDF74BFE14210CA8FDF747FE1C480024F3
:10270000016841F080510160006800F08050119034
:102710001848016841F4404101600068022500F456
:1027200040401190012003901020009506950490E0
:10273000CDE90740C020CDE9090504200B9068468B
:10274000FEF79EFC08B172B6FEE70F20CDE90C053E
:102750004FF48050CDE90E4003210CA81094FEF7F1
:10276000A3FB002801D072B6FEE713B030BD000015
:1027700040380240007000400248016841F4700196
:102780000160704788ED00E00148FEF7D0BE000010
:10279000AC030020F0B502681D4B1E4C9F031E4D7C
:1027A0001E4E984207D0B84205D0A04203D0A8429E
:1027B00001D0B04204D122F0700C4A6842EA0C0207
:1027C000984210D0B8420ED0A0420CD0A8420AD0F5
:1027D000B04208D0124CA04205D0124CA04202D008
:1027E000114CA04203D122F44074CA6822434C69C0
:1027F00022F08002224302608A68C2620A68826212
:10280000984201D10969016301214161F0BD0000D5
:10281000000001400004004000080040000C00409F
:1028200000400140004401400048014030B5026AC8
:1028300022F001020262026A4368846924F073058F
:102840000C682C4322F002058A682A430A4DA842EC
:102850000BD122F00805CA6823F440732A434D695E
:1028600022F004021D438B692B4343608461496855
:102870004163026230BD00000000014030B5026AD1
:1028800022F010020262026A436884690D6824F42F
:10289000E64444EA05248D6822F0200242EA05124B
:1028A0000B4DA8420ED1CD6822F0800242EA0512FB
:1028B0004D6923F4406343EA85038D6922F04002A9
:1028C00043EA85034360846149688163026230BDE5
:1028D0000000014030B5026A22F480720262036A8D
:1028E0004268C46923F4007324F073050C682C4318
:1028F0008D6843EA05230C4DA8420ED1CD6823F420
:10290000006343EA05234D6922F4405242EA05126E
:102910008D6923F4806342EA05124260C46149680C
:10292000C163036230BD00000000014030B5026A9F
:1029300022F480520262046A4268C3690D6823F47B
:10294000E64343EA05238D6824F4005444EA053441
:10295000064DA84204D14D6922F4804242EA851214
:102960004260C36149680164046230BD00000140F7
:1029700010B5806B0021C185C184FEF75FFF10BDDB
:1029800001680C3151E8002F22F4907241E80023D5
:10299000002BF5D10168143151E8002F22F001021B
:1029A00041E80023002BF5D1016B012909D1016811
:1029B0000C3151E8002F22F0100241E80023002BD7
:1029C000F5D1202180F83E1000210163704708B541
:1029D00090F83E10222901D0022008BD82684FF4F1
:1029E00080539A4201D1016921B1816A9A421BD078
:1029F0004AB10AE00268816A5268C2F308020A809A
:102A0000816A891C08E0026972B10268526802F0AA
:102A10007F020A70816A491C8162C18D491E0904C6
:102A2000090CC18503D019E002685268F1E701681A
:102A3000CA6822F02002CA600168CA6822F4807263
:102A4000CA6001684A6922F001024A61202180F8C7
:102A50003E10016B012903D0FFF7BCF8002008BD30
:102A60000021016301680C3151E8002F22F01002AF
:102A700041E80023002BF5D101680A68D20602D58F
:102A80000A6849680091818DFEF7D7FEE6E70000ED
:102A900070B5044600680169E26821F440511143B1
:102AA00001612169A068E269084361691143084333
:102AB0002168CA6849F20C639A430243CA602068DD
:102AC0004169A26921F44071114341613149206893
:102AD000884202D03049884202D1FEF78FFA01E0E5
:102AE000FEF77CFAE2690023192164253226B2F54B
:102AF000004F626828D0A0FB0101930F9200FDF700
:102B0000C9FB0146B0FBF5F06FF01802504301EB32
:102B1000800006EB0010B0FBF5F000F0F002B1FB16
:102B2000F5F002EB0012B1FBF5F06FF0180358431B
:102B300001EB800006EB0010B0FBF5F000F00F0099
:102B400021681044886070BDA0FB010192185B41B0
:102B5000FDF7A0FB0146B0FBF5F00201B1FBF5F07B
:102B60006FF01803584301EB800006EBC000B0FB88
:102B7000F5F000F0F80002EB4002B1FBF5F058432D
:102B800001EB800006EBC000B0FBF5F000F00700A1
:102B9000D6E7000000100140001401402DE9F0418B
:102BA000984617460E460446069D27E0681C25D029
:102BB0002DB1FDF7B3FDA0EB0800A8421ED9206897
:102BC0000C3050E8001F21F4D07140E80012002AB8
:102BD000F5D12068143050E8001F21F0010140E8D1
:102BE0000012002AF5D1202084F83D0084F83E0030
:102BF000002084F83C000320BDE8F08120680068D4
:102C000036EA000004D00020B842CFD00020F3E71D
:102C10000120F9E70148FEF713BE0000F40300208D
:102C20000148FEF70DBE0000380400207047FEE7A3
:102C30000FB4054B10B503A9044A029800F028F818
:102C400010BC5DF814FB0000A1390008B80000209A
:102C50000907090E002804DB00F1E02080F80014C9
:102C6000704700F00F0000F1E02080F8141D70475D
:102C700002E008C8121F08C1002AFAD17047704745
:102C8000002001E001C1121F002AFBD170470000A3
:102C90002DE9FF4F8DB00F460546002606E025289A
:102CA0000BD0DDE90F1290476D1C761C28780028A8
:102CB000F5D111B03046BDE8F08F0024A246A14600
:102CC0000122E94900E0044315F8013F203B02FAE4
:102CD00003F00842F7D128782A2810D06FF02F028D
:102CE0002878A0F13001092914D80AEB8A0102EBF7
:102CF000410144F0020400EB010A6D1CF0E701CF32
:102D00005FEA000A03D544F40054CAF1000A44F013
:102D100002046D1C28782E2817D115F8010F44F0F5
:102D200004042A280ED06FF02F022878A0F1300179
:102D300009290AD809EB890102EB410100EB0109DD
:102D40006D1CF2E757F8049B6D1C28786C280FD097
:102D500006DC4C2817D068280DD06A2814D104E06E
:102D6000742810D07A280FD10DE044F400140AE042
:102D700044F4801401E044F440146978814202D1A3
:102D800004F580146D1C6D1C28786E281ED00CDC98
:102D9000632830D004DC00288BD0582811D19FE064
:102DA000642867D069280CD164E073282DD004DC36
:102DB0006F2872D0702804D194E075286ED07828DE
:102DC0006DD0DDE90F129047761C4BE1C4F3025041
:102DD000022806D0032809D0042801CF09D00660B4
:102DE00040E101CFF117C0E900613BE101CF06806E
:102DF00038E1067036E117F8040B8DF8000000206A
:102E00008DF80100EB46012003E057F804BB4FF0BA
:102E1000FF3061074FF0000102D40DE008F101011D
:102E2000884649450FDA8045F8DB1BF80810002971
:102E3000F4D108E008F1010188468142FADB1BF871
:102E400008100029F6D1DDE90F23AAEB080081461E
:102E5000214600F031F9304400EB080604E0DDE9DA
:102E60000F121BF8010B9047B8F10108F7D2214669
:102E70004846F2E00A21C4F302524FF0000B0891D9
:102E8000022A04D001CFC117032A09D00AE0FF1D8E
:102E900027F00707F7E8020108E02CE01EE01FE03A
:102EA00000B2C117042A01D140B2C117021E71F14C
:102EB000000206DA0023D0EB030063EB01012D22B0
:102EC00002E0220504D52B228DF82420012203E004
:102ED000E20701D02022F7E7904653E00A210BE0F9
:102EE000102109E010214FF0000B44F004044FF0D2
:102EF0000809089103E008214FF0000B0891C4F382
:102F00000252022A04D001CF0021032A06D006E093
:102F1000FF1D27F00707F7E8020103E080B2042A4B
:102F200000D1C0B24FF0000822072BD52A78702AB2
:102F300007D0DDF820C08CF0100C5CEA0B0C05D03B
:102F40000EE040228DF82420012208E050EA01031F
:102F500006D030238DF824308DF8252002229046AB
:102F6000089B83F0080353EA0B030BD150EA0102DC
:102F700001D1620706D530228DF824204FF00108D8
:102F8000A9F101092A78582A04D038A20B9208AA7C
:102F90000A920BE03AA2F9E75B46089AFDF77AF944
:102FA0000B9B9B5C0A9A521E0A92137050EA010214
:102FB000F2D10A98ADEB000000F1200B600702D5BA
:102FC00024F4803401E04FF00109D94502DDA9EB7A
:102FD0000B0000E0002000EB0B0141440890AAEB3D
:102FE000010AE00306D4DDE90F232146504600F034
:102FF00063F806444FF0000908E009A911F8090038
:10300000DDE90F12904709F10109761CC145F4DB97
:10301000E0030CD5DDE90F232146504600F04CF8C3
:10302000064404E0DDE90F1230209047761C089931
:10303000481E08900029F5DC08E00A980A990078F3
:10304000491C0A91DDE90F129047761CBBF1000183
:10305000ABF1010BF1DC21465046DDE90F2300F016
:1030600019F806446D1C21E609280100303132337D
:1030700034353637383961626364656600000000B4
:10308000303132333435363738394142434445469E
:10309000000000002DE9F041044600251E461746B9
:1030A000880404D405E039462020B0476D1C641E16
:1030B000F9D52846BDE8F0812DE9F0410446002508
:1030C0001E469046C80301D5302700E0202788041B
:1030D00004D505E041463846B0476D1C641EF9D55D
:1030E0002846BDE8F0810000FEB506460D460024E6
:1030F000684600F061FC00229FED1B1A6B4601211F
:1031000056F8227055F82200381A00D5404200EED9
:10311000100A03EB8200B8EEC00AD0ED000A20EEE0
:10312000010AF5EEC00AF1EE10FA0DD0C0EE201A39
:10313000B7EE000A0D4F31EEC00AB0EEC00A10EE35
:10314000100AB84207DC09E010EE100A084F3844B4
:10315000084FB84202D301FA02F00443521C032A7A
:10316000CEDB2046FEBD000000008037295C0F3E0C
:10317000666666C19A99D90008B560B120208DF8BD
:10318000000028208DF8010030208DF80200382042
:103190008DF8030004E0A32204216846FDF7EEF851
:1031A0006A46042140F69E2001F0A8FC01F066F971
:1031B00008BD00003EB5044602208DF80000CA207C
:1031C0008DF80100E3208DF8020009208DF803003E
:1031D0006A460421682001F091FCA3208DF80000CC
:1031E000610609D5C0218DF80110C8218DF80210A3
:1031F000C2218DF8031005E08DF801008DF8020062
:103200008DF8030014F4C07F09D0C4218DF8041098
:10321000CC218DF80510C6218DF8061005E08DF83B
:1032200004008DF805008DF806008DF808008DF873
:1032300007008DF809006A460A2140F6A72001F030
:103240005DFCA0074FF0D80503D020208DF80000CA
:1032500001E08DF800506A46012140F6B62001F0E9
:103260004DFCA00601D5012000E0002000F08EF802
:1032700014F4C07F1ED0E0050AD5B2208DF80000FE
:103280008B208DF80100B6208DF802009B2009E00C
:10329000B0208DF8000080208DF80100B4208DF85A
:1032A000020090208DF803006A46042140F6A22017
:1032B00001F024FCE1074FF40B6022D0F8218DF8D7
:1032C00000106A46012101F019FCFA21072000F0E4
:1032D00097FA072000F062FA012000F07FFA6420DC
:1032E00000F03EFB4FF4FA7000F04AFBC82125487D
:1032F00000F01CFA282000F031FA0A2000F03EFA13
:1033000005E08DF800506A46012101F0F7FBA007A7
:1033100003D5D9208DF8000001E08DF800506A46F1
:10332000012140F23D7001F0E9FB600701D5012069
:1033300000E0002000F048F8E00601D5012000E0A0
:103340000020FFF719FF104D44F00800688101F0DC
:1033500095F80020A873600601D50620A87314F420
:10336000C07F02D0A87B801DA87314F0140F02D078
:10337000A87B1030A873A00702D0A87B001DA873FB
:1033800000203EBD09E3CA02FC0800200EB54FF440
:10339000976310B106A107C901E008A207CA8DE82A
:1033A00007006A460921184601F0A8FB0EBD00007F
:1033B000B8AAB38DB4980D355D000000B8AAAAAACA
:1033C000B088C3C5C700000008B560B1C0208DF843
:1033D0000000C2208DF80100C4208DF80200C62034
:1033E0008DF8030004E08B2204216846FCF7C6FF39
:1033F0006A46042140F6982001F080FB01F03EF877
:1034000008BD0000C8234FF48062024940F6F63040
:1034100000F05EBFA45700082DE9FF41044603A851
:1034200000F006FEBDF80C00410CC3032F480089D4
:1034300000F0030254F82250420700D56D42C0F359
:10344000C102860654F8222000D55242C0F38116EC
:10345000C00554F8264000D56442A5FB0367E81771
:1034600000FB037005FB0100850045EA9670A2FB96
:103470000367D51705FB037502FB0152950045EA6A
:103480009672A4FB0367E51705FB037304FB013188
:103490008B0043EA9671030E8DF80030030C8DF813
:1034A0000130030A8DF802308DF80300100E8DF8FC
:1034B0000400100C8DF80500100A8DF80600080EA7
:1034C0008DF80800080C8DF80900080A8DF80A002C
:1034D0008DF807208DF80B106A460C214FF42570EB
:1034E00001F00CFB04B0BDE8F0810000FC080020F6
:1034F00030B5044613A285B007CA8DE807004FF027
:10350000FF35C82C16D8C820B0FBF4F1491E080AB4
:103510008DF80C008DF80D1003AA022140F2162040
:1035200001F0ECFA30B96A460C2140F6C12001F0F6
:10353000E5FA10B1284605B030BD05488481002069
:10354000F9E70000FEF2ABC4AAF1DFDFBBAFDFDFBB
:10355000FC080020F8B53049098901F0030250F851
:1035600022404A0700D56442C1F3C1028B0650F8DD
:10357000222000D55242C1F3811350F82330C805F0
:1035800000D55B42254984FB0140850045EA9470E3
:1035900082FB0142A40F44EA820483FB0121950FC0
:1035A00045EA8105010E8DF80010010C8DF801101F
:1035B000010A8DF802108DF803006A4604214FF4C9
:1035C000747001F09BFA4FF0FF3688B9200E8DF829
:1035D0000000200C8DF80100200A8DF802008DF803
:1035E00003406A4604214FF4757001F087FA08B170
:1035F0003046F8BD280E8DF80000280C8DF801002B
:10360000280A8DF802008DF803506A4604214FF411
:10361000767001F073FAF8BDFC08002009E3CA02D5
:103620002DE9FF4104463CA004F00303006802902A
:103630003AA0006803903AA006683AA0056802A87C
:10364000C15C8DF80010C4F3C101425C8DF801200B
:10365000C4F38112805C8DF8020003A8C35C8DF86E
:103660000430415C8DF80510805C8DF806006A46D8
:10367000032140F2264001F041FA4FF0FF37E0BB52
:1036800001AA032140F22A4001F038FAA8BBCDE993
:10369000006560070BD59DF8000040F001008DF833
:1036A00000009DF8040040F001008DF80400A00621
:1036B0000BD59DF8010040F001008DF801009DF848
:1036C000050040F001008DF80500E0050BD59DF8E0
:1036D000020040F001008DF802009DF8060040F065
:1036E00001008DF806006A4603214FF4886001F05E
:1036F00005FA10B901AA032100E004E040F23140CC
:1037000001F0FCF918B1384604B0BDE8F081064874
:1037100004810020F8E700004CCD6C000CC92C009F
:103720003656760026466600FC0800204FF47A7272
:1037300090FBF2F008B54843010E8DF80010010C23
:103740008DF80110010A8DF802108DF803006A4609
:1037500004214FF4AE7001F0D1F908BD0521B0FB92
:10376000F1F008B5010A8DF800108DF801006A46E5
:1037700002214FF4AD7001F0C1F908BD0521B0FB85
:10378000F1F008B5010A8DF800108DF801006A46C5
:1037900002214FF4AC7001F0B1F908BD08B5002169
:1037A0008DF80010C10702D030218DF8001081077C
:1037B00005D59DF8001041F00C018DF80010400770
:1037C00005D59DF8000040F003008DF800006A4622
:1037D00001214FF4A47001F091F908BD08B560B162
:1037E000042800D90420401E8DF800006A460121FB
:1037F00040F24F1001F082F908BD0120F3E700000C
:1038000070B504462DED028B82B040074FF0FF35B6
:103810007ED0B1F5C86F7BD800EE101AB8EE400A22
:10382000DFED460A01A880EE208A00F0E3FB9DF858
:103830000400022806D0042810D0082835D010280B
:1038400074D13EE09FED3E0A28EE000ABCEEC00AAD
:1038500010EE100A9FED3B0A82B20AE09FED3A0A91
:1038600028EE000ABCEEC00A10EE100A9FED370ADF
:1038700082B228EE000A6E46BCEEC00A10EE100AB4
:1038800081B2100A8DF800008DF80120080A8DF829
:1038900002008DF80310E00726D0324602214FF4D3
:1038A000EA7001F02BF998BB17E09FED290A28EE8A
:1038B000000ABCEEC00A10EE100A9FED260A82B282
:1038C000D7E79FED250A28EE000ABCEEC00A10EEED
:1038D000100A9FED220A82B2CBE7B21C02214FF4FC
:1038E000927001F00BF998B9A0070DD56A46022134
:1038F0004FF4EC7001F002F950B9B21C02214FF400
:10390000947001F0FBF818B9600714D56A4600E01E
:103910000CE002214FF4EE7001F0F0F830B9B21C67
:1039200002214FF4967001F0E9F820B1284602B068
:10393000BDEC028B70BD0020F9E700000000484399
:103940000000804600004046000000460000C045E0
:103950000000804500004045000000450000C044D4
:103960000521B0FBF1F008B5010A8DF800108DF8C3
:1039700001006A4602214FF4EF7001F0BFF808BD64
:103980000521B0FBF1F008B5010A8DF800108DF8A3
:1039900001006A4602214FF4ED7001F0AFF808BD56
:1039A00013B54FF6FF73012269460248FEF714F97A
:1039B00000981CBDF40300201FB50446274802AB45
:1039C000042240680D210078FEF7F8FB10B10720B3
:1039D00004B010BD9DF808101C2000EAD1029DF82B
:1039E0000B10DFED1F0AC1F301131A438DF80020FD
:1039F0009DF80920C1F3810300EAD2021A438DF831
:103A000001209DF80A2001F0030100EAD2000843DA
:103A10009FED141A9FED140A8DF8020000216A46EA
:103A2000505C002804EB810002D080ED001A09E010
:103A3000C0ED000A0CE000BFD0ED001A61EE801A64
:103A4000C0ED001A535C5B1E13F0FF035354F3D117
:103A5000491CC9B20329E3D30020B9E718000020AC
:103A6000000000007B14AE3E1D5A843F2DE9FE4F3E
:103A700005460120C14E8DF800004FF000088DF87A
:103A8000018030680C461746817C70686B460222C4
:103A90000078FEF7F3FB4FF0FF3A00287AD1C820F8
:103AA000FCF71EFD8DF8008030686B460122C17B5B
:103AB00070680078FEF7E2FB0028EFD130686B46B3
:103AC0000122417970680078FEF7D8FB0028E5D123
:103AD00030686B460122817C70680078FEF7CEFB6F
:103AE0000028DBD130686B460122C17D7068007808
:103AF000FEF7C4FB0028D1D130686B460122017962
:103B000070680078FEF7BAFB0028C7D14FF00C09A7
:103B10008DF8009030686B4601220179706800785A
:103B2000FEF7ACFB002835D10F20FCF7D9FCB06ABA
:103B30006B460122407A8DF8000030688178706809
:103B40000078FEF79BFB002824D1B06A6B46012267
:103B5000007A8DF800003068417870680078FEF7D0
:103B60008DFB002873D1B06A807A0FB140F0E0007D
:103B70008DF8000030686B4601228179706800780A
:103B8000FEF77CFB002862D12FB1B06AC07A40F00A
:103B9000E00001E04AE018208DF8000030686B4634
:103BA0000122C17970680078FEF768FBF0BB17B19D
:103BB000C820FCF795FC40208DF8000030686B466B
:103BC0000122017970680078FEF758FB70BB7820FD
:103BD0008DF8000030686B460122417970680078EA
:103BE000FEF74CFB10BB3220FCF77AFC8DF800800E
:103BF000306847466B464179706801220078FEF7CD
:103C00003DFB98B931687068B046897A00786B4698
:103C10000222FEF7D3FA48B9BDF80000AF6040BAFF
:103C2000B0FBF9F06F60C6B22F6000E00FE0A76054
:103C300067602760002739E0D8F80010D8F8040042
:103C40006B46C97A00780C22FEF7B8FA10B15046DC
:103C5000BDE8FE8FBDF80000236840BA00B2BDF891
:103C60000210BDF804201844206049BA606809B207
:103C70000844606052BAA06812B21044A060BDF857
:103C800006002B6840BA01B2BDF80800BDF80A2052
:103C90001944296040BA696800B20844686052BAA1
:103CA000A86812B210447F1CFFB2A860B742C3D309
:103CB00028688322C117090441EA10410004002347
:103CC000FCF719FB32460023FCF715FB28606868F7
:103CD0008322C117090441EA104100040023FCF7C4
:103CE0000AFB32460023FCF706FB6860A8688322C3
:103CF000C117090441EA104100040023FCF7FBFA54
:103D000032460023FCF7F7FAA86020684FF40065FC
:103D1000C117090441EA104100042A460023FCF7B8
:103D2000EAFA32460023FCF7E6FA206060682A4689
:103D3000C117090441EA104100040023FCF7DBFA33
:103D400032460023FCF7D7FA6060A0682A46C11704
:103D5000090441EA104100040023FCF7CCFA324682
:103D60000023FCF7C8FAA060002802DDA0F580302F
:103D700001E000F58030A060002069E71800002015
:103D8000F8B506462E480D46002440686B460322CF
:103D900000780D21FEF712FA08B10720F8BD9DF852
:103DA0000000002200F01F008DF800009DF80100C7
:103DB0009FED241A00F01F008DF801009DF802000D
:103DC0006B4600F01F008DF80200012156F822001A
:103DD00055F82270C01B00D5404200EE100A985CD6
:103DE000B8EEC00A60EE010AD0B1B3EE090ADFED09
:103DF000161A01E020EE210AC0B2401E10F0FF00AA
:103E00009854F7D1C0EE801AB7EE000A0F4F31EE8A
:103E1000C00AB0EEC00A10EE100AB84207DC09E092
:103E200010EE900A0A4F3844B0F1D97F02D901FA56
:103E300002F00443521C032AC8DB2046F8BD0000F0
:103E4000180000200000803754E3853F295C0F3EB6
:103E50000000E0BE00B5024600F00DF80346D01C9D
:103E600000F009F843EAC003901D00F004F843EAAB
:103E7000801080B200BD90F90010002902DD4FF0E3
:103E80000000704702DA4FF00400704790F901100B
:103E9000002902DD4FF00100704702DA4FF0050003
:103EA000704790F90200002802DD4FF002007047D1
:103EB00002DA4FF0060070474FF007007047FCF73A
:103EC0005DFFFEF711FCFEF7FFF9FEF7E9FAFEF7DA
:103ED00003FBFEF769FAFEF7A3FAFEF785FAFEF791
:103EE0000BF9FEF72DFBFEF7A1FEFEF7D9F900F066
:103EF00036FEFEE701460020842900D0C81C70472A
:103F00002DE9F041124C20F00101002594F8240025
:103F100010B10020BDE8F081A07A4FF0FF3668B103
:103F20000840277C2074884200D0354641B10120EA
:103F300001F0B2F800F0A2FA38B127743046E9E790
:103F4000207D00B1012001F0A7F82846E2E700003B
:103F50001800002010B500F0F7F888BB782000F0BA
:103F600071FD10F0FF0F01D0012010BD7820FFF788
:103F7000C7FF10F0FF0F01D0022010BD642000F039
:103F800021FD10F0FF0F01D0032010BDFFF73AFA1A
:103F900010F0FF0F01D0042010BD1548FFF75AFFA5
:103FA000FFF73EFB10F0FF0F01D0052010BD40F2DF
:103FB0007310FFF7FFF810F0FF0F02D0062010BDBE
:103FC00014E06420FFF794FA10F0FF0F01D00720EF
:103FD000F5E701F01DF808B10820F0E7012000F036
:103FE00017FC10F0FF0F01D00920E8E70020E6E7FA
:103FF000440000200D494A7A42B1012A08D0022A21
:104000000FD0032A0FD04FF0FF307047022200E09C
:1040100004220270C97C11B11106C90D0170002083
:1040200070470822F5E71022F3E70000180000208F
:104030000F494A7A42B1012A09D0022A11D0032A33
:1040400012D04FF0FF3070474FF4804201E041F64C
:104050009C720280C97C11B1C2F34E010180002024
:1040600070474FF48052F4E74FF40062F1E700002C
:10407000180000200B49097A39B1012907D002291B
:104080000AD003290BD0002103E0FA2101E04FF40C
:10409000FA710180002070474FF47A71F9E74FF40C
:1040A000FA61F6E7180000200D49097A41B10129AB
:1040B00009D002290DD003290ED04FF0FF307047F0
:1040C0009FED080A01E09FED080A80ED000A00203C
:1040D00070479FED060AF8E79FED050AF5E7000037
:1040E00018000020000003430000834233330342E2
:1040F000333383410C49C97A072913D2DFE801F031
:104100001204060A0C0E1000BC2100E0622101809E
:10411000002070472A21FAE71421F8E70A21F6E780
:104120000521F4E70021F2E718000020054991F885
:10413000242012B14FF0FF307047C9890180002060
:1041400070470000180000202DE9FC414C4C8020F5
:104150008DF8000020686B460122817C6068007841
:10416000FEF78CF84FF0FF37002832D16420FCF7BF
:10417000B7F900258DF8005020686B460122817C3C
:1041800060680078FEF77AF8002870D120686B46E6
:104190000622817D60680078FEF710F8002866D15D
:1041A0009DF805009DF80310C007400F01F00101C4
:1041B00040EA41019DF801004FF0010600F00100C6
:1041C000014309D0012905D0022915D02DA0FEF701
:1041D0002FFD4CE0E67410E020686B460122C178A8
:1041E00060680078FDF7EAFF40BB9DF8000010F022
:1041F0000F0020D0042822D0E574FF2004F80A0F15
:104200004FF6FF7104F8020C04F8010C6070A180F5
:10421000A0712072A67026766576E572A572E560BB
:1042200025616561A576E576A5834FF4FA6000F017
:104230002BFB18B907E01D48FEF7FAFC17E01CA09D
:10424000FEF7F6FCC6E7022000F040FA78B92A2013
:1042500000F082FB58B9322000F0B4FB38B90020DE
:10426000FFF74EFE18B9002000F064FA10B138468E
:10427000BDE8FC81002000F0E5FB0020F8E700002D
:1042800018000020556E737570706F72746564202D
:10429000736F6674776172652070726F6475637492
:1042A000207265762025642E0A000000A8630008AD
:1042B00048616C662073656E736974697669747998
:1042C000207061727420666F756E642E0A000000A3
:1042D0002DE9FF4FDFF89480064685B098F8250059
:1042E00015460F464FF0FF39B0BBAFB3002420E0B6
:1042F000301B102800DD102080B283463A19014699
:104300009246204600F0FAFB30BB6A4659462046EA
:1043100000F08AF800BB50465A466946FCF740F860
:1043200020B16FF0010009B0BDE8F08F04EB0B0085
:1043300084B2B442DCD3280A8DF810008DF81150F5
:10434000D8F80000444604AB817ED8F8040002226D
:104350000078FDF793FF08B14846E4E7012084F8B0
:1043600025000898E0840020DDE700001800002008
:104370002DE9F84305464FF0FF39282844D8072790
:10438000284C00267DB1012000F0B4FA20208DF8E1
:1043900000004FF00108012D17D0052D18D88DF819
:1043A000018005201FE0002000F0A4FA8DF80060D5
:1043B0008DF8017020686B460222817C606800786D
:1043C000FDF75CFF00BB267529E08DF80160E8E78A
:1043D000142D04D802208DF801000A2003E00320E8
:1043E0008DF80100142000F0B7FA9DF801006B462B
:1043F00007EB80108DF8010020680222817C606844
:104400000078FDF73BFF10B14846BDE8F88308206F
:10441000A072267384F814800020FFF771FD00203D
:10442000F3E7000018000020F8B516000D464FF025
:10443000FF371FD0104CA17AE1B1010A8DF80010AE
:10444000C0B28DF80100411960684289914211D8CB
:10445000216800786B46097E0222FDF70FFF48B9FC
:104460002068EAB23346417D60680078FDF7A6FE19
:10447000002800D03846F8BD18000020F8B5564C8A
:104480004FF0FF36A07A00287DD000258DF800502F
:1044900020686B460122C17B60680078FDF7EEFE64
:1044A000002870D120686B4601224179606800784D
:1044B000FDF7E4FE002866D120686B4601220179F1
:1044C00060680078FDF7DAFE00285CD194F82400DB
:1044D000E0B30C208DF8000020686B4601220179C2
:1044E00060680078FDF7CAFE002872D13220FBF721
:1044F000F7FFC0208DF80000A07AC00702D0E020AE
:104500008DF8000020686B46012201796068007810
:10451000FDF7B4FE00285CD1607C18B102208DF854
:10452000000001E08DF8005020686B460122C17B3D
:1045300060680078FDF7A2FE28BB8DF80050206867
:104540006B4601224179606800783EE0FFE7042075
:104550008DF8000020686B460122017960680078C0
:10456000FDF78CFE78B9A07C90B9A07AC0070FD077
:104570005FF060008DF8000020686B460122017931
:104580006068007800E024E0FDF778FE08BB01E0F9
:104590004020EFE73220FBF7A3FF607C18B1012039
:1045A0008DF8000001E08DF8005020686B46012274
:1045B000C17B60680078FDF761FE50B92068064B4A
:1045C00001224179606810330078FDF757FE00281A
:1045D00000D03046F8BD0000180000202DE9F0475B
:1045E000394C82468AB094F824000F4620B100204E
:1045F00000F00EF9012600E0002607A8FFF73AFDBB
:1046000006A8FFF7F7FC09A8FFF774FD08A8FFF755
:104610008DFD94F80A9094F8108000250022394608
:104620005046FFF723FA10B16D1C022DF6DB022D68
:104630001AD00025012203A96846FFF717FA10B126
:104640006D1C022DF6DB022D0ED003A93846FEF7B5
:104650004BFDC7B269465046FFF792FB10F0FF0FC3
:104660004FF0000502D002E0002503E001250FB95C
:1046700045F00205FF2020726072E0724FF6FF7174
:10468000E181A072207401202073BDF81C0000F0AD
:10469000FBF89DF8180000F019F8BDF8240000F0B0
:1046A0005BF9BDF8200000F08DF9484600F0CAF92A
:1046B0004046FFF725FC16B1012000F0A9F80AB02A
:1046C0002846BDE8F08700001800002038B5184CD7
:1046D0004FF0FF35A17A19B3022806D0042806D07E
:1046E00008280ED010281BD10DE0002000E0082083
:1046F0008DF80000607A9DF80010B0EBD10F04D067
:1047000005E01020F4E71820F2E7002038BD20680B
:104710006B460122C17960680078FDF7AFFD08B1F2
:10472000284638BD9DF80000C0086072EDE7000023
:1047300018000020F8B5354C0546A07CA84201D1F0
:104740000020F8BD31484FF0FF366B46D0E900102D
:104750004FF001020979007835B3FDF72FFD70BBEA
:104760009DF800006B4620F020008DF800002068C6
:104770000122017960680078FDF780FDF8B9032017
:10478000FBF7AEFE02208DF8000094F8220078B30B
:1047900082202BE020686B460122017D6068007852
:1047A000FDF76CFD58B92EE0FDF708FD38B9A07A89
:1047B000C0079DF8000003D040F0200002E00CE0AC
:1047C00020F020008DF8000020686B46012201795E
:1047D00060680078FDF752FD08B13046F8BD03204F
:1047E000FBF77EFE94F8220000B180208DF80000D7
:1047F00094F823000028CDD09DF8000040F0300050
:104800008DF80000C6E7A5749AE7000018000020A4
:1048100038B51C4C94F8241081421DD0002500B3FB
:1048200094F82500D0B1002000F036FC0020FFF7FE
:1048300081FFE08C00F0C6F88DF8005060686B4690
:10484000012200782321FDF719FD012084F82400BE
:1048500000F022FCFFF712FE002038BD4FF0FF30C1
:1048600038BD002000F018FC207C8DF80000606846
:104870006B46012200782321FDF700FD84F82450C7
:10488000E8E700001800002038B5194C4FF0FF355C
:10489000A17A31B3FA2809D0B0F5FA7F08D0B0F583
:1048A0007A7F0FD0B0F5FA6F1BD10DE0002000E049
:1048B00008208DF80000207A9DF80010B0EBD10F91
:1048C00004D005E01020F4E71820F2E7002038BDFE
:1048D00020686B460122817960680078FDF7CEFC84
:1048E00008B1284638BD9DF80000C0082072EDE7E9
:1048F0001800002038B5174C054694F82300A8424C
:1049000001D1002038BD0DB1302000E000208DF82D
:104910000000A07C28B19DF8000040F002008DF856
:10492000000094F8220028B19DF8000040F08000BB
:104930008DF8000020686B460122017D60680078D8
:10494000FDF79CFC10B14FF0FF3038BD84F82350C8
:10495000D7E700001800002038B5194C4FF0FF359C
:10496000A17A31B3BC2801D3012010E0622801D321
:1049700002200CE02A2801D3032008E0142801D3E8
:10498000042004E00A2801D3052000E006208DF869
:104990000000E07A9DF80010884201D1002038BD67
:1049A00020686B460122817860680078FDF766FC1C
:1049B00008B1284638BD9DF80000E072EEE700001F
:1049C00018000020F8B51E4D04464FF0FF37A87AB6
:1049D00048B395F8240030BB287D4FF47A7648B16F
:1049E00064B1282C03D8E0B2FFF7C2FC26E0002017
:1049F000FFF7BEFC042C05D2042406E00020FFF7DC
:104A0000B7FCF9E7B44200D93446B6FBF4F0401ED7
:104A10008DF8000028686B460122417868680078AC
:104A2000FDF72CFC08B13846F8BD9DF80000401C8D
:104A3000B6FBF0F0E8814008FFF78EFF0020F8BDDC
:104A400018000020F8B5054610F0700F4FF0000672
:104A500001D0012004E015B18DF8006002E0402093
:104A60008DF80000244C6B4601222068817C606830
:104A70000078FDF703FC4FF0FF3760BB9DF80000A6
:104A800020F0400020738DF80060680602D40420F6
:104A90008DF80000A80605D49DF8000040F0020043
:104AA0008DF80000E80605D49DF8000040F00100F4
:104AB0008DF80000280705D49DF8000040F038006C
:104AC0008DF8000020686B460122C17C6068007888
:104AD000FDF7D4FB10B1A6723846F8BD25B1082DFC
:104AE00002D00020FFF706FFA57226753220FBF7E3
:104AF000F7FC0020F8BD000018000020F8B51600F3
:104B00000D464FF0FF371FD0104CA17AE1B1010ADA
:104B10008DF80010C0B28DF801004119606842891B
:104B2000914211D8216800786B46097E0222FDF778
:104B3000A5FB48B92068EAB23346417D6068007839
:104B4000FDF79CFB002800D03846F8BD1800002077
:104B500010B500B9012000F093FB002010BD10B586
:104B600000F0B4FB002010BD7FB50D46044641693E
:104B7000B0F9080081B1A16971B1FFF7BBF9D4E9BF
:104B800005128DE80700D4E900102B46226900F0D9
:104B9000C6FC039004B070BDFFF7ACF903A9CDE9E2
:104BA0000001208A2B4682B2D4E9001000F08AFC72
:104BB000012801D00020EDE70398EBE72DE9F04153
:104BC000184C0F460546E6682068001D00F090FA74
:104BD00038B9206890F82C10012088402169814361
:104BE0002161681C07D137B12168BDE8F0410E484A
:104BF000091D00F0C1BA20683544B54245602168FE
:104C000005D2A06BBDE8F041091D00F09DBA606BB4
:104C1000091D00F099FAA06A854200D2A562BDE89C
:104C2000F081000050000020E80900202DE9F0414B
:104C3000054600F0ADFA2E4CA068401CA06020682C
:104C40002C4F10B1606940B32DE02560A0680128A9
:104C500029D1002606EB860007EB800000F066FAFB
:104C6000761C072EF6D323488C3000F05FFA2148DB
:104C7000A03000F05BFA1F48B43000F057FA1D482E
:104C8000C83000F053FA1B48DC3000F04FFA1948E6
:104C90008C3060631430A06305E02068E96AC06A64
:104CA000884200D82560606A401C6062E96A012081
:104CB000226988401043206101EB810007EB8000EE
:104CC000291D00F059FA00F083FA606900280CD021
:104CD0002068E96AC06A884207D207494FF08050CD
:104CE0000860BFF34F8FBFF36F8FBDE8F081000006
:104CF000500000200C09002004ED00E010B504462F
:104D000090F8510058B101280CD002280FD0502043
:104D100080F31188BFF34F8FBFF36F8FFEE7206BD7
:104D200000F06AFA2046BDE8104000F065BA10BDF8
:104D300010484FF47051420706D0C01D0D4920F0B5
:104D40000700411AC1F570510B4A00230144C2E922
:104D500000030839183A21F0070111604B600B601D
:104D60000B1AC0E9001393604FF00040536050618C
:104D700070470000FC090020A4000020144E154CD0
:104D8000A6F1C8074FF08058DFF84C9012E000BF42
:104D900000F0FEF9F068C568281D00F0A9F9A068C8
:104DA000401EA0606068401E606000F011FA284656
:104DB000FFF7A4FF60680028EAD138680128F9D914
:104DC000C9F80080BFF34F8FBFF36F8FF2E7000089
:104DD000D40900205000002004ED00E02DE9F04748
:104DE0009A46DDE9098481466FF00303206B03EBEB
:104DF00082021044089E20F00707780707D0502051
:104E000080F31188BFF34F8FBFF36F8FFEE700254C
:104E100061B1002023180A5C83F834200A5C12B1C7
:104E2000401C1028F6D384F8435001E084F8345035
:104E3000072E00D30626E662C4E91165201D00F0A6
:104E400080F904F1180000F07CF92461C6F1070034
:104E50006462A061E56484F8505052464946384681
:104E600000F0C0F82060B8F1000F01D0C8F8004091
:104E7000BDE8F08730B5114900E011460A6882426A
:104E8000FBD34B685C18844203D1406818444860E7
:104E9000084643681C18944209D1084C183C246801
:104EA000A24209D052681A4442600A68126802603D
:104EB000814200D0086030BD0460F9E7A400002002
:104EC0000648416B096829B1416BC968C9684968DE
:104ED000816270474FF0FF31FAE700005000002078
:104EE00008484068401C4FF0500080F3118804D0FF
:104EF000BFF34F8FBFF36F8FFEE7BFF34F8FBFF34B
:104F00006F8FFEE7AC0000202DE9F0410546002739
:104F100000F012FA324E306808B9FFF709FF7069E5
:104F200005424ED1C5B3083568070ED005F007001D
:104F3000C0F108000544680707D0502080F31188AD
:104F4000BFF34F8FBFF36F8FFEE72DB370688542BD
:104F500037D82348183001460C6801E020460C463B
:104F60006168A94202D221680029F7D131688C42D8
:104F700027D007682168016060680837411B102945
:104F80000FD96019420708D0502080F31188BFF371
:104F90004F8FBFF36F8FFEE713E041606560FFF74F
:104FA00069FF61687068401A7060B268904200D210
:104FB000B060706901430020C4E90001F068401C42
:104FC000F06000F04BFB780707D0502080F3118889
:104FD000BFF34F8FBFF36F8FFEE73846BDE8F08118
:104FE0008C00002010B5031F4FF080741C601B1F45
:104FF00021F001011960191F044B0B6014390A607C
:10500000091F6FF0020244380A6010BDE14E00082B
:1050100000B589B002A905A8FFF7E0FA032802D07D
:10502000012009B000BD6846FFF73EF89DED050A76
:1050300005A8F8EEC00A9DED000A60EE800AFDEEBC
:10504000E00ACDED050ADDED060AF8EEE00A60EEB5
:10505000800AFDEEE00ACDED060ADDED070AF8EE66
:10506000E00A20EE800ABDEEC00A8DED070AFEF7C9
:1050700071FA01A8FEF7DCFFBDF804000299414374
:1050800002910399414303910499414302A8049179
:10509000FEF7C2F90020C4E7F8B5144C01462246D9
:1050A00094F82460D2E9000200235D1E56B179B164
:1050B000022111E0C17B10786B460122FDF7DEF87A
:1050C00068B90EE0A67A56B111B1617C61B902E00F
:1050D0008DF80030EEE701218DF80010EAE7284650
:1050E000F8BD9DF8000060740020F8BD1800002095
:1050F000D0E9013201699A60D0E901235A604A6817
:10510000824201D182684A60002202610868401E22
:105110000860086870470000034B036003F1540007
:105120000860802010607047BC00002000F108017A
:105130004FF0FF32C0E90112C1600161002101603E
:10514000704700210161704730B50B685A1C02D0CE
:1051500000F1080202E0026904E022465468256872
:105160009D42FAD953684B6099608A60516008612A
:105170000168491C016030BD42684A6093688B60D9
:1051800093685960916008610168491C016070472B
:10519000502080F31188BFF34F8FBFF36F8F0A4900
:1051A0004868401C486001280CD10848006810F08D
:1051B000FF0F07D0502080F31188BFF34F8FBFF34C
:1051C0006F8FFEE770470000AC00002004ED00E0A8
:1051D0000849486828B1401E486001D180F3118811
:1051E0007047502080F31188BFF34F8FBFF36F8F4C
:1051F000FEE70000AC00002070B500282AD0164D54
:10520000A0F1080460686969084207D1502080F362
:105210001188BFF34F8FBFF36F8FFEE722683AB15B
:10522000502080F31188BFF34F8FBFF36F8FFEE7DD
:105230008843606000F080F86068696808446860CE
:105240002046FFF717FE2869401C2861BDE8704022
:1052500000F004BA70BD00008C0000204FF0E02088
:1052600000210161816105494FF47A720968B1FB3F
:10527000F2F1491E416107210161704710000020D1
:1052800010B5020014D00F48006B38B1502080F3E5
:105290001188BFF34F8FBFF36F8FFEE700F04CF81C
:1052A00000211046FFF78AFC00F0D8F9002807D14A
:1052B00005494FF080500860BFF34F8FBFF36F8FE9
:1052C00010BD00005000002004ED00E010B586B0D5
:1052D0000024039405AA04A903A80494FFF71CFF63
:1052E000DDE903010094CDE9011000230EA110486F
:1052F000059A00F014F90F490028C86211D0502017
:1053000080F31188BFF34F8FBFF36F8F4FF0FF30E3
:10531000886201204861CC6006B0BDE8104000F012
:1053200041B806B010BD000049444C4500000000E3
:105330007D4D0008500000200248016B491C0163AC
:1053400070470000500000201448016B11B101218A
:10535000C16170470021C1610169B1FA81F1C1F1F8
:105360001F0101EB81020E4951F822306BB101EBB4
:10537000820101F108034A6852684A609A4201D1E9
:1053800052684A60D16801607047502080F31188EC
:10539000BFF34F8FBFF36F8FFEE700005000002078
:1053A0000C0900201CB537480168374A914207D1E3
:1053B000502080F31188BFF34F8FBFF36F8FFEE74C
:1053C00000683149491E884207D1502080F3118876
:1053D000BFF34F8FBFF36F8FFEE72C490878019022
:1053E000FF20087008788DF800009DF800009DF8F7
:1053F000002000F0F000904207D0502080F3118888
:10540000BFF34F8FBFF36F8FFEE79DF80000204C76
:1054100000F0500020700720A06005E09DF80020FB
:1054200052008DF80020401E9DF800201206F5D491
:10543000A060032807D0502080F31188BFF34F8F5E
:10544000BFF36F8FFEE74FF44070A06001980870C3
:105450000C482030016841F470010160016841F09E
:1054600070410160FFF7FAFE00206060FAF7C4FEA9
:105470000848016841F040410160FAF7A9FE0020A8
:105480001CBD000000ED00E071C20F4100E400E02F
:10549000AC00002034EF00E010B5502080F31188FC
:1054A000BFF34F8FBFF36F8F00F072F818B104494C
:1054B0004FF080500860002080F3118810BD00007C
:1054C00004ED00E02DE9FF5F8346DDE90E87994694
:1054D00016468A469000FFF717FD05001CD05420A1
:1054E000FFF712FD040014D00020256384F851005A
:1054F000CDE90240CDE900874B4632465146584639
:10550000FFF76CFC2046FFF791FB012004B0BDE8DB
:10551000F09F2846FFF770FE4FF0FF30F6E7F0B53A
:1055200085B0DDE90B640A9DA6B1DCB15427009774
:105530002663022684F85160002604AFCDE90246B6
:10554000CDE90057FFF74AFC2046FFF76FFB0498B0
:1055500005B0F0BD502080F31188BFF34F8FBFF32B
:105560006F8FFEE7502080F31188BFF34F8FBFF39A
:105570006F8FFEE70548416919B1006B18B1002033
:105580007047012070470220704700005000002043
:105590002DE9F0412F4C0026206B28B1A069401C5A
:1055A000A0613046BDE8F081E5686D1CE56013D16F
:1055B000606B006838B1502080F31188BFF34F8FC3
:1055C000BFF36F8FFEE7606BA16B6163A063206A1E
:1055D000401C2062FFF774FCA06ADFF87C808542E3
:1055E00009D3606B0068A0B1606BC068C768786859
:1055F000854211D2A0622068C06A00EB800158F891
:105600002100012800D90126E0690028C9D001261F
:10561000C7E74FF0FF30EDE7381DFFF769FDB86AC7
:1056200018B107F11800FFF763FDF96A012022693C
:1056300088401043206101EB810108EB8100391D96
:10564000FFF79AFDF86A2168C96A8842C9D3012622
:10565000C7E70000500000200C0900202DE9F047AA
:105660002C4D00242746286B38B1FFF791FD286B9D
:10567000401E2863286B40B146E0502080F311881B
:10568000BFF34F8FBFF36F8FFEE7A968224E012053
:10569000D1B3A6F1B40980463068E8B1F068C468B7
:1056A00004F11800FFF724FD201DFFF721FDE06A3B
:1056B0002A6908FA00F11143296100EB800109EB26
:1056C0008100211DFFF758FDE06A2968C96A8842F8
:1056D000E2D3C5F81C80DFE70CB1FFF7F1FBAC6942
:1056E00044B14646FFF754FF00B1EE61641EF9D1A4
:1056F0000020A861E86938B1084901273807086027
:10570000BFF34F8FBFF36F8FFFF762FD3846BDE8E1
:10571000F087000050000020C009002004ED00E0E8
:105720009C630008B1260008000000000000000093
:1057300080000000000000000000000000000000E9
:105740000000000001020304060708090000000031
:105750000102030475191A0C6A231B1C1F207274A2
:10576000433B4138393A6B6C376F06246D6E7000DD
:105770006800000476005401F7FD0001830000007A
:105780000008000000010018320005000000204160
:105790000000D242295C0F3E9A99993E3333733F01
:1057A000295C0F3E00007000000000240000000291
:1057B0000003000000650054FFEF0000FA80000BBA
:1057C00012820001030C30C30E8C8CE914D5400208
:1057D00013710F8E3883F8833000F883258EF88399
:1057E0003000F883FFFFFFFF0FFEA9D6240004005E
:1057F0001A8279A10000003CFFFF000000100000A9
:1058000038836FA2003E03304000000002CAE30963
:105810003E8000002000000000000000400000006A
:1058200060000000000C0000000C186E00000692E2
:105830000A16C0DFFFFF0256FD8CD377FFE1C49646
:10584000E0C5BEAA00000000FFFF0B2B00001657AA
:10585000000003594000000000001DFA00026C1D0A
:10586000000000003FFFDFEB003EB3B6000D2278E2
:1058700000002F3C00000000001942B5000039A2D2
:105880000000B365D90E9FC91DCF4C343000000015
:10589000500000003BB67AE80064000000C8000039
:1058A00000000000100000001000FA921000225EBC
:1058B000000D229F0001000000320000FF460000A2
:1058C00063D400001000000004D6000004CC0000E7
:1058D00004CC000000001072000000400000000036
:1058E00000000000000600020005000700000000A4
:1058F00000640000000000000000000500050064D6
:105900000020000000000000000000000000400037
:105910000000030000000032F8980000FF6500005E
:10592000830F0000FF9BFC0000000000000000004F
:105930000000000000000000000000000000000067
:105940000000000000000000000000000000000057
:105950000000100040000000000000060000B26AD5
:10596000000200000001FB830068000000D9FC0079
:105970007CF1FF830000000000650000006403E884
:1059800000640028000000250000000016A00000B0
:105990000000100000001000002F0000000001F4C3
:1059A0000000100000280000FFFF4581FFFFFA7291
:1059B0000000000000000000004400050005BAC619
:1059C000004778A20000000100000000000006006F
:1059D000000000140000254D002F706D000005AE82
:1059E000000C02D0000000000000000000000000D9
:1059F00000000000001B000000000000000000008C
:105A0000000000000064000000080000000000002A
:105A10000000000000000000000000000000000086
:105A20000000000000000000000000000000000076
:105A30000000000000000000000000000000000066
:105A40000000000000000000000000000000000056
:105A50000000000000000000000000000000000046
:105A600000000000001B000000000000000000001B
:105A7000000E000E00000AC7000400000000003203
:105A8000FFFFFF9C00000B2B000000020000000144
:105A900000000064FFE500000000000000000000BE
:105AA00000000000000000010000000000010000F4
:105AB0000000000000018000000180000001800063
:105AC000002426D3000000000000000000060010A3
:105AD0000096003C000000000000000000000000F4
