:020000040800F2
:10000000500A0020B1010008EF230008911B0008EE
:10001000ED23000839030008DB2A00080000000077
:100020000000000000000000000000008F25000814
:100030003B030008000000008D2500089125000802
:10004000CB010008CB010008CB010008CB01000860
:10005000CB010008CB0100083D030008CB010008DC
:10006000CB010008CB010008CB010008CB01000840
:10007000CB010008CB010008CB010008CB01000830
:10008000CB010008CB010008CB01000800000000F4
:10009000000000000000000000000000CB0100088C
:1000A000CB01000835260008CB010008CB01000871
:1000B000CB010008CB010008CB010008CB010008F0
:1000C000CB010008CB010008CB010008CB010008E0
:1000D000CB010008C12A0008CD2A0008000000005A
:1000E000CB010008CB010008CB0100080000000094
:1000F000000000000000000000000000CB0100082C
:1001000000000000CB010008CB010008CB01000873
:1001100000000000000000000000000000000000DF
:10012000CB010008CB010008CB010008CB0100087F
:10013000CB010008000000000000000000000000EB
:10014000000000000000000000000000CB010008DB
:10015000CB010008CB010008CB010008CB0100084F
:10016000CB010008CB0100080000000000000000E7
:10017000000000000000000000000000000000007F
:1001800000000000CB01000800000000000000009B
:10019000CB010008CB010008DFF810D000F0BAF85E
:1001A000004800476B3D0008AFF30080500A002074
:1001B0000648804706480047FEE7FEE7FEE7FEE701
:1001C000FEE7FEE7FEE7FEE7FEE7FEE7252600087E
:1001D000990100082DE9F05F0546002092469B46F4
:1001E00088460646814640241BE02846414647464D
:1001F000224600F07FF853465A46C01A914110D368
:1002000011461846224600F066F82D1A67EB0108E1
:100210004F4622460120002100F05DF817EB00094F
:100220004E41201EA4F10104DFDC484631462A4637
:100230004346BDE8F09F2DE9F0410024061B25460A
:1002400071F1000605DA01240027D0EB070067EB07
:100250000101161E73F1000605DA0027D2EB070232
:10026000012567EB0303FFF7B5FF86460E461746E9
:100270009C46AC4204D00025D0EB050E65EB010690
:1002800024B10020D2EB000760EB030C704631462E
:100290003A466346BDE8F081D2B201E000F8012B96
:1002A000491EFBD270470022F6E710B513460A46F6
:1002B00004461946FFF7F0FF204610BD30B504464E
:1002C0000020034600E05B1C934203D2E05CCD5C5F
:1002D000401BF8D030BD202A04DB203A00FA02F19E
:1002E000002070479140C2F1200320FA03F3194324
:1002F00090407047202A04DB203A21FA02F00021C6
:10030000704721FA02F3D040C2F120029140084325
:1003100019467047064C074D06E0E06840F00103BF
:1003200094E8070098471034AC42F6D3FFF738FF43
:100330007857000898570008FEE77047012000F042
:1003400071B872B6FEE72DE9F0410446876D00F002
:100350006BF9064694F835000025022806D0802067
:10036000606584F834500120BDE8F08120680168A0
:1003700021F0160101602068416921F0800141618E
:10038000206C08B9A06C20B12068016821F0080138
:1003900001602068016821F0010101600CE000F0BB
:1003A00043F9801B052807D920206065032084F8C5
:1003B000350084F83450D7E720680068C007EED1D4
:1003C00094F85C103F208840B860012084F8350024
:1003D00084F834500020C7E790F83510022903D084
:1003E0008021416501207047052180F835100068A3
:1003F000016821F0010101600020704770B50446DA
:1004000000F012F90546601C02D00448007804444C
:1004100000F00AF9401BA042FAD370BD0000002092
:1004200070470000044910B50A68024202D0086013
:10043000FFF7F6FF10BD0000143C01402DE9F84F16
:10044000DFF8B8A10022012403254FF00F090AF1BB
:10045000040BAAF1040E00BF0B6804FA02F6334045
:10046000B34273D10F7907F00307012F01D0022F98
:1004700016D187684FEA420805FA08FC27EA0C07FC
:10048000D1F80CC00CFA08FC4CEA070CC0F808C004
:100490004768B7430E79C6F3001696403E43466060
:1004A0000E79F643B6070DD0C768560005FA06FC6C
:1004B00027EA0C07D1F808C00CFA06FC4CEA070C36
:1004C000C0F80CC00E7906F00306022E10D1D60833
:1004D00000EB8608D8F8206057074FEAD76C09FA76
:1004E0000CF7BE430F6907FA0CF73743C8F82070C2
:1004F00006684FEA420C05FA0CF7BE430F7907F085
:10050000030707FA0CF7374307604E6816F4403FBD
:100510006DD03B4E376847F480473760366822F02D
:10052000030706F480460096364E07EB060CDCF80F
:10053000086897073F0F09FA07F826EA0806DFF868
:10054000C880404503D14FF000081EE04FE0DFF8BF
:10055000BC80404502D14FF0010816E0DFF8B080C2
:10056000404502D14FF002080FE0DFF8A880404577
:1005700002D14FF0030808E0DFF89C80404502D12B
:100580004FF0040801E04FF0070808FA07F848EABE
:100590000608CCF80888DAF800605746D1F804C09D
:1005A0009E435FEACC2C00D51E433E60DBF8006022
:1005B0005F46D1F804C09E435FEA8C2C00D51E43F1
:1005C0003E60DEF800607746D1F804C09E435FEAE3
:1005D0008C3C00D51E433E60084F083F3E68D1F872
:1005E00004C09E435FEACC3C00D51E433E60521CD3
:1005F000102AFFF431AFBDE8F88F0000083C01403D
:100600004438024000300140000002400004024033
:1006100000080240000C0240001002400AB1816153
:1006200070470904FBE7000001488068704700003C
:100630000000002070B5040025D094F83D0000258E
:1006400020B984F83C50204600F0E2FA242084F8D7
:100650003D002068016821F0010101602068016807
:1006600041F4004101602068016821F4004101600B
:1006700000F036FC4D4A6168914201D84C4900E0D7
:100680004C49884201D2012070BD4B492368B0FB20
:10069000F1F15E6826F03F060E435E6063689342A8
:1006A00006D94FF4967359434FF47A73B1FBF3F1C3
:1006B0002368491C1E6A26F03F06314319626168AF
:1006C000914210D84900401EB0FBF1F2521CC2F317
:1006D0000B02042A01D2042022E0B0FBF1F0401CFE
:1006E000C0F30B001CE0A268F2B301EBC10303EB03
:1006F0000116431EB3FBF6F35B1C43F480431B055A
:1007000049D092B301EBC10202EB0111401EB0FBD4
:10071000F1F0401CC0F30B0040F4804040F4004076
:100720002168CA694CF6FF739A431043C861D4E943
:10073000071001432068026822F0C00211430160E3
:10074000D4E9030101432068826848F2FF339A43E9
:1007500011438160D4E9050108432168CA6822F089
:10076000FF021043C86001E00EE016E02068016857
:1007700041F0010101602564202084F83D002563DB
:1007800084F83E50002070BD01EB4106431EB3FBD0
:10079000F6F35B1CB3E70120C2E701EB4101401E09
:1007A000B0FBF1F0401CC0F30B00B7E7A0860100DE
:1007B00080841E0000093D0040420F002DE9F84FE3
:1007C0001F4690468A460446DDF82890FFF72CFF26
:1007D000054694F83D0020287FD119230122404985
:1007E0002046009501F032FB002876D194F83C00B9
:1007F000012872D0012084F83C0020680168C907F4
:1008000003D1016841F0010101602068016821F411
:1008100000610160212084F83D00102084F83E0032
:1008200000262664C4F824806785608D20852D48C5
:10083000E0622B464A465146204601F0C1F990B984
:10084000206841698069009036E02A464946204682
:1008500001F0AEFB50B1206C042804D1206801687F
:1008600041F4007101600120BDE8F88F606A2168E1
:1008700000780861606A401C6062618D491E618574
:10088000218D491E89B2218522685369DB435B07AC
:100890000BD451B100781061606A401C6062608DB9
:1008A000401E6085208D401E20852A4649462046F0
:1008B00001F0A6FA0028CED1208D0028C5D154F829
:1008C0003D0B016841F400710160202004F81E090D
:1008D000E67766770020C7E7FFE70220C4E700005D
:1008E000020010000000FFFF2DE9FF4F83B09A4681
:1008F000DDE9119793460446DDF84080FFF794FE4A
:10090000054694F83D00202870D119230122714931
:100910002046009501F09AFA0028F5D194F83C00A1
:10092000012863D0012084F83C0020680168C907D1
:1009300003D1016841F0010101602068016821F4E0
:1009400000610160222084F83D00402084F83E00D0
:1009500000262664C4F82480A4F82A90608D20859F
:100960005D48E062CDE9007553465A462046049939
:1009700001F074F900287CD1208DD0B1012821D05C
:100980000228206824D0416980690090208D0328C6
:1009900069D801282BD0514902283B464FF000026C
:1009A000009559D08846204601F050FA002860D1C1
:1009B0003CE02068416981690091016841F400715F
:1009C000016077E02068016821F480610160F0E750
:1009D000016821F4806101602068016841F40061D0
:1009E0000160206841698069009063E06FE02A46F9
:1009F0003946204601F0A9FA98BB20680069616A6F
:100A000008704EE02068016841F4007101602068C0
:100A10000069616A0870606A401C6062218D491E2D
:100A20002185618D491E6185216838E02068016853
:100A300021F48061016020680069616A0870606A61
:100A4000401C6062208D401E2085608D401E6085A8
:100A50003B46002241460095204601F0F7F900B9D7
:100A6000D0E706E0FFE72A463946204601F06DFA56
:100A700018B1012007B0BDE8F08F20680069616AF5
:100A80000870606A401C6062218D491E2185618D5D
:100A9000491E618521684A69D24352070AD409690F
:100AA0000170606A401C6062208D401E2085608D50
:100AB000401E6085208D00287FF468AF202084F8D8
:100AC0003D0084F83E6084F83C600020D2E70220BC
:100AD000D0E70000020010000000FFFF040001004A
:100AE0002DE9FF4F83B09A46DDE9119793460446FE
:100AF000DDF84080FFF798FD054694F83D0020287A
:100B00007FD11923012240492046009501F09EF92A
:100B1000002876D194F83C00012872D0012084F896
:100B20003C0020680168C90703D1016841F0010158
:100B300001602068016821F400610160212084F8CF
:100B40003D00402084F83E0000262664C4F824803E
:100B5000A4F82A90608D20852C48E062CDE90075CC
:100B600053465A462046049901F0F6F870B930E031
:100B70002A463946204601F01BFA58B1206C042859
:100B800004D12068016841F400710160012007B0C0
:100B9000BDE8F08F606A216800780861606A401CD7
:100BA0006062218D491E89B22185628D521E628547
:100BB00022685369DB435B070BD469B1007810618D
:100BC000606A401C6062208D401E2085608D401E42
:100BD0006085208D0028CBD12A463946204601F079
:100BE0000FF90028CAD154F83D0B016841F4007197
:100BF0000160202004F81E09E67766770020C6E72A
:100C0000FFE70220C3E70000020010000000FFFF22
:100C100010B586B0044614216846FFF744FB13491B
:100C20002068884220D112480021026842F0020266
:100C30000260006800F002000590C02000901220C1
:100C4000CDE901010320039004200490694609487E
:100C5000FFF7F4FB06481030016841F40011016011
:100C6000006800F40010059006B010BD005400406C
:100C70003038024000040240024881680278114482
:100C800081607047000000200B4810B5016841F4F6
:100C900000710160016841F480610160016841F404
:100CA00080710160032000F06FF80F2000F006F85B
:100CB00000F024F8002010BD003C024070B50D4D3E
:100CC00004464FF47A712878B1FBF0F00A490968BC
:100CD000B1FBF0F000F00CFB48B9102C07D2002259
:100CE0002146501E00F030F800206C6070BD0120DD
:100CF00070BD0000000000200C0000200A4808B56C
:100D0000016841F480410160006800F48040009077
:100D10000548001F016841F080510160006800F043
:100D20008050009008BD000044380240002809DBD4
:100D300000F01F02012191404009800000F1E020F5
:100D4000C0F8001170470000F0B40E4B1B680C4651
:100D5000C3F30223C3F10705042D00D90425191D8F
:100D6000072901D2002300E0DB1E012606FA05F167
:100D7000491E214099409E40761E16403143F0BCEA
:100D800001F0BCBE0CED00E0064900F00702086867
:100D90004FF6FF03184040EA0220034A1043086060
:100DA000704700000CED00E00000FA052DE9F04767
:100DB0000E46050065D0DFF81481D8F80000F7B2C0
:100DC00000F00700B04207D288F80070D8F80000A1
:100DD00000F00700B04254D128683D4C810712D57D
:100DE000400703D5206840F4E050206028780007D1
:100DF00003D5206840F4604020602068A96820F096
:100E0000F000084320602878C0072DD0304968687A
:100E10000839012812D0022813D0032811D00968FC
:100E2000890700292DDA216821F00301014321609F
:100E3000FFF7FAFB814641F2883A0EE00968890320
:100E4000EFE709688901ECE7FFF7EEFBA0EB09018A
:100E5000514502D90320BDE8F0872068696800F099
:100E60000C00B0EB810FEFD1D8F80010404601F034
:100E70000701B14207D90770006800F00700B042CF
:100E800001D00120E7E72878400705D52068E96808
:100E900020F4E050084320602878000706D5206839
:100EA000296920F4604040EAC100206000F038F871
:100EB0002168084AC1F30311515CC8400649086023
:100EC00006480068FFF7FAFE0020C4E7003C024035
:100ED00008380240C84A00080C0000200400002026
:100EE0000448054900680968044AC1F38221515C3D
:100EF000C84070470C00002008380240D84A00085B
:100F00000448054900680968044AC1F34231515C4C
:100F1000C84070470C00002008380240D84A00083A
:100F2000154810B5006810F00C02144813D014498D
:100F3000042A0FD0082A0ED10F4C241F22682368E0
:100F400002F03F025B0207D52068C0F38810A0FBC7
:100F5000010106E0084610BD2168C1F38811A1FB1C
:100F600000010023FFF736F92168C1F30141491C54
:100F70004900B0FBF1F010BD083802400024F40035
:100F800040787D012DE9F84F04006ED02078DFF81D
:100F90004C93C007A9F104054AD009F10400016887
:100FA000C1F38101012908D00068C0F38100022843
:100FB0000AD1D9F80000400206D52868800337D549
:100FC00060680028E1D033E06068B0F5803F10D061
:100FD000B0F5A02F286810D020F480302860286851
:100FE00020F4802028606068A8B1FFF71DFB06464A
:100FF0000DE0286840F48030F4E740F48020286059
:10100000F7E700BFFFF710FB801B642873D8286840
:101010008003F7D50CE0FFF707FB064605E000BFAD
:10102000FFF702FB801B6428F0D828688003F7D400
:101030002078DFF8AC8280074FF0000A3ED5A74841
:10104000001D016811F00C0F08D00068C0F381008A
:1010500002280BD1D9F80000400207D42868800785
:1010600016D5E068012800D112E033E1E068B8B19C
:101070000120C8F80000FFF7D7FA064605E000BFD8
:10108000FFF7D2FA801B0228C0D828688007F7D55E
:101090002868216920F0F80040EAC10028600DE0CE
:1010A000C8F800A0FFF7C0FA064604E0FFF7BCFA54
:1010B000801B02281FD828688007F7D420780007F3
:1010C00022D5864F87486169703771B1012101606F
:1010D000FFF7AAFA064604E0FFF7A6FA801B0228EB
:1010E00009D838688007F7D50EE0C0F800A0FFF7F0
:1010F0009BFA064605E082E0FFF796FA801B02287D
:101100007DD838688007F7D42078400768D5DFF8A5
:10111000CCB100270BF13C0BDBF80000C0000BD476
:10112000DBF8001041F08051CBF80010DBF8000034
:10113000012700F0805000906B4E3068C00510D43D
:10114000306840F480703060FFF76EFA009005E080
:10115000FFF76AFA0099401A022850D83068C00593
:10116000F6D55E4EA0686C3601280FD00528306891
:1011700010D020F001003060306820F004003060B2
:10118000A068B8B1FFF750FA00900FE0306840F067
:101190000100F4E740F004003060F7E7FFF744FA9D
:1011A0000099411A41F28830814266D83068800740
:1011B000F4D50EE0FFF738FA009007E0FFF734FAB5
:1011C0000099411A41F28830814256D83068800730
:1011D000F4D42FB1DBF8001021F08051CBF80010CF
:1011E000A069C8B33D49091D0968C1F381010229FD
:1011F0004AD00228504607D0C8F8600000E03CE022
:10120000FFF712FA04463BE04746C8F86000FFF7D4
:101210000BFA064605E000BFFFF706FA801B02281E
:101220002BD828688001F7D4D4E907010843A16AC4
:101230002E4A490802EB0141626A41EA82110843E1
:1012400094F82C1040EA0161C9F8001001203866BA
:10125000FFF7EAF9044606E03EE000BFFFF7E4F9D5
:10126000001B022809D828688001F7D534E000BFA8
:10127000FFF7DAF9001B022802D90320BDE8F88F36
:1012800028688001F4D427E00128F7D0D9F80000BD
:10129000E26900F4800191421CD1226A00F03F0112
:1012A000914217D147F6C071626A0140B1EB821FCB
:1012B00010D1A26A4FF0FF3300F4403103EB520229
:1012C000B1EB024F06D194F82C1000F07060B0EB37
:1012D000016F01D00120D1E70020CFE704380240A0
:1012E00000004742800E4742007000400000FFFFB0
:1012F00010B5401EB0F1807F01D3012010BD4FF02A
:10130000E02460610F21601701F0F8FB0020A0616C
:1013100007202061002010BD7047704770B590F81D
:101320003C20012A2CD0012480F83C40022280F885
:101330003D2003685A689D6822F070060A683243AF
:101340005A60104B02689A420ED0B2F1804F0BD017
:101350000D4B9A4208D00D4B9A4205D00C4B9A4245
:1013600002D00C4B9A4204D1496825F080031943FE
:10137000916080F83D40002180F83C10084670BD27
:10138000022070BD00000140000400400008004041
:10139000000C00400040014010B5040003D094F858
:1013A0003D0010B107E0012010BD002084F83C0092
:1013B000204600F01FF8022084F83D00211D20681F
:1013C00001F03EF9012084F8460084F83E0084F8DC
:1013D0003F0084F8400084F8410084F8420084F81B
:1013E000430084F8440084F8450084F83D00002060
:1013F00010BD000008B500680B49884212D10B48A7
:10140000016841F4003101600068002200F40030FE
:10141000009011461920FFF797FCBDE808401920FD
:10142000FFF784BC08BD000000440140443802407E
:10143000704770B50446006801694FF00005C94364
:10144000890715D4C168C943890711D4E91E016110
:1014500001202077206880698007204602D0FFF7AE
:10146000E7FF04E000F0C0F8204600F065F92577BA
:1014700020680169C943490717D4C168C9434907AE
:1014800013D46FF004010161022020772068806985
:1014900010F4407F204602D0FFF7CAFF04E000F0BE
:1014A000A3F8204600F048F9257720680169C94370
:1014B000090716D4C168C943090712D46FF008019F
:1014C0000161042020772068C0698007204602D08F
:1014D000FFF7AEFF04E000F087F8204600F02CF99B
:1014E000257720680169C943C90617D4C168C94373
:1014F000C90613D46FF0100101610820207720681D
:10150000C06910F4407F204602D0FFF791FF04E04D
:1015100000F06AF8204600F00FF92577206801698D
:10152000C943C90708D1C168C943C90704D1891E85
:101530000161204600F001F920680169C9430906EC
:1015400009D4C168C943090605D46FF0800101615F
:101550002046FFF7E1FE20680169C943490609D426
:10156000C168C943490605D46FF0400101612046B6
:1015700000F0E4F820680169C94389060BD4C1680A
:10158000C943890607D46FF0200101612046BDE8F8
:101590007040FFF7C2BE70BD10B586B0044614217E
:1015A0006846FEF780FE0D492068884214D10C4839
:1015B0000021026842F001020260006800F00100B0
:1015C0000590C02000900220CDE90101CDE9031073
:1015D00069460448FEF732FF06B010BD0004004023
:1015E0003038024000000240704770B5044690F861
:1015F0003C0000260D4601280FD0012084F83C0055
:101600006AB1042A1DD0082A2FD00C2A3FD0012607
:10161000002084F83C00304670BD022070BD206878
:1016200001F05AF82068816941F008018161206861
:10163000816921F004018161206881692A6911436F
:1016400011E0206801F070F82068816941F40061C0
:1016500081612068816921F48061816120688169EC
:101660002A6941EA02218161D2E7206801F088F805
:101670002068C16941F00801C1612068C16921F099
:101680000401C1612068C1692A69114311E0206821
:1016900001F0A2F82068C16941F40061C1612068CD
:1016A000C16921F48061C1612068C1692A6941EA88
:1016B0000221C161ACE710B5040003D094F83D00ED
:1016C00010B107E0012010BD002084F83C00204646
:1016D00000F01EF8022084F83D00211D206800F073
:1016E000AFFF012084F8460084F83E0084F83F00F4
:1016F00084F8400084F8410084F8420084F84300F4
:1017000084F8440084F8450084F83D00002010BDB2
:1017100008B500680649884208D10648016841F0CA
:1017200002010160006800F00200009008BD0000A6
:1017300000040040403802407047704770477047CF
:1017400070470000F8B5016804460868CA684B692C
:1017500010F00F0F4FF0000559D003F0010602F40E
:101760009077374365D0C10705D0D10503D5216CEB
:1017700041F001012164410705D5D90703D0216C4F
:1017800041F002012164810705D5D90703D0216CFE
:1017900041F004012164010707D502F02001314323
:1017A00003D0216C41F008012164216C00293AD05A
:1017B000800604D5900602D5204601F05EF8206828
:1017C0004069216CC0F38010090700D460B3204643
:1017D00001F02CF820684069400621D520681430BB
:1017E00050E8001F21F0400140E80012002AF5D126
:1017F000A06BA8B16C490165A06BFEF7EDFD002858
:1018000011D0A06B016D01B0BDE8F0400847830620
:101810000FD593060DD52046BDE8F84001F02DB850
:101820002046FFF78DFFF8BD2046FFF789FF2564AE
:10183000F8BD266B2023012E79D1C60677D5D606B2
:1018400075D50868486800904869400640D5A16B86
:10185000086840680004000CEAD0A28D8242E7D9F3
:10186000E085C869B0F5807F2DD020680C3050E845
:10187000001F21F4807140E80012002AF5D1206891
:10188000143050E8001F21F0010140E80012002A46
:10189000F5D12068143050E8001F21F0400140E8E5
:1018A0000012002AF5D184F83E30256320680C3000
:1018B00050E8001F21F0100140E80012002AF5D185
:1018C000A06BFEF740FDA08DE18D401A81B229E0AA
:1018D000A08DE18D401A81B2E08D0028A8D00029AA
:1018E000A6D020680C3050E8002F22F4907240E817
:1018F0000026002EF5D12068143050E8002F22F089
:10190000010240E80026002EF5D184F83E30256320
:1019100020680C3050E8002F22F0100240E800232D
:10192000002BF5D12046FFF70AFFF8BDFFE70506BB
:101930002BD5150629D594F83D002128F5D1A068AE
:10194000B0F5805F01D12069B0B1206A411C2162ED
:10195000216800784860E08C401E0004000CE084A0
:10196000E3D12068C16821F08001C1602068C168AE
:1019700041F04001C160D8E7206A0088C0F3080048
:101980004860206A801C2062E5E74006CDD55006FD
:10199000CBD5CA68204622F04002CA6084F83D30A8
:1019A00000F0F5F8C1E700001D28000870B504003C
:1019B00004D094F83D00002510B106E0012070BD70
:1019C00084F83C50204600F023F8242084F83D00A1
:1019D0002068C16821F40051C160204600F0AEFFCC
:1019E0002068016921F4904101612068416921F07A
:1019F0002A0141612068C16841F40051C160256439
:101A0000202084F83D0084F83E00002070BD0000D6
:101A1000F0B587B0044614216846FEF744FC2A4F0F
:101A20002368002229490224032507262848BB42AF
:101A300021D1264B14331F6847F010071F601B6825
:101A400003F0100305930B6843F001030B60096872
:101A500002AB01F0010105916902CDE9001483E8B0
:101A600064006946FEF7EAFC002211462520FFF7D4
:101A70006BF9252023E0174FBB4222D1134B1033C3
:101A80001F6847F400371F601B6803F40033059399
:101A90000B6843F001030B60096802AB01F0010120
:101AA00005910C21CDE9001483E864006946FEF736
:101AB000C5FC002211462620FFF746F92620FFF735
:101AC00035F907B0F0BD0000001001403038024089
:101AD0000000024000440040704700002DE9F84338
:101AE000044690F83D001F4616460D4620284CD16E
:101AF000C5B1BEB194F83C00012846D0012084F85D
:101B00003C004FF00008C4F84080212084F83D00DC
:101B1000FEF78AFDA6848146E684A068B0F5805F62
:101B200003D004E00120BDE8F883206928B12E46E7
:101B30005FF0000584F83C800EE00026FAE7802183
:101B4000204600F081FFA0B9AEB116F8010B216864
:101B50004860E08C401EE084E08C4B464FF0000271
:101B600000970028EBD14FF04001204600F06CFFB9
:101B700030B10320D7E735F8020BC0F30800E6E7E1
:101B8000202084F83D000020CDE70220CBE77047FD
:101B9000FEE701684A69D24352050FD46FF48062B0
:101BA0004A61002140F8301F20224273817302698C
:101BB00042F0040202610173012070470020704767
:101BC000F8B50446C06A1E460D461746082807D0D9
:101BD000012805D010F5803F02D0206B122804D1D7
:101BE0002068016841F480710160134600224FF0C3
:101BF00001112046009600F029F940B120680068E4
:101C0000C00502D54FF4007020640320F8BD2069A0
:101C1000B0F5804F0ED00620216800EAD51040F0C4
:101C2000F000086133463A460B49204600F042F97D
:101C300078B902E005F0FE0000E0E8B22168086132
:101C4000054933463A46891F204600F033F90028FB
:101C5000DCD00120F8BD0000080001002DE9F84F9C
:101C60000446006889460B9D01689846174641F472
:101C7000806101602068016841F480710160009515
:101C80004FF0011B0022594620460A9B00F0DEF867
:101C90004FF4007A40B120680068C00501D5C4F84F
:101CA00040A00320BDE8F88F216809F0FE0008611C
:101CB0002B46284920460A9A00F0FCF8F0BB206821
:101CC0004169806900902A4620460A9900F070F91F
:101CD00040B1206C04283AD12068016841F40071B9
:101CE000016034E0FEB2B8F1010F09D02168380A72
:101CF00008612A4620460A9900F05AF90028E8D1DE
:101D0000206806612A4620460A9900F051F9002809
:101D1000DFD12068016841F48071016000950022E4
:101D2000594620460A9B00F091F80028B3D121685B
:101D300009F0FF0040F00100086100E007E02B46D9
:101D4000044920460A9A00F0B5F80028AAD00120DC
:101D5000A8E70000020001002DE9F84304460068EE
:101D60000D46DDE9089701689846164641F48071F2
:101D700001604B4600224FF001112046009700F011
:101D800065F848B120680068C00502D54FF40070BE
:101D900020640320BDE8F883216805F0FE00086197
:101DA0003B464A461549204600F084F888B9206829
:101DB0004169806900903A464946204600F0F8F8AB
:101DC00048B1206C042804D12068016841F40071F6
:101DD00001600120DEE7F5B2B8F1010F09D02168FA
:101DE000300A08613A464946204600F0E1F80028EA
:101DF000E7D1206805610020CCE700000200010067
:101E000070B516460D4604460DE02046FFF7C1FEAC
:101E100008B1012070BD681C05D0FEF705FC801BD1
:101E2000A84207D835B120684069C0434007ECD4C8
:101E3000002070BD002044F8300F20216173A07392
:101E4000216941F0200121612073E2E72DE9F0478B
:101E50001E4690460D460446C1F30747DDF8209024
:101E600008E0701C06D0FEF7DFFBA0EB0900B042D3
:101E70000FD876B12068012F18D0806925EA0000BC
:101E80000004000C14D000214145EAD00020BDE838
:101E9000F087002044F8300F20216173A07321697E
:101EA00041F02001216120730120F0E74069E5E75E
:101EB0000121E9E72DE9F0479A4691460E4604468E
:101EC00000254FF02008C1F3074725E0206840694E
:101ED000C043400514D42068016841F400710160DA
:101EE00021686FF480604861256384F83D8084F840
:101EF0003E50206C40F00400206484F83C501FE009
:101F0000B9F1FF3F08D0FEF78FFBA0EB0A0149456E
:101F10000CD8B9F1000F09D02068012F13D08069C7
:101F200026EA00000004000C0BD0CFE744F8305F35
:101F300084F80D80A573206940F02000206125738E
:101F40000120BDE8F0874069EAE72DE9F04100256E
:101F500090460E460446202717E04069C043C0065D
:101F60000CD454F8301B6FF01000486144F810593D
:101F70006777A577206A2062257717E0FEF754FB84
:101F8000A0EB0800B04208D83EB120684169C943BF
:101F90004906E2D40020BDE8F08144F8305F677361
:101FA000A573206940F02000206125730120F2E72D
:101FB00070B516460D4604460DE02046FFF7E9FDD4
:101FC00008B1012070BD681C05D0FEF72DFB801BF9
:101FD000A84207D835B120684069C0430006ECD458
:101FE000002070BD002044F8300F20216173A073E1
:101FF000216941F0200121612073E2E72DE91040C1
:1020000000F00FF80028FBD106E0C820FEF7F6F933
:10201000641CE4B2142C03D801F0E8FE0028F4D1CB
:1020200010BD10B580216B2000F096F86420FEF7FB
:10203000E5F900216B2000F08FF8032000F057F83D
:10204000002000F04FF8322000F06EF80021382018
:1020500000F082F800216A2000F07EF800212320A1
:1020600000F07AF88021372000F076F8752000F033
:1020700011F8682801D0012010BD01216B2000F06B
:102080006BF800216C2000F067F8322000F04CF86B
:10209000002010BD1FB56423012203A98DE80E00A6
:1020A00013460246D0210548FEF71EFC10B1012060
:1020B00004B010BD9DF80C00FAE7000050000020AD
:1020C0003EB54000CDE900320A4664240146029440
:1020D00001230348FEF708FC002800D001203EBD84
:1020E00050000020C006010E1C2000F035B8C006CC
:1020F000010E1B2000F030B8BC2801D3012110E0F4
:10210000622801D302210CE02A2801D3032108E030
:10211000142801D3042104E00A2801D3052100E09A
:1021200006211A2000F018B810B504464FF47A7052
:10213000844201D9044602E0042C00D20424B0FBFE
:10214000F4F0401EC1B2192000F006F86008BDE8A6
:102150001040FFF7D1BF000003B583B06423012214
:1021600004A98DE80E0013460246D0210348FEF76D
:10217000B7FC002800D0012005B000BD50000020B1
:102180003EB54000CDE900320A466424014602947F
:1021900001230348FEF7A4FC002800D001203EBD27
:1021A000500000202DE9F04186B014216846FEF76A
:1021B0007AF830480024016841F0040101600168A8
:1021C00001F004010591016841F08001016001689E
:1021D00001F080010591016841F001010160016891
:1021E00001F001010591016841F002010160006800
:1021F000214F00F002004FF40055059000222946BF
:102200003846FEF70BFADFF874804FF47046002270
:1022100031464046FEF702FA00950125CDE901540A
:10222000694638460394FEF709F91120009000042E
:10223000CDE90105124F69463846FEF7FFF8222026
:102240008DE8310069463846FEF7F8F80096CDE98A
:102250000154694640460394FEF7F0F80022114607
:102260000620FEF771FD0620FEF760FD06B0BDE812
:10227000F0810000303802400008024000040240B3
:10228000000002400D4810B50B4901600C49416047
:1022900000214FF480428160C0E9031241618161F5
:1022A000C1610162FEF7C6F9002803D0BDE8104005
:1022B000FEF747B810BD0000005400405000002059
:1022C000801A06000C4810B50A49016042F27F519D
:1022D0004160002141F28732C0E90212016181614F
:1022E000FFF75AF8002803D0BDE81040FEF729B8E0
:1022F00010BD000000440140EC00002030B589B062
:10230000002407941C2168460894FDF7CCFF1A4866
:1023100018496025C0E9001544F61F61C0E9024173
:1023200004618461FFF7C7F908B1FEF70AF8079462
:1023300007A911480894FEF7F1FF08B1FEF701F86C
:10234000CDE900540294002269460B480494FFF73B
:102350004CF908B1FDF7F5FF042269460648FFF77E
:1023600044F908B1FDF7EDFF0348FFF715F909B08F
:1023700030BD000000040040A40000200C4810B54F
:102380000A4901604FF4E1314160002181600C2273
:10239000C160C0E904128161C161FFF707FB002839
:1023A00003D0BDE81040FDF7CCBF10BD00100140C8
:1023B000340100200C4810B50A4901604FF4E131A6
:1023C0004160002181600C22C160C0E9041281617A
:1023D000C161FFF7EBFA002803D0BDE81040FDF71C
:1023E000B0BF10BD0044004078010020FEE7FEE7CA
:1023F00030B40021084B0A465FF0000003EBC00434
:10240000401CC0B262548028F8D3491CC9B20829C4
:10241000F2D330BC00F078B8BC01002010B5002128
:10242000AE2000F08BF80021084600F087F800216C
:10243000102000F083F80021402000F07FF80021F8
:10244000812000F07BF80021CF2000F077F80021F8
:10245000A12000F073F80021C82000F06FF80021DF
:10246000A62000F06BF80021A82000F067F80021FA
:102470003F2000F063F80021D32000F05FF8002136
:10248000084600F05BF80021D52000F057F8002145
:10249000802000F053F80021D92000F04FF80021EF
:1024A000F12000F04BF80021DA2000F047F800217D
:1024B000122000F043F80021DB2000F03FF800215B
:1024C000402000F03BF80021202000F037F80021E8
:1024D000022000F033F800218D2000F02FF80021B9
:1024E000142000F02BF80021A42000F027F8002190
:1024F000A62000F023F8FFF77BFF0021BDE8104085
:10250000AF2000F01BB8000070B50B4E0024214630
:10251000002000F027F8002506EBC5000121005D32
:1025200000F00CF86D1CEDB2802DF5D3641CE4B204
:10253000082CECD370BD0000BC01002008B5074A90
:1025400001B14021117050700A2000900223034A0B
:1025500078210348FEF732F908BD00001000002082
:102560005000002010B50446B031C8B20021FFF77A
:10257000E5FF102040EA14100021FFF7DFFF04F010
:102580000F00BDE810400021FFF7D8BF704770472B
:10259000FEF772BB30B593B030216846FDF783FE7D
:1025A00014210CA8FDF77FFE1C480024016841F0AF
:1025B00080510160006800F0805011901848016857
:1025C00041F4404101600068022500F44040119050
:1025D000012003901020009506950490CDE9074056
:1025E000C020CDE9090504200B906846FEF7CAFC1F
:1025F00008B172B6FEE70F20CDE90C054FF480500C
:10260000CDE90E4003210CA81094FEF7CFFB002863
:1026100001D072B6FEE713B030BD00004038024072
:10262000007000400248016841F470010160704789
:1026300088ED00E00148FEF7FCBE0000EC00002041
:10264000F0B502681D4B1E4C9F031E4D1E4E984256
:1026500007D0B84205D0A04203D0A84201D0B04272
:1026600004D122F0700C4A6842EA0C02984210D061
:10267000B8420ED0A0420CD0A8420AD0B04208D036
:10268000124CA04205D0124CA04202D0114CA042E4
:1026900003D122F44074CA6822434C6922F08002BC
:1026A000224302608A68C2620A688262984201D14B
:1026B0000969016301214161F0BD00000000014092
:1026C0000004004000080040000C004000400140B1
:1026D000004401400048014030B5026A22F0010286
:1026E0000262026A4368846924F073050C682C4313
:1026F00022F002058A682A430A4DA8420BD122F033
:102700000805CA6823F440732A434D6922F0040285
:102710001D438B692B4343608461496841630262B6
:1027200030BD00000000014030B5026A22F0100206
:102730000262026A436884690D6824F4E64444EA4C
:1027400005248D6822F0200242EA05120B4DA842B2
:102750000ED1CD6822F0800242EA05124D6923F4C1
:10276000406343EA85038D6922F0400243EA850312
:102770004360846149688163026230BD00000140AA
:1027800030B5026A22F480720262036A4268C46948
:1027900023F4007324F073050C682C438D6843EA1E
:1027A00005230C4DA8420ED1CD6823F4006343EA03
:1027B00005234D6922F4405242EA05128D6923F443
:1027C000806342EA05124260C4614968C1630362E2
:1027D00030BD00000000014030B5026A22F4805292
:1027E0000262046A4268C3690D6823F4E64343EA5F
:1027F00005238D6824F4005444EA0534064DA842AC
:1028000004D14D6922F4804242EA85124260C361DC
:1028100049680164046230BD0000014010B5806B5E
:102820000021C185C184FEF78BFF10BD01680C310A
:1028300051E8002F22F4907241E80023002BF5D1DB
:102840000168143151E8002F22F0010241E8002311
:10285000002BF5D1016B012909D101680C3151E838
:10286000002F22F0100241E80023002BF5D1202197
:1028700080F83E1000210163704708B590F83E10C3
:10288000222901D0022008BD82684FF480539A4269
:1028900001D1016921B1816A9A421BD04AB10AE093
:1028A0000268816A5268C2F308020A80816A891C40
:1028B00008E0026972B10268526802F07F020A7091
:1028C000816A491C8162C18D491E0904090CC185B8
:1028D00003D019E002685268F1E70168CA6822F083
:1028E0002002CA600168CA6822F48072CA60016866
:1028F0004A6922F001024A61202180F83E10016BF2
:10290000012903D0FFF7E8F8002008BD002101638A
:1029100001680C3151E8002F22F0100241E8002339
:10292000002BF5D101680A68D20602D50A68496809
:102930000091818DFEF703FFE6E7000070B50446C5
:1029400000680169E26821F4405111430161216985
:10295000A068E26908436169114308432168CA68B5
:1029600049F20C639A430243CA6020684169A26934
:1029700021F440711143416131492068884202D0FD
:102980003049884202D1FEF7BBFA01E0FEF7A8FA0F
:10299000E2690023192164253226B2F5004F6268EE
:1029A00028D0A0FB0101930F9200FDF713FC014614
:1029B000B0FBF5F06FF01802504301EB800006EB1E
:1029C0000010B0FBF5F000F0F002B1FBF5F002EB07
:1029D0000012B1FBF5F06FF01803584301EB8000D3
:1029E00006EB0010B0FBF5F000F00F00216810447A
:1029F000886070BDA0FB010192185B41FDF7EAFB06
:102A00000146B0FBF5F00201B1FBF5F06FF01803E1
:102A1000584301EB800006EBC000B0FBF5F000F07E
:102A2000F80002EB4002B1FBF5F0584301EB8000E7
:102A300006EBC000B0FBF5F000F00700D6E70000A1
:102A400000100140001401402DE9F041984617465E
:102A50000E460446069D27E0681C25D02DB1FDF7E3
:102A6000E3FDA0EB0800A8421ED920680C3050E816
:102A7000001F21F4D07140E80012002AF5D120682F
:102A8000143050E8001F21F0010140E80012002A34
:102A9000F5D1202084F83D0084F83E00002084F821
:102AA0003C000320BDE8F0812068006836EA0000A1
:102AB00004D00020B842CFD00020F3E70120F9E78E
:102AC0000148FEF73FBE0000340100200148FEF738
:102AD00039BE0000780100207047FEE70FB4054BB7
:102AE00010B503A9044A029800F028F810BC5DF85C
:102AF00014FB00004D3800084C0000200907090EA7
:102B0000002804DB00F1E02080F80014704700F09A
:102B10000F0000F1E02080F8141D704702E008C8A3
:102B2000121F08C1002AFAD170477047002001E047
:102B300001C1121F002AFBD1704700002DE9FF4F91
:102B40008DB00F460546002606E025280BD0DDE9AE
:102B50000F1290476D1C761C28780028F5D111B013
:102B60003046BDE8F08F0024A246A1460122E94983
:102B700000E0044315F8013F203B02FA03F008424D
:102B8000F7D128782A2810D06FF02F022878A0F1EA
:102B90003001092914D80AEB8A0102EB410144F003
:102BA000020400EB010A6D1CF0E701CF5FEA000AA6
:102BB00003D544F40054CAF1000A44F002046D1C29
:102BC00028782E2817D115F8010F44F004042A287C
:102BD0000ED06FF02F022878A0F1300109290AD811
:102BE00009EB890102EB410100EB01096D1CF2E7E1
:102BF00057F8049B6D1C28786C280FD006DC4C28F5
:102C000017D068280DD06A2814D104E0742810D099
:102C10007A280FD10DE044F400140AE044F4801443
:102C200001E044F440146978814202D104F5801433
:102C30006D1C6D1C28786E281ED00CDC632830D0EB
:102C400004DC00288BD0582811D19FE0642867D07D
:102C500069280CD164E073282DD004DC6F2872D071
:102C6000702804D194E075286ED078286DD0DDE905
:102C70000F129047761C4BE1C4F30250022806D095
:102C8000032809D0042801CF09D0066040E101CF14
:102C9000F117C0E900613BE101CF068038E1067021
:102CA00036E117F8040B8DF8000000208DF80100C4
:102CB000EB46012003E057F804BB4FF0FF306107FB
:102CC0004FF0000102D40DE008F1010188464945AA
:102CD0000FDA8045F8DB1BF808100029F4D108E072
:102CE00008F1010188468142FADB1BF8081000292F
:102CF000F6D1DDE90F23AAEB08008146214600F05A
:102D000031F9304400EB080604E0DDE90F121BF84E
:102D1000010B9047B8F10108F7D221464846F2E08E
:102D20000A21C4F302524FF0000B0891022A04D08A
:102D300001CFC117032A09D00AE0FF1D27F00707BA
:102D4000F7E8020108E02CE01EE01FE000B2C11726
:102D5000042A01D140B2C117021E71F1000206DA45
:102D60000023D0EB030063EB01012D2202E02205DA
:102D700004D52B228DF82420012203E0E20701D0A4
:102D80002022F7E7904653E00A210BE0102109E0EA
:102D900010214FF0000B44F004044FF00809089193
:102DA00003E008214FF0000B0891C4F30252022AFD
:102DB00004D001CF0021032A06D006E0FF1D27F032
:102DC0000707F7E8020103E080B2042A00D1C0B28D
:102DD0004FF0000822072BD52A78702A07D0DDF89B
:102DE00020C08CF0100C5CEA0B0C05D00EE04022E9
:102DF0008DF82420012208E050EA010306D0302398
:102E00008DF824308DF8252002229046089B83F00F
:102E1000080353EA0B030BD150EA010201D1620708
:102E200006D530228DF824204FF00108A9F10109C0
:102E30002A78582A04D038A20B9208AA0A920BE0EA
:102E40003AA2F9E75B46089AFDF7C4F90B9B9B5C35
:102E50000A9A521E0A92137050EA0102F2D10A989D
:102E6000ADEB000000F1200B600702D524F48034A4
:102E700001E04FF00109D94502DDA9EB0B0000E0AC
:102E8000002000EB0B0141440890AAEB010AE0038B
:102E900006D4DDE90F232146504600F063F80644CE
:102EA0004FF0000908E009A911F80900DDE90F1247
:102EB000904709F10109761CC145F4DBE0030CD50C
:102EC000DDE90F232146504600F04CF8064404E0AB
:102ED000DDE90F1230209047761C0899481E0890B3
:102EE0000029F5DC08E00A980A990078491C0A9143
:102EF000DDE90F129047761CBBF10001ABF1010B2D
:102F0000F1DC21465046DDE90F2300F019F80644B4
:102F10006D1C21E609280100303132333435363753
:102F20003839616263646566000000003031323315
:102F300034353637383941424344454600000000B5
:102F40002DE9F041044600251E461746880404D4A6
:102F500005E039462020B0476D1C641EF9D528468F
:102F6000BDE8F0812DE9F041044600251E4690465B
:102F7000C80301D5302700E02027880404D505E0E8
:102F800041463846B0476D1C641EF9D52846BDE859
:102F9000F0810000FEB506460D460024684600F0AC
:102FA00061FC00229FED1B1A6B46012156F822702E
:102FB00055F82200381A00D5404200EE100A03EB03
:102FC0008200B8EEC00AD0ED000A20EE010AF5EE4C
:102FD000C00AF1EE10FA0DD0C0EE201AB7EE000ACA
:102FE0000D4F31EEC00AB0EEC00A10EE100AB84222
:102FF00007DC09E010EE100A084F3844084FB842C9
:1030000002D301FA02F00443521C032ACEDB20460D
:10301000FEBD000000008037295C0F3E666666C179
:103020009A99D90008B560B120208DF800002820B9
:103030008DF8010030208DF8020038208DF8030053
:1030400004E0A32204216846FDF726F96A4604211C
:1030500040F69E2001F09EFC01F05CF908BD0000E6
:103060003EB5044602208DF80000CA208DF801000C
:10307000E3208DF8020009208DF803006A46042140
:10308000682001F087FCA3208DF80000610609D5B7
:10309000C0218DF80110C8218DF80210C2218DF8D1
:1030A000031005E08DF801008DF802008DF8030093
:1030B00014F4C07F09D0C4218DF80410CC218DF800
:1030C0000510C6218DF8061005E08DF804008DF876
:1030D00005008DF806008DF808008DF807008DF8C2
:1030E00009006A460A2140F6A72001F053FCA00718
:1030F0004FF0D80503D020208DF8000001E08DF8B6
:1031000000506A46012140F6B62001F043FCA006BB
:1031100001D5012000E0002000F08EF814F4C07FFB
:103120001ED0E0050AD5B2208DF800008B208DF866
:103130000100B6208DF802009B2009E0B0208DF838
:10314000000080208DF80100B4208DF8020090204E
:103150008DF803006A46042140F6A22001F01AFC13
:10316000E1074FF40B6022D0F8218DF800106A4679
:10317000012101F00FFCFA21072000F097FA072047
:1031800000F062FA012000F07FFA642000F03EFBBC
:103190004FF4FA7000F04AFBC821254800F01CFAF1
:1031A000282000F031FA0A2000F03EFA05E08DF800
:1031B00000506A46012101F0EDFBA00703D5D9209C
:1031C0008DF8000001E08DF800506A46012140F2C0
:1031D0003D7001F0DFFB600701D5012000E0002019
:1031E00000F048F8E00601D5012000E00020FFF7DC
:1031F00019FF104D44F00800688101F08BF80020A1
:10320000A873600601D50620A87314F4C07F02D00D
:10321000A87B801DA87314F0140F02D0A87B103077
:10322000A873A00702D0A87B001DA87300203EBD94
:1032300009E3CA023C0600200EB54FF4976310B1B3
:1032400006A107C901E008A207CA8DE807006A467F
:103250000921184601F09EFB0EBD0000B8AAB38DEF
:10326000B4980D355D000000B8AAAAAAB088C3C5FD
:10327000C700000008B560B1C0208DF80000C22072
:103280008DF80100C4208DF80200C6208DF80300DF
:1032900004E08B2204216846FCF7FEFF6A46042105
:1032A00040F6982001F076FB01F034F808BD0000EC
:1032B000C8234FF48062024940F6F63000F054BF54
:1032C000304B00082DE9FF41044603A800F0FCFD47
:1032D000BDF80C00410CC3032F48008900F0030225
:1032E00054F82250420700D56D42C0F3C102860651
:1032F00054F8222000D55242C0F38116C00554F87C
:10330000264000D56442A5FB0367E81700FB037065
:1033100005FB0100850045EA9670A2FB0367D517FF
:1033200005FB037502FB0152950045EA9672A4FB6A
:103330000367E51705FB037304FB01318B0043EAC8
:103340009671030E8DF80030030C8DF80130030ADE
:103350008DF802308DF80300100E8DF80400100C6B
:103360008DF80500100A8DF80600080E8DF808008B
:10337000080C8DF80900080A8DF80A008DF807205E
:103380008DF80B106A460C214FF4257001F002FBFA
:1033900004B0BDE8F08100003C06002030B50446D2
:1033A00013A285B007CA8DE807004FF0FF35C82C7F
:1033B00016D8C820B0FBF4F1491E080A8DF80C009D
:1033C0008DF80D1003AA022140F2162001F0E2FA56
:1033D00030B96A460C2140F6C12001F0DBFA10B189
:1033E000284605B030BD054884810020F9E700007B
:1033F000FEF2ABC4AAF1DFDFBBAFDFDF3C0600208B
:10340000F8B53049098901F0030250F822404A0713
:1034100000D56442C1F3C1028B0650F8222000D5CA
:103420005242C1F3811350F82330C80500D55B42E6
:10343000254984FB0140850045EA947082FB0142E6
:10344000A40F44EA820483FB0121950F45EA81051C
:10345000010E8DF80010010C8DF80110010A8DF895
:1034600002108DF803006A4604214FF4747001F0D5
:1034700091FA4FF0FF3688B9200E8DF80000200C2D
:103480008DF80100200A8DF802008DF803406A468D
:1034900004214FF4757001F07DFA08B13046F8BD93
:1034A000280E8DF80000280C8DF80100280A8DF8F0
:1034B00002008DF803506A4604214FF4767001F043
:1034C00069FAF8BD3C06002009E3CA022DE9FF4174
:1034D00004463CA004F00303006802903AA0006890
:1034E00003903AA006683AA0056802A8C15C8DF86E
:1034F0000010C4F3C101425C8DF80120C4F38112B5
:10350000805C8DF8020003A8C35C8DF80430415C38
:103510008DF80510805C8DF806006A46032140F2A4
:10352000264001F037FA4FF0FF37E0BB01AA032134
:1035300040F22A4001F02EFAA8BBCDE900656007F1
:103540000BD59DF8000040F001008DF800009DF8BB
:10355000040040F001008DF80400A0060BD59DF892
:10356000010040F001008DF801009DF8050040F0D9
:1035700001008DF80500E0050BD59DF8020040F034
:1035800001008DF802009DF8060040F001008DF862
:1035900006006A4603214FF4886001F0FBF910B978
:1035A00001AA032100E004E040F2314001F0F2F909
:1035B00018B1384604B0BDE8F08106480481002007
:1035C000F8E700004CCD6C000CC92C003656760094
:1035D000264666003C0600204FF47A7290FBF2F01B
:1035E00008B54843010E8DF80010010C8DF801104C
:1035F000010A8DF802108DF803006A4604214FF489
:10360000AE7001F0C7F908BD0521B0FBF1F008B5B7
:10361000010A8DF800108DF801006A4602214FF46E
:10362000AD7001F0B7F908BD0521B0FBF1F008B5A8
:10363000010A8DF800108DF801006A4602214FF44E
:10364000AC7001F0A7F908BD08B500218DF8001095
:10365000C10702D030218DF80010810705D59DF8F3
:10366000001041F00C018DF80010400705D59DF8C1
:10367000000040F003008DF800006A4601214FF47D
:10368000A47001F087F908BD08B560B1042800D91D
:103690000420401E8DF800006A46012140F24F10C0
:1036A00001F078F908BD0120F3E7000070B5044689
:1036B0002DED028B82B040074FF0FF357ED0B1F583
:1036C000C86F7BD800EE101AB8EE400ADFED460A4C
:1036D00001A880EE208A00F0D9FB9DF804000228A2
:1036E00006D0042810D0082835D0102874D13EE028
:1036F0009FED3E0A28EE000ABCEEC00A10EE100A4A
:103700009FED3B0A82B20AE09FED3A0A28EE000ADA
:10371000BCEEC00A10EE100A9FED370A82B228EE06
:10372000000A6E46BCEEC00A10EE100A81B2100A02
:103730008DF800008DF80120080A8DF802008DF840
:103740000310E00726D0324602214FF4EA7001F060
:1037500021F998BB17E09FED290A28EE000ABCEE7C
:10376000C00A10EE100A9FED260A82B2D7E79FED3D
:10377000250A28EE000ABCEEC00A10EE100A9FEDE2
:10378000220A82B2CBE7B21C02214FF4927001F000
:1037900001F998B9A0070DD56A4602214FF4EC70E3
:1037A00001F0F8F850B9B21C02214FF4947001F006
:1037B000F1F818B9600714D56A4600E00CE0022160
:1037C0004FF4EE7001F0E6F830B9B21C02214FF46C
:1037D000967001F0DFF820B1284602B0BDEC028BF4
:1037E00070BD0020F9E7000000004843000080465B
:1037F00000004046000000460000C0450000804533
:1038000000004045000000450000C0440521B0FB19
:10381000F1F008B5010A8DF800108DF801006A4634
:1038200002214FF4EF7001F0B5F808BD0521B0FB9F
:10383000F1F008B5010A8DF800108DF801006A4614
:1038400002214FF4ED7001F0A5F808BD13B54FF655
:10385000FF73012269460248FEF740F900981CBD3B
:10386000340100201FB50446274802AB04224068FB
:103870000D210078FEF724FC10B1072004B010BD24
:103880009DF808101C2000EAD1029DF80B10DFED16
:103890001F0AC1F301131A438DF800209DF8092077
:1038A000C1F3810300EAD2021A438DF801209DF88A
:1038B0000A2001F0030100EAD20008439FED141A28
:1038C0009FED140A8DF8020000216A46505C002822
:1038D00004EB810002D080ED001A09E0C0ED000A7F
:1038E0000CE000BFD0ED001A61EE801AC0ED001AA6
:1038F000535C5B1E13F0FF035354F3D1491CC9B250
:103900000329E3D30020B9E71400002000000000E1
:103910007B14AE3E1D5A843F2DE9FE4F0546012023
:10392000C14E8DF800004FF000088DF8018030681E
:103930000C461746817C70686B4602220078FEF7C1
:103940001FFC4FF0FF3A00287AD1C820FCF756FD43
:103950008DF8008030686B460122C17B706800786A
:10396000FEF70EFC0028EFD130686B46012241794A
:1039700070680078FEF704FC0028E5D130686B46DB
:103980000122817C70680078FEF7FAFB0028DBD109
:1039900030686B460122C17D70680078FEF7F0FB4D
:1039A0000028D1D130686B46012201797068007817
:1039B000FEF7E6FB0028C7D14FF00C098DF8009008
:1039C00030686B460122017970680078FEF7D8FBF9
:1039D000002835D10F20FCF711FDB06A6B4601229B
:1039E000407A8DF800003068817870680078FEF7C2
:1039F000C7FB002824D1B06A6B460122007A8DF8FB
:103A000000003068417870680078FEF7B9FB002844
:103A100073D1B06A807A0FB140F0E0008DF80000F9
:103A200030686B460122817970680078FEF7A8FB48
:103A3000002862D12FB1B06AC07A40F0E00001E006
:103A40004AE018208DF8000030686B460122C179E9
:103A500070680078FEF794FBF0BB17B1C820FCF744
:103A6000CDFC40208DF8000030686B4601220179C2
:103A700070680078FEF784FB70BB78208DF800003A
:103A800030686B460122417970680078FEF778FB58
:103A900010BB3220FCF7B2FC8DF80080306847463E
:103AA0006B464179706801220078FEF769FB98B98E
:103AB00031687068B046897A00786B460222FEF75A
:103AC000FFFA48B9BDF80000AF6040BAB0FBF9F0AA
:103AD0006F60C6B22F6000E00FE0A76067602760EC
:103AE000002739E0D8F80010D8F804006B46C97AEE
:103AF00000780C22FEF7E4FA10B15046BDE8FE8FC4
:103B0000BDF80000236840BA00B2BDF80210BDF84D
:103B100004201844206049BA606809B20844606013
:103B200052BAA06812B21044A060BDF806002B681B
:103B300040BA01B2BDF80800BDF80A201944296056
:103B400040BA696800B20844686052BAA86812B204
:103B500010447F1CFFB2A860B742C3D328688322F9
:103B6000C117090441EA104100040023FCF763FB7C
:103B700032460023FCF75FFB286068688322C11788
:103B8000090441EA104100040023FCF754FB3246CB
:103B90000023FCF750FB6860A8688322C117090462
:103BA00041EA104100040023FCF745FB32460023A4
:103BB000FCF741FBA86020684FF40065C1170904B9
:103BC00041EA104100042A460023FCF734FB324648
:103BD0000023FCF730FB206060682A46C117090407
:103BE00041EA104100040023FCF725FB3246002384
:103BF000FCF721FB6060A0682A46C117090441EA6E
:103C0000104100040023FCF716FB32460023FCF7AA
:103C100012FBA060002802DDA0F5803001E000F575
:103C20008030A060002069E714000020F8B5064647
:103C30002E480D46002440686B46032200780D2173
:103C4000FEF73EFA08B10720F8BD9DF800000022FB
:103C500000F01F008DF800009DF801009FED241A70
:103C600000F01F008DF801009DF802006B4600F087
:103C70001F008DF80200012156F8220055F822702D
:103C8000C01B00D5404200EE100A985CB8EEC00A96
:103C900060EE010AD0B1B3EE090ADFED161A01E0B9
:103CA00020EE210AC0B2401E10F0FF009854F7D158
:103CB000C0EE801AB7EE000A0F4F31EEC00AB0EE28
:103CC000C00A10EE100AB84207DC09E010EE900AB4
:103CD0000A4F3844B0F1D97F02D901FA02F0044307
:103CE000521C032AC8DB2046F8BD00001400002047
:103CF0000000803754E3853F295C0F3E0000E0BEA2
:103D000000B5024600F00DF80346D01C00F009F89B
:103D100043EAC003901D00F004F843EA801080B22B
:103D200000BD90F90010002902DD4FF0000070473F
:103D300002DA4FF00400704790F90110002902DD0B
:103D40004FF00100704702DA4FF00500704790F91C
:103D50000200002802DD4FF00200704702DA4FF047
:103D6000060070474FF007007047FCF78DFFFEF725
:103D700011FCFEF717FAFEF701FBFEF71BFBFEF73F
:103D800081FAFEF7BBFAFEF79DFAFEF737F9FEF768
:103D900045FBFEF7A1FEFEE72DE9F041124C20F0B5
:103DA0000101002594F8240010B10020BDE8F08145
:103DB000A07A4FF0FF3668B10840277C2074884213
:103DC00000D0354641B1012000F052FE00F0A2FAC9
:103DD00038B127743046E9E7207D00B1012000F0BA
:103DE00047FE2846E2E700001400002010B500F06E
:103DF000F7F888BB782000F071FD10F0FF0F01D0BC
:103E0000012010BD7820FFF7C7FF10F0FF0F01D091
:103E1000022010BD642000F021FD10F0FF0F01D042
:103E2000032010BDFFF744FA10F0FF0F01D004206B
:103E300010BD1548FFF764FFFFF748FB10F0FF0FB8
:103E400001D0052010BD40F27310FFF709F910F002
:103E5000FF0F02D0062010BD14E06420FFF79EFA89
:103E600010F0FF0F01D00720F5E700F0BDFD08B10D
:103E70000820F0E7012000F017FC10F0FF0F01D040
:103E80000920E8E70020E6E7400000200D494A7AD3
:103E900042B1012A08D0022A0FD0032A0FD04FF0D6
:103EA000FF307047022200E004220270C97C11B189
:103EB0001106C90D0170002070470822F5E7102295
:103EC000F3E70000140000200F494A7A42B1012AAA
:103ED00009D0022A11D0032A12D04FF0FF307047C8
:103EE0004FF4804201E041F69C720280C97C11B11E
:103EF000C2F34E010180002070474FF48052F4E776
:103F00004FF40062F1E70000140000200B49097A29
:103F100039B1012907D002290AD003290BD0002189
:103F200003E0FA2101E04FF4FA71018000207047AC
:103F30004FF47A71F9E74FF4FA61F6E714000020C4
:103F40000D49097A41B1012909D002290DD003296F
:103F50000ED04FF0FF3070479FED080A01E09FED53
:103F6000080A80ED000A002070479FED060AF8E776
:103F70009FED050AF5E70000140000200000034350
:103F80000000834233330342333383410C49C97AFF
:103F9000072913D2DFE801F01204060A0C0E100004
:103FA000BC2100E062210180002070472A21FAE74D
:103FB0001421F8E70A21F6E70521F4E70021F2E7EA
:103FC00014000020054991F8242012B14FF0FF3071
:103FD0007047C9890180002070470000140000204C
:103FE0002DE9FC414C4C80208DF8000020686B4688
:103FF0000122817C60680078FEF7C2F84FF0FF373D
:10400000002832D16420FCF7F9F900258DF8005022
:1040100020686B460122817C60680078FEF7B0F86A
:10402000002870D120686B460622817D6068007888
:10403000FEF746F8002866D19DF805009DF80310AC
:10404000C007400F01F0010140EA41019DF8010065
:104050004FF0010600F00100014309D0012905D00D
:10406000022915D02DA0FEF739FD4CE0E67410E0D2
:1040700020686B460122C17860680078FEF720F85E
:1040800040BB9DF8000010F00F0020D0042822D083
:10409000E574FF2004F80A0F4FF6FF7104F8020CD4
:1040A00004F8010C6070A180A0712072A6702676C1
:1040B0006576E572A572E56025616561A576E576B0
:1040C000A5834FF4FA6000F02BFB18B907E01D48F8
:1040D000FEF704FD17E01CA0FEF700FDC6E7022076
:1040E00000F040FA78B92A2000F082FB58B932205B
:1040F00000F0B4FB38B90020FFF74EFE18B90020DD
:1041000000F064FA10B13846BDE8FC81002000F0F0
:10411000E5FB0020F8E7000014000020556E7375E1
:1041200070706F7274656420736F66747761726506
:104130002070726F64756374207265762025642E1A
:104140000A0000002857000848616C662073656EFD
:104150007369746976697479207061727420666F0E
:10416000756E642E0A0000002DE9FF4FDFF8948081
:10417000064685B098F8250015460F464FF0FF39E2
:10418000B0BBAFB3002420E0301B102800DD1020AE
:1041900080B283463A1901469246204600F0FAFB67
:1041A00030BB6A465946204600F08AF800BB5046AC
:1041B0005A466946FCF782F820B16FF0010009B059
:1041C000BDE8F08F04EB0B0084B2B442DCD3280AC4
:1041D0008DF810008DF81150D8F80000444604AB5B
:1041E000817ED8F8040002220078FDF7C9FF08B1EB
:1041F0004846E4E7012084F825000898E084002080
:10420000DDE70000140000202DE9F84305464FF0DB
:10421000FF39282844D80727284C00267DB10120E3
:1042200000F0B4FA20208DF800004FF00108012DB5
:1042300017D0052D18D88DF8018005201FE000202B
:1042400000F0A4FA8DF800608DF8017020686B46CC
:104250000222817C60680078FDF792FF00BB267522
:1042600029E08DF80160E8E7142D04D802208DF8CC
:1042700001000A2003E003208DF80100142000F063
:10428000B7FA9DF801006B4607EB80108DF801002E
:1042900020680222817C60680078FDF771FF10B110
:1042A0004846BDE8F8830820A072267384F814807D
:1042B0000020FFF771FD0020F3E70000140000204C
:1042C000F8B516000D464FF0FF371FD0104CA17AFD
:1042D000E1B1010A8DF80010C0B28DF8010041195A
:1042E00060684289914211D8216800786B46097E46
:1042F0000222FDF745FF48B92068EAB23346417D06
:1043000060680078FDF7DCFE002800D03846F8BD74
:1043100014000020F8B5564C4FF0FF36A07A002864
:104320007DD000258DF8005020686B460122C17BAE
:1043300060680078FDF724FF002870D120686B4684
:104340000122417960680078FDF71AFF002866D1E4
:1043500020686B460122017960680078FDF710FF44
:1043600000285CD194F82400E0B30C208DF8000004
:1043700020686B460122017960680078FDF700FF34
:10438000002872D13220FCF739F8C0208DF80000E7
:10439000A07AC00702D0E0208DF8000020686B46AC
:1043A0000122017960680078FDF7EAFE00285CD1FF
:1043B000607C18B102208DF8000001E08DF80050FB
:1043C00020686B460122C17B60680078FDF7D8FE4B
:1043D00028BB8DF8005020686B4601224179606847
:1043E00000783EE0FFE704208DF8000020686B466F
:1043F0000122017960680078FDF7C2FE78B9A07CDF
:1044000090B9A07AC0070FD05FF060008DF800006F
:1044100020686B46012201796068007800E024E0A2
:10442000FDF7AEFE08BB01E04020EFE73220FBF7CE
:10443000E5FF607C18B101208DF8000001E08DF8E7
:10444000005020686B460122C17B60680078FDF750
:1044500097FE50B92068064B0122417960681033FD
:104460000078FDF78DFE002800D03046F8BD000032
:10447000140000202DE9F047394C82468AB094F8A8
:1044800024000F4620B1002000F00EF9012600E0C4
:10449000002607A8FFF73AFD06A8FFF7F7FC09A8D2
:1044A000FFF774FD08A8FFF78DFD94F80A9094F8C3
:1044B00010800025002239465046FFF72DFA10B132
:1044C0006D1C022DF6DB022D1AD00025012203A956
:1044D0006846FFF721FA10B16D1C022DF6DB022DA4
:1044E0000ED003A93846FEF755FDC7B269465046BF
:1044F000FFF79CFB10F0FF0F4FF0000502D002E029
:10450000002503E001250FB945F00205FF202072C8
:104510006072E0724FF6FF71E181A0722074012099
:104520002073BDF81C0000F0FBF89DF8180000F0A7
:1045300019F8BDF8240000F05BF9BDF8200000F088
:104540008DF9484600F0CAF94046FFF725FC16B140
:10455000012000F0A9F80AB02846BDE8F087000065
:104560001400002038B5184C4FF0FF35A17A19B36C
:10457000022806D0042806D008280ED010281BD107
:104580000DE0002000E008208DF80000607A9DF822
:104590000010B0EBD10F04D005E01020F4E7182094
:1045A000F2E7002038BD20686B460122C1796068BF
:1045B0000078FDF7E5FD08B1284638BD9DF80000FC
:1045C000C0086072EDE7000014000020F8B5354C1B
:1045D0000546A07CA84201D10020F8BD31484FF02B
:1045E000FF366B46D0E900104FF0010209790078E0
:1045F00035B3FDF765FD70BB9DF800006B4620F0FC
:1046000020008DF8000020680122017960680078A0
:10461000FDF7B6FDF8B90320FBF7F0FE02208DF898
:10462000000094F8220078B382202BE020686B46CB
:104630000122017D60680078FDF7A2FD58B92EE0E7
:10464000FDF73EFD38B9A07AC0079DF8000003D001
:1046500040F0200002E00CE020F020008DF8000087
:1046600020686B460122017960680078FDF788FDBB
:1046700008B13046F8BD0320FBF7C0FE94F82200D5
:1046800000B180208DF8000094F823000028CDD0E0
:104690009DF8000040F030008DF80000C6E7A574DA
:1046A0009AE700001400002038B51C4C94F8241040
:1046B00081421DD0002500B394F82500D0B1002020
:1046C00000F0D6F90020FFF781FFE08C00F0C6F87B
:1046D0008DF8005060686B46012200782321FDF7B9
:1046E0004FFD012084F8240000F0C2F9FFF712FE0C
:1046F000002038BD4FF0FF3038BD002000F0B8F981
:10470000207C8DF8000060686B4601220078232130
:10471000FDF736FD84F82450E8E70000140000207F
:1047200038B5194C4FF0FF35A17A31B3FA2809D0CA
:10473000B0F5FA7F08D0B0F57A7F0FD0B0F5FA6FF8
:104740001BD10DE0002000E008208DF80000207A49
:104750009DF80010B0EBD10F04D005E01020F4E775
:104760001820F2E7002038BD20686B4601228179CD
:1047700060680078FDF704FD08B1284638BD9DF853
:104780000000C0082072EDE71400002038B5174C77
:10479000054694F82300A84201D1002038BD0DB190
:1047A000302000E000208DF80000A07C28B19DF8AA
:1047B000000040F002008DF8000094F8220028B1BB
:1047C0009DF8000040F080008DF8000020686B46E6
:1047D0000122017D60680078FDF7D2FC10B14FF036
:1047E000FF3038BD84F82350D7E7000014000020C4
:1047F00038B5194C4FF0FF35A17A31B3BC2801D33D
:10480000012010E0622801D302200CE02A2801D305
:10481000032008E0142801D3042004E00A2801D36F
:10482000052000E006208DF80000E07A9DF80010D9
:10483000884201D1002038BD20686B460122817872
:1048400060680078FDF79CFC08B1284638BD9DF8EB
:104850000000E072EEE7000014000020F8B51E4DE5
:1048600004464FF0FF37A87A48B395F8240030BBD0
:10487000287D4FF47A7648B164B1282C03D8E0B291
:10488000FFF7C2FC26E00020FFF7BEFC042C05D297
:10489000042406E00020FFF7B7FCF9E7B44200D992
:1048A0003446B6FBF4F0401E8DF8000028686B46D5
:1048B0000122417868680078FDF762FC08B138464B
:1048C000F8BD9DF80000401CB6FBF0F0E881400800
:1048D000FFF78EFF0020F8BD14000020F8B5054654
:1048E00010F0700F4FF0000601D0012004E015B168
:1048F0008DF8006002E040208DF80000244C6B46EB
:1049000001222068817C60680078FDF739FC4FF057
:10491000FF3760BB9DF8000020F0400020738DF849
:104920000060680602D404208DF80000A80605D4B3
:104930009DF8000040F002008DF80000E80605D464
:104940009DF8000040F001008DF80000280705D414
:104950009DF8000040F038008DF8000020686B469C
:104960000122C17C60680078FDF70AFC10B1A672D4
:104970003846F8BD25B1082D02D00020FFF706FF0C
:10498000A57226753220FBF739FD0020F8BD000026
:1049900014000020F8B516000D464FF0FF371FD069
:1049A000104CA17AE1B1010A8DF80010C0B28DF867
:1049B0000100411960684289914211D8216800784C
:1049C0006B46097E0222FDF7DBFB48B92068EAB29C
:1049D0003346417D60680078FDF7D2FB002800D0A7
:1049E0003846F8BD1400002000B589B002A905A81A
:1049F000FFF740FD032802D0012009B000BD684642
:104A0000FFF79EFA9DED050A05A8F8EEC00A9DED98
:104A1000000A60EE800AFDEEE00ACDED050ADDED4C
:104A2000060AF8EEE00A60EE800AFDEEE00ACDED3F
:104A3000060ADDED070AF8EEE00A20EE800ABDEE78
:104A4000C00A8DED070AFEF7DBFC01A8FFF73CFA70
:104A5000BDF8040002994143029103994143039137
:104A60000499414302A80491FEF72CFC0020C4E7FE
:104A7000F8B5144C0146224694F82460D2E90002AD
:104A800000235D1E56B179B1022111E0C17B10787F
:104A90006B460122FDF774FB68B90EE0A67A56B1A9
:104AA00011B1617C61B902E08DF80030EEE70121BF
:104AB0008DF80010EAE72846F8BD9DF80000607404
:104AC0000020F8BD140000200000000000000000DD
:104AD00001020304060708090000000001020304A4
:104AE00075191A0C6A231B1C1F207274433B413832
:104AF000393A6B6C376F06246D6E700068000004E5
:104B000076005401F7FD000183000000000800005A
:104B10000001001832000500000020410000D242D0
:104B2000295C0F3E9A99993E3333733F295C0F3EBF
:104B300000007000000000240000000200030000DC
:104B400000650054FFEF0000FA80000B12820001A4
:104B5000030C30C30E8C8CE914D5400213710F8EF8
:104B60003883F8833000F883258EF8833000F8838B
:104B7000FFFFFFFF0FFEA9D6240004001A8279A1CF
:104B80000000003CFFFF00000010000038836FA20F
:104B9000003E03304000000002CAE3093E800000EE
:104BA0002000000000000000400000006000000045
:104BB000000C0000000C186E000006920A16C0DF00
:104BC000FFFF0256FD8CD377FFE1C496E0C5BEAA75
:104BD00000000000FFFF0B2B0000165700000359D8
:104BE0004000000000001DFA00026C1D00000000E3
:104BF0003FFFDFEB003EB3B6000D227800002F3CF4
:104C000000000000001942B5000039A20000B365A1
:104C1000D90E9FC91DCF4C34300000005000000059
:104C20003BB67AE80064000000C800000000000005
:104C3000100000001000FA921000225E000D229F6A
:104C40000001000000320000FF46000063D40000B5
:104C50001000000004D6000004CC000004CC0000CA
:104C60000000107200000040000000000000000082
:104C700000060002000500070000000000640000BC
:104C80000000000000000005000500640020000096
:104C900000000000000000000000400000000300D1
:104CA00000000032F8980000FF650000830F00004C
:104CB000FF9BFC000000000000000000000000005E
:104CC00000000000000000000000000000000000E4
:104CD00000000000000000000000000000001000C4
:104CE00040000000000000060000B26A0002000060
:104CF0000001FB830068000000D9FC007CF1FF8309
:104D00000000000000650000006403E80064002863
:104D1000000000250000000016A0000000001000A8
:104D200000001000002F0000000001F4000010003F
:104D300000280000FFFF4581FFFFFA72000000001D
:104D400000000000004400050005BAC6004778A234
:104D50000000000100000000000006000000001438
:104D60000000254D002F706D000005AE000C02D034
:104D70000000000000000000000000000000000033
:104D8000001B000000000000000000000000000008
:104D900000640000000800000000000000000000A7
:104DA0000000000000000000000000000000000003
:104DB00000000000000000000000000000000000F3
:104DC00000000000000000000000000000000000E3
:104DD00000000000000000000000000000000000D3
:104DE00000000000000000000000000000000000C3
:104DF000001B00000000000000000000000E000E7C
:104E000000000AC70004000000000032FFFFFF9C02
:104E100000000B2B000000020000000100000064F5
:104E2000FFE500000000000000000000000000009E
:104E30000000000100000000000100000000000070
:104E4000000180000001800000018000002426D3C2
:104E50000000000000000000000600100096003C6A
:104E60000000000000000000000000000000000042
:104E70000C0A4E68CDCF770950166759C619CE82F5
:104E80000000000000000000000000000000000022
:104E9000000000000000000017D78400030000009D
:104EA0000000000000000000C7938F9D1E1B1C190E
:104EB00000000000000000000000000000000000F2
:104EC0000000000000000000020318850000400000
:104ED00000000003000000030000000000000000CC
:104EE0004000000000000000000000000000000082
:104EF00000000000000000000000000000000000B2
:104F000000000000000000000000000000000000A1
:104F100000000000677DDF7E72902E554CF6E6881B
:104F20000000000000000000000000000000000081
:104F3000D8DCB4B8B0D8B9ABF3F8FAB3B7BB8E9E2F
:104F4000AEF132F51BF1B4B8B08097F1A9DFDFDF25
:104F5000AADFDFDFF2AAC5CDC7A90CC92C97F1A93A
:104F600089264666B28999A92D557DB0B08AA89642
:104F7000365676F1BAA3B4B280C0B8A89711B283FE
:104F800098BAA3F0240844106418B2B9B49883F115
:104F9000A329557DBAB5B1A38393F0002850F5B28B
:104FA000B6AA839328547CF1B9A3829361BAA2DA9A
:104FB000DEDFDB819AB9AEF5606870F1DABAA2DFA4
:104FC000D9BAA2FAB9A38292DB31BAA2D9BAA2F8AD
:104FD000DF85A4D0C1BBAD83C2C5C7B8A2DFDFDF08
:104FE000BAA0DFDFDFD8D8F1B8AAB38DB4980D35F9
:104FF0005DB2B6BAAF8C96198F9FA70E161EB49AE3
:10500000B8AA872C547CBAA4B08AB691325676B22C
:105010008494A4C808CDD8B8B4B0F19982A82D550D
:105020007D98A80E161EA22C547C92A4F02C5078C9
:10503000F184A898C4CDFCD80DDBA8FC2DF3D9BA17
:10504000A6F8DABAA6DED8BAB2B68696A6D0F3C863
:1050500041DAA6C8F8D8B0B4B882A892F52C548822
:1050600098F135D9F418D8F1A2D0F8F9A884D9C7A5
:10507000DFF8F883C5DADF69DF83C1D8F40114F102
:10508000A8824EA884F311D182F5D992289788F18D
:1050900009F41C1CD884A8F3C0F9D1D99782F1294E
:1050A000F40DD8F3F9F9D1D982F4C203D8DEDF1AAE
:1050B000D8F1A2FAF9A88498D9C7DFF8F8F883C71D
:1050C000DADF69DFF883C3D8F40114F198A8822EDF
:1050D000A884F311D182F5D992509788F109F41C74
:1050E000D884A8F3C0F8F9D1D99782F149F40DD842
:1050F000F3F9F9D1D982F4C403D8DEDFD8F1AD8851
:1051000098CCA809F9D98292A8F57CF1883ACF9475
:105110004A6E98DB6931DAADF2DEF9D88795A8F2EC
:1051200021D1DAA5F9F417D9F1AE8ED0C0C3AE8281
:10513000C684C3A88595C8A588F2C0F1F4010EF114
:105140008E9EA8C63E56F554F18872F40115F1986A
:1051500045856EF58E9E0488F142985A8E9E06888B
:1051600069F4011CF1981E1108D0F504F11E970294
:1051700002983625DBF9D985A5F3C1DA85A5F3DFD9
:10518000D88595A8F309DAA5FAD88292A8F578F11E
:10519000881A849F26889821DAF41DF3D8879F39CE
:1051A000D1AFD9DFDFFBF9F40CF3D8FAD0F8DAF994
:1051B000F9D0DFD9F9D8F40BD8F3879F39D1AFD91B
:1051C000DFDFF41DF3D8FAFCA869F9F9AFD0DADE15
:1051D000FAD9F88F9FA8F1CCF398DB45D9AFDFD08F
:1051E000F8D8F18F9FA8CAF38809DAAF8FCBF8D827
:1051F000F2AD978D0CD9A5DFF9BAA6F3FAF412F245
:10520000D8950DD1D9BAA6F3FADAA5F2C1BAA6F3A8
:10521000DFD8F1BAB2B68696A6D0CAF349DAA6CBE1
:10522000F8D8B0B4B8D8AD84F2C0DFF18FCBC3A842
:10523000B2B68696C8C1CBC3F3B0B48898A821DBB8
:10524000718D9D71859521D9ADF2FAD88597A828E1
:10525000D9F408D8F28D29DAF405D9F285A4C2F27E
:10526000D8A88D9401D1D9F411F2D88721D8F40AA5
:10527000D8F28498A8C801D1D9F411D8F3A4C8BB36
:10528000AFD0F2DEF8F8F8F8F8F8F8F8D8F1B8F698
:10529000B5B9B08A95A3DE3CA3D9F8D85CA3D9F8F8
:1052A000D87CA3D9F8D8F8F9D1A5D9DFDAFAD8B1E2
:1052B0008530F7D9DED8F830ADDADED8F2B48C9983
:1052C000A32D557DA083DFDFDFB591A0F629D9FBA3
:1052D000D8A0FC29D9FAD8A0D051D9F8D8FC51D9F6
:1052E000F9D879D9FBD8A0D0FC79D9FAD8A1F9F9A5
:1052F000F9F9F9A0DADFDFDFD8A1F8F8F8F8F8ACAF
:10530000DEF8ADDE8393AC2C547CF1A8DFDFDFF652
:105310009D2CDAA0DFD9FADB2DF8D8A850DAA0D07E
:10532000DED9D0F8F8F8DB55F8D8A878DAA0D0DFC5
:10533000D9D0FAF8F8F8F8DB7DF8D89CA88CF530CD
:10534000DB38D9D0DEDFA0D0DEDFD8A848DB58D9E3
:10535000DFD0DEA0DFD0DED8A868DB70D9DFDFA029
:10536000DFDFD8F1A888902C547C98A8D05C38D185
:10537000DAF2AE8CDFF9D8B087A8C1C1B188A8C66F
:10538000F9F9DA36D8A8F9DA36D8A8F9DA36D8A889
:10539000F9DA36D8A8F9DA36D8F78D9DADF818DAEB
:1053A000F2AEDFD8F7ADFA30D9A4DEF9D8F2AEDE2E
:1053B000FAF983A7D9C3C5C7F1889BA77AADF7DEF1
:1053C000DFA4F8849408A797F300AEF29819A48894
:1053D000C6A39488F632DFF28393DB09D9F2AADF01
:1053E000D8D8AEF8F9D1DAF3A4DEA7F1889B7AD841
:1053F000F38494AE19F9DAAAF1DFD8A881C0C3C545
:10540000C7A39283F628ADDED9F8D8A350ADD9F85A
:10541000D8A378ADD9F8D8F8F9D1A1DADEC3C5C7D9
:10542000D8A18194F818F2B089ACC3C5C7F1D8B837
:10543000B4B09786A8319B069907AB9728889BF054
:105440000C201440B0B4B8F0A88A9A285078B79BC2
:10545000A8295179247059446938644831F1BBABAB
:1054600088002C547CF0B38BB8A804285078F1B095
:1054700088B49726A85998BBABB38B02264666B072
:10548000B8F08A9CA82951798B2951798A247059BE
:105490008B2058718A4469388B3940688A64483156
:1054A0008B30496088F1AC002C547CF08CA8042827
:1054B0005078F1889726A85998AC8C02264666F059
:1054C000899CA8295179247059446938644831A9C4
:1054D0008809205970AB11384069A8193148608C8F
:1054E000A83C415C207C00F187981986A86E767EE6
:1054F000A999882D557DD8B1B5B9A3DFDFDFAED02E
:10550000DFAAD0DEF2ABF8F9D9B087C4AAF1DFDFA9
:10551000BBAFDFDFB9D8B1F1A3978E60DFB084F203
:10552000C8F8F9D9DED89385F14AB183A308B583C9
:105530009A0810B79F10D8F1B0BAAEB08AC2B2B60E
:105540008E9EF1FBD9F41DD8F9D90CF1D8F8F8AD3D
:1055500061D9AEFBD8F40CF1D8F8F8AD19D9AEFB8F
:10556000DFD8F416F1D8F8AD8D61D9F4F4ACF59C20
:105570009C8DDF2BBAB6AEFAF8F40BD8F1AED0F8AA
:10558000AD51DAAEFAF8F1D8B9B1B6A3839C08B937
:10559000B1839AB5AAC0FD3083B79F10B58B93F243
:1055A0000202D1ABDADED8F1B080BAABC0C3B284AC
:1055B000C1C3D8B1B9F38BA391B609B4D9ABDEB0EE
:1055C000879CB9A3DDF1B38B8B8B8B8BB087A3A3A7
:1055D000A3A3B28BB69BF2A3A3A3A3A3A3A3A3A34A
:1055E000A3F1B087B59AA3F39BA3A3DCBAACDFB950
:1055F000A3A3A3A3A3A3A3A3A3A3A3A3A3A3A3A37B
:10560000D8D8D8BBB3B7F1AAF9DAFFD9809AAA28BB
:10561000B48098A720B79787A86688F07951F19051
:105620002C870CA781976293F07171608594012992
:10563000517990A5F1284C6C870C95188578A38337
:1056400090284C6C886CD8F3A28200F210A89219B2
:1056500080A2F2D926D8F188A84DD948D896A83981
:1056600080D93CD89580A839A68698D92CDA87A706
:105670002CD8A8899519A980D938D8A88939A980A2
:10568000DA3CD8A82EA83990D90CD8A8953198D949
:105690000CD8A809D9FFD801DAFFD89539A9DA269C
:1056A000FFD890A80D8999A810809821DA2ED88962
:1056B00099A83180DA2ED8A886963180DA2ED8A81B
:1056C000873180DA2ED8A88292F34180F1D92ED882
:1056D000A882F31980F1D92ED882ACF3C0A280221F
:1056E000F1A62EA72EA92298A829DAACDEFFD8A20F
:1056F000F22AF1A92E8292A8F23180A696F1D90061
:10570000AC8C9C0C30ACDED0DEFFD88C9CACD010C6
:10571000ACDE8092A2F24C82A8F1CAF235F19688F2
:10572000A6D900D8F1FF000050726F647563742031
:1057300049442072656164206173203020696E6481
:105740006963617465732064657669636520697354
:105750002065697468657220696E636F6D7061742D
:1057600069626C65206F7220616E204D5055333038
:1057700035302E0A00000000985700080000002075
:10578000500000001C2B0008E857000850000020C3
:10579000000A00002C2B000801000000100000008F
:1057A000000000000024F40000000000E04A0008AF
:1057B000FC4A00080000000000000000000000009B
:1057C00000000000000000000000000000000000D9
:1057D00000000000084B000801000000010000006C
:0857E0000100000000000000C0
:040000050800019955
:00000001FF
